{
  "_format": "hh-sol-artifact-1",
  "contractName": "NftSaleable",
  "sourceName": "contracts/NftSaleable.sol",
  "abi": [
    {
      "inputs": [],
      "stateMutability": "nonpayable",
      "type": "constructor"
    },
    {
      "inputs": [
        {
          "internalType": "address",
          "name": "sender",
          "type": "address"
        },
        {
          "internalType": "uint256",
          "name": "tokenId",
          "type": "uint256"
        },
        {
          "internalType": "address",
          "name": "owner",
          "type": "address"
        }
      ],
      "name": "ERC721IncorrectOwner",
      "type": "error"
    },
    {
      "inputs": [
        {
          "internalType": "address",
          "name": "operator",
          "type": "address"
        },
        {
          "internalType": "uint256",
          "name": "tokenId",
          "type": "uint256"
        }
      ],
      "name": "ERC721InsufficientApproval",
      "type": "error"
    },
    {
      "inputs": [
        {
          "internalType": "address",
          "name": "approver",
          "type": "address"
        }
      ],
      "name": "ERC721InvalidApprover",
      "type": "error"
    },
    {
      "inputs": [
        {
          "internalType": "address",
          "name": "operator",
          "type": "address"
        }
      ],
      "name": "ERC721InvalidOperator",
      "type": "error"
    },
    {
      "inputs": [
        {
          "internalType": "address",
          "name": "owner",
          "type": "address"
        }
      ],
      "name": "ERC721InvalidOwner",
      "type": "error"
    },
    {
      "inputs": [
        {
          "internalType": "address",
          "name": "receiver",
          "type": "address"
        }
      ],
      "name": "ERC721InvalidReceiver",
      "type": "error"
    },
    {
      "inputs": [
        {
          "internalType": "address",
          "name": "sender",
          "type": "address"
        }
      ],
      "name": "ERC721InvalidSender",
      "type": "error"
    },
    {
      "inputs": [
        {
          "internalType": "uint256",
          "name": "tokenId",
          "type": "uint256"
        }
      ],
      "name": "ERC721NonexistentToken",
      "type": "error"
    },
    {
      "inputs": [],
      "name": "ReentrancyGuardReentrantCall",
      "type": "error"
    },
    {
      "anonymous": false,
      "inputs": [
        {
          "indexed": true,
          "internalType": "address",
          "name": "owner",
          "type": "address"
        },
        {
          "indexed": true,
          "internalType": "address",
          "name": "approved",
          "type": "address"
        },
        {
          "indexed": true,
          "internalType": "uint256",
          "name": "tokenId",
          "type": "uint256"
        }
      ],
      "name": "Approval",
      "type": "event"
    },
    {
      "anonymous": false,
      "inputs": [
        {
          "indexed": true,
          "internalType": "address",
          "name": "owner",
          "type": "address"
        },
        {
          "indexed": true,
          "internalType": "address",
          "name": "operator",
          "type": "address"
        },
        {
          "indexed": false,
          "internalType": "bool",
          "name": "approved",
          "type": "bool"
        }
      ],
      "name": "ApprovalForAll",
      "type": "event"
    },
    {
      "anonymous": false,
      "inputs": [
        {
          "indexed": false,
          "internalType": "uint256",
          "name": "listingId",
          "type": "uint256"
        },
        {
          "indexed": true,
          "internalType": "address",
          "name": "seller",
          "type": "address"
        },
        {
          "indexed": true,
          "internalType": "address",
          "name": "bidder",
          "type": "address"
        },
        {
          "indexed": false,
          "internalType": "uint256",
          "name": "bid",
          "type": "uint256"
        }
      ],
      "name": "AuctionCompleted",
      "type": "event"
    },
    {
      "anonymous": false,
      "inputs": [
        {
          "indexed": false,
          "internalType": "uint256",
          "name": "listingId",
          "type": "uint256"
        },
        {
          "indexed": true,
          "internalType": "address",
          "name": "seller",
          "type": "address"
        },
        {
          "indexed": false,
          "internalType": "uint256",
          "name": "price",
          "type": "uint256"
        },
        {
          "indexed": false,
          "internalType": "uint256",
          "name": "tokenId",
          "type": "uint256"
        },
        {
          "indexed": false,
          "internalType": "uint256",
          "name": "startAt",
          "type": "uint256"
        },
        {
          "indexed": false,
          "internalType": "uint256",
          "name": "endAt",
          "type": "uint256"
        }
      ],
      "name": "AuctionCreated",
      "type": "event"
    },
    {
      "anonymous": false,
      "inputs": [
        {
          "indexed": false,
          "internalType": "uint256",
          "name": "_fromTokenId",
          "type": "uint256"
        },
        {
          "indexed": false,
          "internalType": "uint256",
          "name": "_toTokenId",
          "type": "uint256"
        }
      ],
      "name": "BatchMetadataUpdate",
      "type": "event"
    },
    {
      "anonymous": false,
      "inputs": [
        {
          "indexed": false,
          "internalType": "uint256",
          "name": "listingId",
          "type": "uint256"
        },
        {
          "indexed": true,
          "internalType": "address",
          "name": "bidder",
          "type": "address"
        },
        {
          "indexed": false,
          "internalType": "uint256",
          "name": "bid",
          "type": "uint256"
        }
      ],
      "name": "BidCreated",
      "type": "event"
    },
    {
      "anonymous": false,
      "inputs": [
        {
          "indexed": false,
          "internalType": "uint256",
          "name": "_tokenId",
          "type": "uint256"
        }
      ],
      "name": "MetadataUpdate",
      "type": "event"
    },
    {
      "anonymous": false,
      "inputs": [
        {
          "indexed": true,
          "internalType": "address",
          "name": "minter",
          "type": "address"
        },
        {
          "indexed": false,
          "internalType": "uint256",
          "name": "nftID",
          "type": "uint256"
        },
        {
          "indexed": false,
          "internalType": "string",
          "name": "uri",
          "type": "string"
        }
      ],
      "name": "Minted",
      "type": "event"
    },
    {
      "anonymous": false,
      "inputs": [
        {
          "indexed": true,
          "internalType": "address",
          "name": "from",
          "type": "address"
        },
        {
          "indexed": true,
          "internalType": "address",
          "name": "to",
          "type": "address"
        },
        {
          "indexed": true,
          "internalType": "uint256",
          "name": "tokenId",
          "type": "uint256"
        }
      ],
      "name": "Transfer",
      "type": "event"
    },
    {
      "anonymous": false,
      "inputs": [
        {
          "indexed": false,
          "internalType": "uint256",
          "name": "listingId",
          "type": "uint256"
        },
        {
          "indexed": true,
          "internalType": "address",
          "name": "bidder",
          "type": "address"
        },
        {
          "indexed": false,
          "internalType": "uint256",
          "name": "bid",
          "type": "uint256"
        }
      ],
      "name": "WithdrawBid",
      "type": "event"
    },
    {
      "inputs": [
        {
          "internalType": "address",
          "name": "to",
          "type": "address"
        },
        {
          "internalType": "uint256",
          "name": "tokenId",
          "type": "uint256"
        }
      ],
      "name": "approve",
      "outputs": [],
      "stateMutability": "nonpayable",
      "type": "function"
    },
    {
      "inputs": [
        {
          "internalType": "address",
          "name": "owner",
          "type": "address"
        }
      ],
      "name": "balanceOf",
      "outputs": [
        {
          "internalType": "uint256",
          "name": "",
          "type": "uint256"
        }
      ],
      "stateMutability": "view",
      "type": "function"
    },
    {
      "inputs": [
        {
          "internalType": "uint256",
          "name": "listingId",
          "type": "uint256"
        }
      ],
      "name": "bid",
      "outputs": [],
      "stateMutability": "payable",
      "type": "function"
    },
    {
      "inputs": [
        {
          "internalType": "uint256",
          "name": "",
          "type": "uint256"
        },
        {
          "internalType": "address",
          "name": "",
          "type": "address"
        }
      ],
      "name": "bids",
      "outputs": [
        {
          "internalType": "uint256",
          "name": "",
          "type": "uint256"
        }
      ],
      "stateMutability": "view",
      "type": "function"
    },
    {
      "inputs": [
        {
          "internalType": "uint256",
          "name": "listingId",
          "type": "uint256"
        }
      ],
      "name": "completeAuction",
      "outputs": [],
      "stateMutability": "payable",
      "type": "function"
    },
    {
      "inputs": [
        {
          "internalType": "uint256",
          "name": "price",
          "type": "uint256"
        },
        {
          "internalType": "uint256",
          "name": "tokenId",
          "type": "uint256"
        },
        {
          "internalType": "uint256",
          "name": "durationInSeconds",
          "type": "uint256"
        }
      ],
      "name": "createAuctionListing",
      "outputs": [
        {
          "internalType": "uint256",
          "name": "",
          "type": "uint256"
        }
      ],
      "stateMutability": "nonpayable",
      "type": "function"
    },
    {
      "inputs": [
        {
          "internalType": "uint256",
          "name": "tokenId",
          "type": "uint256"
        }
      ],
      "name": "getApproved",
      "outputs": [
        {
          "internalType": "address",
          "name": "",
          "type": "address"
        }
      ],
      "stateMutability": "view",
      "type": "function"
    },
    {
      "inputs": [
        {
          "internalType": "uint256",
          "name": "tokenId",
          "type": "uint256"
        }
      ],
      "name": "getNFTInfo",
      "outputs": [
        {
          "internalType": "string",
          "name": "name_",
          "type": "string"
        },
        {
          "internalType": "uint256",
          "name": "tokenId_",
          "type": "uint256"
        },
        {
          "internalType": "string",
          "name": "tokenURI_",
          "type": "string"
        },
        {
          "internalType": "bool",
          "name": "isAuction_",
          "type": "bool"
        },
        {
          "internalType": "uint256",
          "name": "price_",
          "type": "uint256"
        },
        {
          "internalType": "address",
          "name": "owner_",
          "type": "address"
        }
      ],
      "stateMutability": "view",
      "type": "function"
    },
    {
      "inputs": [
        {
          "internalType": "uint256",
          "name": "",
          "type": "uint256"
        }
      ],
      "name": "highestBidder",
      "outputs": [
        {
          "internalType": "address",
          "name": "",
          "type": "address"
        }
      ],
      "stateMutability": "view",
      "type": "function"
    },
    {
      "inputs": [
        {
          "internalType": "address",
          "name": "owner",
          "type": "address"
        },
        {
          "internalType": "address",
          "name": "operator",
          "type": "address"
        }
      ],
      "name": "isApprovedForAll",
      "outputs": [
        {
          "internalType": "bool",
          "name": "",
          "type": "bool"
        }
      ],
      "stateMutability": "view",
      "type": "function"
    },
    {
      "inputs": [
        {
          "internalType": "uint256",
          "name": "id",
          "type": "uint256"
        }
      ],
      "name": "isAuctionExpired",
      "outputs": [
        {
          "internalType": "bool",
          "name": "",
          "type": "bool"
        }
      ],
      "stateMutability": "view",
      "type": "function"
    },
    {
      "inputs": [
        {
          "internalType": "uint256",
          "name": "id",
          "type": "uint256"
        }
      ],
      "name": "isAuctionOpen",
      "outputs": [
        {
          "internalType": "bool",
          "name": "",
          "type": "bool"
        }
      ],
      "stateMutability": "view",
      "type": "function"
    },
    {
      "inputs": [],
      "name": "listingCounter",
      "outputs": [
        {
          "internalType": "uint256",
          "name": "",
          "type": "uint256"
        }
      ],
      "stateMutability": "view",
      "type": "function"
    },
    {
      "inputs": [
        {
          "internalType": "uint256",
          "name": "",
          "type": "uint256"
        }
      ],
      "name": "listings",
      "outputs": [
        {
          "internalType": "address",
          "name": "seller",
          "type": "address"
        },
        {
          "internalType": "uint256",
          "name": "tokenId",
          "type": "uint256"
        },
        {
          "internalType": "uint256",
          "name": "price",
          "type": "uint256"
        },
        {
          "internalType": "uint256",
          "name": "netPrice",
          "type": "uint256"
        },
        {
          "internalType": "uint256",
          "name": "startAt",
          "type": "uint256"
        },
        {
          "internalType": "uint256",
          "name": "endAt",
          "type": "uint256"
        },
        {
          "internalType": "enum NftSaleable.AuctionStatus",
          "name": "status",
          "type": "uint8"
        }
      ],
      "stateMutability": "view",
      "type": "function"
    },
    {
      "inputs": [],
      "name": "minAuctionIncrement",
      "outputs": [
        {
          "internalType": "uint256",
          "name": "",
          "type": "uint256"
        }
      ],
      "stateMutability": "view",
      "type": "function"
    },
    {
      "inputs": [
        {
          "internalType": "string",
          "name": "tokenURI",
          "type": "string"
        },
        {
          "internalType": "address",
          "name": "minterAddress",
          "type": "address"
        }
      ],
      "name": "mint",
      "outputs": [
        {
          "internalType": "uint256",
          "name": "",
          "type": "uint256"
        }
      ],
      "stateMutability": "nonpayable",
      "type": "function"
    },
    {
      "inputs": [],
      "name": "name",
      "outputs": [
        {
          "internalType": "string",
          "name": "",
          "type": "string"
        }
      ],
      "stateMutability": "view",
      "type": "function"
    },
    {
      "inputs": [
        {
          "internalType": "uint256",
          "name": "tokenId",
          "type": "uint256"
        }
      ],
      "name": "ownerOf",
      "outputs": [
        {
          "internalType": "address",
          "name": "",
          "type": "address"
        }
      ],
      "stateMutability": "view",
      "type": "function"
    },
    {
      "inputs": [
        {
          "internalType": "address",
          "name": "from",
          "type": "address"
        },
        {
          "internalType": "address",
          "name": "to",
          "type": "address"
        },
        {
          "internalType": "uint256",
          "name": "tokenId",
          "type": "uint256"
        }
      ],
      "name": "safeTransferFrom",
      "outputs": [],
      "stateMutability": "nonpayable",
      "type": "function"
    },
    {
      "inputs": [
        {
          "internalType": "address",
          "name": "from",
          "type": "address"
        },
        {
          "internalType": "address",
          "name": "to",
          "type": "address"
        },
        {
          "internalType": "uint256",
          "name": "tokenId",
          "type": "uint256"
        },
        {
          "internalType": "bytes",
          "name": "data",
          "type": "bytes"
        }
      ],
      "name": "safeTransferFrom",
      "outputs": [],
      "stateMutability": "nonpayable",
      "type": "function"
    },
    {
      "inputs": [
        {
          "internalType": "address",
          "name": "operator",
          "type": "address"
        },
        {
          "internalType": "bool",
          "name": "approved",
          "type": "bool"
        }
      ],
      "name": "setApprovalForAll",
      "outputs": [],
      "stateMutability": "nonpayable",
      "type": "function"
    },
    {
      "inputs": [
        {
          "internalType": "bytes4",
          "name": "interfaceId",
          "type": "bytes4"
        }
      ],
      "name": "supportsInterface",
      "outputs": [
        {
          "internalType": "bool",
          "name": "",
          "type": "bool"
        }
      ],
      "stateMutability": "view",
      "type": "function"
    },
    {
      "inputs": [],
      "name": "symbol",
      "outputs": [
        {
          "internalType": "string",
          "name": "",
          "type": "string"
        }
      ],
      "stateMutability": "view",
      "type": "function"
    },
    {
      "inputs": [],
      "name": "tokenCounter",
      "outputs": [
        {
          "internalType": "uint256",
          "name": "",
          "type": "uint256"
        }
      ],
      "stateMutability": "view",
      "type": "function"
    },
    {
      "inputs": [
        {
          "internalType": "uint256",
          "name": "tokenId",
          "type": "uint256"
        }
      ],
      "name": "tokenURI",
      "outputs": [
        {
          "internalType": "string",
          "name": "",
          "type": "string"
        }
      ],
      "stateMutability": "view",
      "type": "function"
    },
    {
      "inputs": [
        {
          "internalType": "address",
          "name": "from",
          "type": "address"
        },
        {
          "internalType": "address",
          "name": "to",
          "type": "address"
        },
        {
          "internalType": "uint256",
          "name": "tokenId",
          "type": "uint256"
        }
      ],
      "name": "transferFrom",
      "outputs": [],
      "stateMutability": "nonpayable",
      "type": "function"
    }
  ],
  "bytecode": "0x60806040526005600a553480156200001657600080fd5b506040518060400160405280600781526020017f5368696e4e4654000000000000000000000000000000000000000000000000008152506040518060400160405280600581526020017f5345554e47000000000000000000000000000000000000000000000000000000815250816000908162000094919062000341565b508060019081620000a6919062000341565b50505060016007819055506000600881905550600060098190555062000428565b600081519050919050565b7f4e487b7100000000000000000000000000000000000000000000000000000000600052604160045260246000fd5b7f4e487b7100000000000000000000000000000000000000000000000000000000600052602260045260246000fd5b600060028204905060018216806200014957607f821691505b6020821081036200015f576200015e62000101565b5b50919050565b60008190508160005260206000209050919050565b60006020601f8301049050919050565b600082821b905092915050565b600060088302620001c97fffffffffffffffffffffffffffffffffffffffffffffffffffffffffffffffff826200018a565b620001d586836200018a565b95508019841693508086168417925050509392505050565b6000819050919050565b6000819050919050565b6000620002226200021c6200021684620001ed565b620001f7565b620001ed565b9050919050565b6000819050919050565b6200023e8362000201565b620002566200024d8262000229565b84845462000197565b825550505050565b600090565b6200026d6200025e565b6200027a81848462000233565b505050565b5b81811015620002a2576200029660008262000263565b60018101905062000280565b5050565b601f821115620002f157620002bb8162000165565b620002c6846200017a565b81016020851015620002d6578190505b620002ee620002e5856200017a565b8301826200027f565b50505b505050565b600082821c905092915050565b60006200031660001984600802620002f6565b1980831691505092915050565b600062000331838362000303565b9150826002028217905092915050565b6200034c82620000c7565b67ffffffffffffffff811115620003685762000367620000d2565b5b62000374825462000130565b62000381828285620002a6565b600060209050601f831160018114620003b95760008415620003a4578287015190505b620003b0858262000323565b86555062000420565b601f198416620003c98662000165565b60005b82811015620003f357848901518255600182019150602085019450602081019050620003cc565b868310156200041357848901516200040f601f89168262000303565b8355505b6001600288020188555050505b505050505050565b613e7580620004386000396000f3fe6080604052600436106101815760003560e01c80634c22f381116100d1578063a22cb4651161008a578063d082e38111610064578063d082e381146105d6578063d188929f14610601578063de74e57b14610643578063e985e9c51461068657610181565b8063a22cb46514610547578063b88d4fde14610570578063c87b56dd1461059957610181565b80634c22f3811461040f5780636352211e1461044c5780636c2c9c7d14610489578063708d4d35146104b457806370a08231146104df57806395d89b411461051c57610181565b80631c351a9d1161013e5780633f1ffcec116101185780633f1ffcec1461035057806342842e0e1461038d578063451df52e146103b6578063454a2ab3146103f357610181565b80631c351a9d146102ce57806321b628861461030b57806323b872dd1461032757610181565b806301ffc9a71461018657806306fdde03146101c3578063081812fc146101ee578063095ea7b31461022b5780630ad48628146102545780631389b11714610291575b600080fd5b34801561019257600080fd5b506101ad60048036038101906101a89190612c28565b6106c3565b6040516101ba9190612c70565b60405180910390f35b3480156101cf57600080fd5b506101d8610724565b6040516101e59190612d1b565b60405180910390f35b3480156101fa57600080fd5b5061021560048036038101906102109190612d73565b6107b6565b6040516102229190612de1565b60405180910390f35b34801561023757600080fd5b50610252600480360381019061024d9190612e28565b6107d2565b005b34801561026057600080fd5b5061027b60048036038101906102769190612d73565b6107e8565b6040516102889190612c70565b60405180910390f35b34801561029d57600080fd5b506102b860048036038101906102b39190612d73565b61085c565b6040516102c59190612c70565b60405180910390f35b3480156102da57600080fd5b506102f560048036038101906102f09190612f9d565b61087f565b6040516103029190613008565b60405180910390f35b61032560048036038101906103209190612d73565b61090e565b005b34801561033357600080fd5b5061034e60048036038101906103499190613023565b610c90565b005b34801561035c57600080fd5b5061037760048036038101906103729190613076565b610d92565b6040516103849190613008565b60405180910390f35b34801561039957600080fd5b506103b460048036038101906103af9190613023565b610db7565b005b3480156103c257600080fd5b506103dd60048036038101906103d89190612d73565b610dd7565b6040516103ea9190612de1565b60405180910390f35b61040d60048036038101906104089190612d73565b610e0a565b005b34801561041b57600080fd5b50610436600480360381019061043191906130b6565b6110f7565b6040516104439190613008565b60405180910390f35b34801561045857600080fd5b50610473600480360381019061046e9190612d73565b6112b5565b6040516104809190612de1565b60405180910390f35b34801561049557600080fd5b5061049e6112c7565b6040516104ab9190613008565b60405180910390f35b3480156104c057600080fd5b506104c96112cd565b6040516104d69190613008565b60405180910390f35b3480156104eb57600080fd5b5061050660048036038101906105019190613109565b6112d3565b6040516105139190613008565b60405180910390f35b34801561052857600080fd5b5061053161138d565b60405161053e9190612d1b565b60405180910390f35b34801561055357600080fd5b5061056e60048036038101906105699190613162565b61141f565b005b34801561057c57600080fd5b5061059760048036038101906105929190613243565b611435565b005b3480156105a557600080fd5b506105c060048036038101906105bb9190612d73565b611452565b6040516105cd9190612d1b565b60405180910390f35b3480156105e257600080fd5b506105eb611565565b6040516105f89190613008565b60405180910390f35b34801561060d57600080fd5b5061062860048036038101906106239190612d73565b61156b565b60405161063a969594939291906132c6565b60405180910390f35b34801561064f57600080fd5b5061066a60048036038101906106659190612d73565b611709565b60405161067d97969594939291906133ac565b60405180910390f35b34801561069257600080fd5b506106ad60048036038101906106a8919061341b565b611778565b6040516106ba9190612c70565b60405180910390f35b6000634906490660e01b7bffffffffffffffffffffffffffffffffffffffffffffffffffffffff1916827bffffffffffffffffffffffffffffffffffffffffffffffffffffffff1916148061071d575061071c8261180c565b5b9050919050565b6060600080546107339061348a565b80601f016020809104026020016040519081016040528092919081815260200182805461075f9061348a565b80156107ac5780601f10610781576101008083540402835291602001916107ac565b820191906000526020600020905b81548152906001019060200180831161078f57829003601f168201915b5050505050905090565b60006107c1826118ee565b506107cb82611976565b9050919050565b6107e482826107df6119b3565b6119bb565b5050565b60008060018111156107fd576107fc613335565b5b600b600084815260200190815260200160002060060160009054906101000a900460ff16600181111561083357610832613335565b5b148015610855575042600b600084815260200190815260200160002060050154115b9050919050565b600042600b60008481526020019081526020016000206005015411159050919050565b600060086000815480929190610894906134ea565b9190505550600060085490506108aa83826119cd565b6108b481856119eb565b8273ffffffffffffffffffffffffffffffffffffffff167fe7cd4ce7f2a465edc730269a1305e8a48bad821e8fb7e152ec413829c01a53c482866040516108fc929190613532565b60405180910390a28091505092915050565b610916611a47565b61091f816107e8565b1561095f576040517f08c379a0000000000000000000000000000000000000000000000000000000008152600401610956906135ae565b60405180910390fd5b6000600b600083815260200190815260200160002090506000600d600084815260200190815260200160002060009054906101000a900473ffffffffffffffffffffffffffffffffffffffff1690508160000160009054906101000a900473ffffffffffffffffffffffffffffffffffffffff1673ffffffffffffffffffffffffffffffffffffffff163373ffffffffffffffffffffffffffffffffffffffff161480610a3757508073ffffffffffffffffffffffffffffffffffffffff163373ffffffffffffffffffffffffffffffffffffffff16145b610a76576040517f08c379a0000000000000000000000000000000000000000000000000000000008152600401610a6d90613640565b60405180910390fd5b60008073ffffffffffffffffffffffffffffffffffffffff168273ffffffffffffffffffffffffffffffffffffffff1614610b9657610aba30838560010154611a8d565b600c600085815260200190815260200160002060008373ffffffffffffffffffffffffffffffffffffffff1673ffffffffffffffffffffffffffffffffffffffff1681526020019081526020016000205490506000600c600086815260200190815260200160002060008473ffffffffffffffffffffffffffffffffffffffff1673ffffffffffffffffffffffffffffffffffffffff16815260200190815260200160002081905550610b918360000160009054906101000a900473ffffffffffffffffffffffffffffffffffffffff1682611bfa565b610bca565b610bc9308460000160009054906101000a900473ffffffffffffffffffffffffffffffffffffffff168560010154611a8d565b5b60018360060160006101000a81548160ff02191690836001811115610bf257610bf1613335565b5b02179055508173ffffffffffffffffffffffffffffffffffffffff168360000160009054906101000a900473ffffffffffffffffffffffffffffffffffffffff1673ffffffffffffffffffffffffffffffffffffffff167f7a59a6c36c8b7dc5080444722a7a194bf83837c893f984bcea8692e91551fc478684604051610c7a929190613660565b60405180910390a3505050610c8d611d24565b50565b600073ffffffffffffffffffffffffffffffffffffffff168273ffffffffffffffffffffffffffffffffffffffff1603610d025760006040517f64a0ae92000000000000000000000000000000000000000000000000000000008152600401610cf99190612de1565b60405180910390fd5b6000610d168383610d116119b3565b611d2e565b90508373ffffffffffffffffffffffffffffffffffffffff168173ffffffffffffffffffffffffffffffffffffffff1614610d8c578382826040517f64283d7b000000000000000000000000000000000000000000000000000000008152600401610d8393929190613689565b60405180910390fd5b50505050565b600c602052816000526040600020602052806000526040600020600091509150505481565b610dd283838360405180602001604052806000815250611435565b505050565b600d6020528060005260406000206000915054906101000a900473ffffffffffffffffffffffffffffffffffffffff1681565b610e12611a47565b610e1b816107e8565b610e5a576040517f08c379a0000000000000000000000000000000000000000000000000000000008152600401610e519061370c565b60405180910390fd5b6000600b600083815260200190815260200160002090508060000160009054906101000a900473ffffffffffffffffffffffffffffffffffffffff1673ffffffffffffffffffffffffffffffffffffffff163373ffffffffffffffffffffffffffffffffffffffff1603610f03576040517f08c379a0000000000000000000000000000000000000000000000000000000008152600401610efa90613778565b60405180910390fd5b600034600c600085815260200190815260200160002060003373ffffffffffffffffffffffffffffffffffffffff1673ffffffffffffffffffffffffffffffffffffffff16815260200190815260200160002054610f619190613798565b905081600201548111610fa9576040517f08c379a0000000000000000000000000000000000000000000000000000000008152600401610fa09061383e565b60405180910390fd5b610fb283611f48565b34600c600085815260200190815260200160002060003373ffffffffffffffffffffffffffffffffffffffff1673ffffffffffffffffffffffffffffffffffffffff16815260200190815260200160002060008282546110129190613798565b9250508190555033600d600085815260200190815260200160002060006101000a81548173ffffffffffffffffffffffffffffffffffffffff021916908373ffffffffffffffffffffffffffffffffffffffff1602179055506000600a54836002015461107f919061388d565b90508083600201546110919190613798565b83600201819055503373ffffffffffffffffffffffffffffffffffffffff167f0bda7f7cf42011b27b057b83f3bf21f963b84eb591478e6b413b18d7872cd37a85846040516110e1929190613660565b60405180910390a25050506110f4611d24565b50565b60006009600081548092919061110c906134ea565b91905055506000600954905060004290506000848261112b9190613798565b90506040518060e001604052803373ffffffffffffffffffffffffffffffffffffffff1681526020018781526020018881526020018881526020018381526020018281526020016000600181111561118657611185613335565b5b815250600b600085815260200190815260200160002060008201518160000160006101000a81548173ffffffffffffffffffffffffffffffffffffffff021916908373ffffffffffffffffffffffffffffffffffffffff1602179055506020820151816001015560408201518160020155606082015181600301556080820151816004015560a0820151816005015560c08201518160060160006101000a81548160ff021916908360018111156112405761123f613335565b5b0217905550905050611253333088611a8d565b3373ffffffffffffffffffffffffffffffffffffffff167e09646912aaa7019ad837e57cc5c0613299c8432f5268d4450ab8673fe0fa0384898986866040516112a09594939291906138be565b60405180910390a28293505050509392505050565b60006112c0826118ee565b9050919050565b60095481565b600a5481565b60008073ffffffffffffffffffffffffffffffffffffffff168273ffffffffffffffffffffffffffffffffffffffff16036113465760006040517f89c62b6400000000000000000000000000000000000000000000000000000000815260040161133d9190612de1565b60405180910390fd5b600360008373ffffffffffffffffffffffffffffffffffffffff1673ffffffffffffffffffffffffffffffffffffffff168152602001908152602001600020549050919050565b60606001805461139c9061348a565b80601f01602080910402602001604051908101604052809291908181526020018280546113c89061348a565b80156114155780601f106113ea57610100808354040283529160200191611415565b820191906000526020600020905b8154815290600101906020018083116113f857829003601f168201915b5050505050905090565b61143161142a6119b3565b838361208a565b5050565b611440848484610c90565b61144c848484846121f9565b50505050565b606061145d826118ee565b50600060066000848152602001908152602001600020805461147e9061348a565b80601f01602080910402602001604051908101604052809291908181526020018280546114aa9061348a565b80156114f75780601f106114cc576101008083540402835291602001916114f7565b820191906000526020600020905b8154815290600101906020018083116114da57829003601f168201915b5050505050905060006115086123b0565b9050600081510361151d578192505050611560565b60008251111561155257808260405160200161153a92919061394d565b60405160208183030381529060405292505050611560565b61155b846123c7565b925050505b919050565b60085481565b60606000606060008060008060009050600080600190505b60095481116115c85789600b600083815260200190815260200160002060010154036115b557809250600191506115c8565b80806115c0906134ea565b915050611583565b506115d1612b57565b81156116d157600b60008481526020019081526020016000206040518060e00160405290816000820160009054906101000a900473ffffffffffffffffffffffffffffffffffffffff1673ffffffffffffffffffffffffffffffffffffffff1673ffffffffffffffffffffffffffffffffffffffff16815260200160018201548152602001600282015481526020016003820154815260200160048201548152602001600582015481526020016006820160009054906101000a900460ff1660018111156116a2576116a1613335565b5b60018111156116b4576116b3613335565b5b8152505090506116c3836107e8565b9550806040015194506116da565b60009550600094505b6116e2610724565b98508997506116f08a611452565b96506116fb8a6112b5565b935050505091939550919395565b600b6020528060005260406000206000915090508060000160009054906101000a900473ffffffffffffffffffffffffffffffffffffffff16908060010154908060020154908060030154908060040154908060050154908060060160009054906101000a900460ff16905087565b6000600560008473ffffffffffffffffffffffffffffffffffffffff1673ffffffffffffffffffffffffffffffffffffffff16815260200190815260200160002060008373ffffffffffffffffffffffffffffffffffffffff1673ffffffffffffffffffffffffffffffffffffffff16815260200190815260200160002060009054906101000a900460ff16905092915050565b60007f80ac58cd000000000000000000000000000000000000000000000000000000007bffffffffffffffffffffffffffffffffffffffffffffffffffffffff1916827bffffffffffffffffffffffffffffffffffffffffffffffffffffffff191614806118d757507f5b5e139f000000000000000000000000000000000000000000000000000000007bffffffffffffffffffffffffffffffffffffffffffffffffffffffff1916827bffffffffffffffffffffffffffffffffffffffffffffffffffffffff1916145b806118e757506118e682612430565b5b9050919050565b6000806118fa8361249a565b9050600073ffffffffffffffffffffffffffffffffffffffff168173ffffffffffffffffffffffffffffffffffffffff160361196d57826040517f7e2732890000000000000000000000000000000000000000000000000000000081526004016119649190613008565b60405180910390fd5b80915050919050565b60006004600083815260200190815260200160002060009054906101000a900473ffffffffffffffffffffffffffffffffffffffff169050919050565b600033905090565b6119c883838360016124d7565b505050565b6119e782826040518060200160405280600081525061269c565b5050565b80600660008481526020019081526020016000209081611a0b9190613b1d565b507ff8e1a15aba9398e019f0b49df1a4fde98ee17ae345cb5f6b5e2c27f5033e8ce782604051611a3b9190613008565b60405180910390a15050565b600260075403611a83576040517f3ee5aeb500000000000000000000000000000000000000000000000000000000815260040160405180910390fd5b6002600781905550565b600073ffffffffffffffffffffffffffffffffffffffff168273ffffffffffffffffffffffffffffffffffffffff1603611aff5760006040517f64a0ae92000000000000000000000000000000000000000000000000000000008152600401611af69190612de1565b60405180910390fd5b6000611b0d83836000611d2e565b9050600073ffffffffffffffffffffffffffffffffffffffff168173ffffffffffffffffffffffffffffffffffffffff1603611b8057816040517f7e273289000000000000000000000000000000000000000000000000000000008152600401611b779190613008565b60405180910390fd5b8373ffffffffffffffffffffffffffffffffffffffff168173ffffffffffffffffffffffffffffffffffffffff1614611bf4578382826040517f64283d7b000000000000000000000000000000000000000000000000000000008152600401611beb93929190613689565b60405180910390fd5b50505050565b6000810315611d2057600073ffffffffffffffffffffffffffffffffffffffff168273ffffffffffffffffffffffffffffffffffffffff1603611c72576040517f08c379a0000000000000000000000000000000000000000000000000000000008152600401611c6990613c61565b60405180910390fd5b60008273ffffffffffffffffffffffffffffffffffffffff1682604051611c9890613cb2565b60006040518083038185875af1925050503d8060008114611cd5576040519150601f19603f3d011682016040523d82523d6000602084013e611cda565b606091505b5050905080611d1e576040517f08c379a0000000000000000000000000000000000000000000000000000000008152600401611d1590613d13565b60405180910390fd5b505b5050565b6001600781905550565b600080611d3a8461249a565b9050600073ffffffffffffffffffffffffffffffffffffffff168373ffffffffffffffffffffffffffffffffffffffff1614611d7c57611d7b8184866126b8565b5b600073ffffffffffffffffffffffffffffffffffffffff168173ffffffffffffffffffffffffffffffffffffffff1614611e0d57611dbe6000856000806124d7565b6001600360008373ffffffffffffffffffffffffffffffffffffffff1673ffffffffffffffffffffffffffffffffffffffff168152602001908152602001600020600082825403925050819055505b600073ffffffffffffffffffffffffffffffffffffffff168573ffffffffffffffffffffffffffffffffffffffff1614611e90576001600360008773ffffffffffffffffffffffffffffffffffffffff1673ffffffffffffffffffffffffffffffffffffffff168152602001908152602001600020600082825401925050819055505b846002600086815260200190815260200160002060006101000a81548173ffffffffffffffffffffffffffffffffffffffff021916908373ffffffffffffffffffffffffffffffffffffffff160217905550838573ffffffffffffffffffffffffffffffffffffffff168273ffffffffffffffffffffffffffffffffffffffff167fddf252ad1be2c89b69c2b068fc378daa952ba7f163c4a11628f55a4df523b3ef60405160405180910390a4809150509392505050565b6000600d600083815260200190815260200160002060009054906101000a900473ffffffffffffffffffffffffffffffffffffffff1690506000600c600084815260200190815260200160002060008373ffffffffffffffffffffffffffffffffffffffff1673ffffffffffffffffffffffffffffffffffffffff1681526020019081526020016000205490506000600c600085815260200190815260200160002060008473ffffffffffffffffffffffffffffffffffffffff1673ffffffffffffffffffffffffffffffffffffffff168152602001908152602001600020819055506120358282611bfa565b8173ffffffffffffffffffffffffffffffffffffffff167f5eec25485ddf1aad4b5c89eda65e6053949901bfb1fe6f4c553e9c208b5bd5f8848360405161207d929190613660565b60405180910390a2505050565b600073ffffffffffffffffffffffffffffffffffffffff168273ffffffffffffffffffffffffffffffffffffffff16036120fb57816040517f5b08ba180000000000000000000000000000000000000000000000000000000081526004016120f29190612de1565b60405180910390fd5b80600560008573ffffffffffffffffffffffffffffffffffffffff1673ffffffffffffffffffffffffffffffffffffffff16815260200190815260200160002060008473ffffffffffffffffffffffffffffffffffffffff1673ffffffffffffffffffffffffffffffffffffffff16815260200190815260200160002060006101000a81548160ff0219169083151502179055508173ffffffffffffffffffffffffffffffffffffffff168373ffffffffffffffffffffffffffffffffffffffff167f17307eab39ab6107e8899845ad3d59bd9653f200f220920489ca2b5937696c31836040516121ec9190612c70565b60405180910390a3505050565b60008373ffffffffffffffffffffffffffffffffffffffff163b11156123aa578273ffffffffffffffffffffffffffffffffffffffff1663150b7a0261223d6119b3565b8685856040518563ffffffff1660e01b815260040161225f9493929190613d88565b6020604051808303816000875af192505050801561229b57506040513d601f19601f820116820180604052508101906122989190613de9565b60015b61231f573d80600081146122cb576040519150601f19603f3d011682016040523d82523d6000602084013e6122d0565b606091505b50600081510361231757836040517f64a0ae9200000000000000000000000000000000000000000000000000000000815260040161230e9190612de1565b60405180910390fd5b805181602001fd5b63150b7a0260e01b7bffffffffffffffffffffffffffffffffffffffffffffffffffffffff1916817bffffffffffffffffffffffffffffffffffffffffffffffffffffffff1916146123a857836040517f64a0ae9200000000000000000000000000000000000000000000000000000000815260040161239f9190612de1565b60405180910390fd5b505b50505050565b606060405180602001604052806000815250905090565b60606123d2826118ee565b5060006123dd6123b0565b905060008151116123fd5760405180602001604052806000815250612428565b806124078461277c565b60405160200161241892919061394d565b6040516020818303038152906040525b915050919050565b60007f01ffc9a7000000000000000000000000000000000000000000000000000000007bffffffffffffffffffffffffffffffffffffffffffffffffffffffff1916827bffffffffffffffffffffffffffffffffffffffffffffffffffffffff1916149050919050565b60006002600083815260200190815260200160002060009054906101000a900473ffffffffffffffffffffffffffffffffffffffff169050919050565b80806125105750600073ffffffffffffffffffffffffffffffffffffffff168273ffffffffffffffffffffffffffffffffffffffff1614155b15612644576000612520846118ee565b9050600073ffffffffffffffffffffffffffffffffffffffff168373ffffffffffffffffffffffffffffffffffffffff161415801561258b57508273ffffffffffffffffffffffffffffffffffffffff168173ffffffffffffffffffffffffffffffffffffffff1614155b801561259e575061259c8184611778565b155b156125e057826040517fa9fbf51f0000000000000000000000000000000000000000000000000000000081526004016125d79190612de1565b60405180910390fd5b811561264257838573ffffffffffffffffffffffffffffffffffffffff168273ffffffffffffffffffffffffffffffffffffffff167f8c5be1e5ebec7d5bd14f71427d1e84f3dd0314c0f7b2291e5b200ac8c7c3b92560405160405180910390a45b505b836004600085815260200190815260200160002060006101000a81548173ffffffffffffffffffffffffffffffffffffffff021916908373ffffffffffffffffffffffffffffffffffffffff16021790555050505050565b6126a6838361284a565b6126b360008484846121f9565b505050565b6126c3838383612943565b61277757600073ffffffffffffffffffffffffffffffffffffffff168373ffffffffffffffffffffffffffffffffffffffff160361273857806040517f7e27328900000000000000000000000000000000000000000000000000000000815260040161272f9190613008565b60405180910390fd5b81816040517f177e802f00000000000000000000000000000000000000000000000000000000815260040161276e929190613e16565b60405180910390fd5b505050565b60606000600161278b84612a04565b01905060008167ffffffffffffffff8111156127aa576127a9612e72565b5b6040519080825280601f01601f1916602001820160405280156127dc5781602001600182028036833780820191505090505b509050600082602001820190505b60011561283f578080600190039150507f3031323334353637383961626364656600000000000000000000000000000000600a86061a8153600a85816128335761283261385e565b5b049450600085036127ea575b819350505050919050565b600073ffffffffffffffffffffffffffffffffffffffff168273ffffffffffffffffffffffffffffffffffffffff16036128bc5760006040517f64a0ae920000000000000000000000000000000000000000000000000000000081526004016128b39190612de1565b60405180910390fd5b60006128ca83836000611d2e565b9050600073ffffffffffffffffffffffffffffffffffffffff168173ffffffffffffffffffffffffffffffffffffffff161461293e5760006040517f73c6ac6e0000000000000000000000000000000000000000000000000000000081526004016129359190612de1565b60405180910390fd5b505050565b60008073ffffffffffffffffffffffffffffffffffffffff168373ffffffffffffffffffffffffffffffffffffffff16141580156129fb57508273ffffffffffffffffffffffffffffffffffffffff168473ffffffffffffffffffffffffffffffffffffffff1614806129bc57506129bb8484611778565b5b806129fa57508273ffffffffffffffffffffffffffffffffffffffff166129e283611976565b73ffffffffffffffffffffffffffffffffffffffff16145b5b90509392505050565b600080600090507a184f03e93ff9f4daa797ed6e38ed64bf6a1f0100000000000000008310612a62577a184f03e93ff9f4daa797ed6e38ed64bf6a1f0100000000000000008381612a5857612a5761385e565b5b0492506040810190505b6d04ee2d6d415b85acef81000000008310612a9f576d04ee2d6d415b85acef81000000008381612a9557612a9461385e565b5b0492506020810190505b662386f26fc100008310612ace57662386f26fc100008381612ac457612ac361385e565b5b0492506010810190505b6305f5e1008310612af7576305f5e1008381612aed57612aec61385e565b5b0492506008810190505b6127108310612b1c576127108381612b1257612b1161385e565b5b0492506004810190505b60648310612b3f5760648381612b3557612b3461385e565b5b0492506002810190505b600a8310612b4e576001810190505b80915050919050565b6040518060e00160405280600073ffffffffffffffffffffffffffffffffffffffff168152602001600081526020016000815260200160008152602001600081526020016000815260200160006001811115612bb657612bb5613335565b5b81525090565b6000604051905090565b600080fd5b600080fd5b60007fffffffff0000000000000000000000000000000000000000000000000000000082169050919050565b612c0581612bd0565b8114612c1057600080fd5b50565b600081359050612c2281612bfc565b92915050565b600060208284031215612c3e57612c3d612bc6565b5b6000612c4c84828501612c13565b91505092915050565b60008115159050919050565b612c6a81612c55565b82525050565b6000602082019050612c856000830184612c61565b92915050565b600081519050919050565b600082825260208201905092915050565b60005b83811015612cc5578082015181840152602081019050612caa565b60008484015250505050565b6000601f19601f8301169050919050565b6000612ced82612c8b565b612cf78185612c96565b9350612d07818560208601612ca7565b612d1081612cd1565b840191505092915050565b60006020820190508181036000830152612d358184612ce2565b905092915050565b6000819050919050565b612d5081612d3d565b8114612d5b57600080fd5b50565b600081359050612d6d81612d47565b92915050565b600060208284031215612d8957612d88612bc6565b5b6000612d9784828501612d5e565b91505092915050565b600073ffffffffffffffffffffffffffffffffffffffff82169050919050565b6000612dcb82612da0565b9050919050565b612ddb81612dc0565b82525050565b6000602082019050612df66000830184612dd2565b92915050565b612e0581612dc0565b8114612e1057600080fd5b50565b600081359050612e2281612dfc565b92915050565b60008060408385031215612e3f57612e3e612bc6565b5b6000612e4d85828601612e13565b9250506020612e5e85828601612d5e565b9150509250929050565b600080fd5b600080fd5b7f4e487b7100000000000000000000000000000000000000000000000000000000600052604160045260246000fd5b612eaa82612cd1565b810181811067ffffffffffffffff82111715612ec957612ec8612e72565b5b80604052505050565b6000612edc612bbc565b9050612ee88282612ea1565b919050565b600067ffffffffffffffff821115612f0857612f07612e72565b5b612f1182612cd1565b9050602081019050919050565b82818337600083830152505050565b6000612f40612f3b84612eed565b612ed2565b905082815260208101848484011115612f5c57612f5b612e6d565b5b612f67848285612f1e565b509392505050565b600082601f830112612f8457612f83612e68565b5b8135612f94848260208601612f2d565b91505092915050565b60008060408385031215612fb457612fb3612bc6565b5b600083013567ffffffffffffffff811115612fd257612fd1612bcb565b5b612fde85828601612f6f565b9250506020612fef85828601612e13565b9150509250929050565b61300281612d3d565b82525050565b600060208201905061301d6000830184612ff9565b92915050565b60008060006060848603121561303c5761303b612bc6565b5b600061304a86828701612e13565b935050602061305b86828701612e13565b925050604061306c86828701612d5e565b9150509250925092565b6000806040838503121561308d5761308c612bc6565b5b600061309b85828601612d5e565b92505060206130ac85828601612e13565b9150509250929050565b6000806000606084860312156130cf576130ce612bc6565b5b60006130dd86828701612d5e565b93505060206130ee86828701612d5e565b92505060406130ff86828701612d5e565b9150509250925092565b60006020828403121561311f5761311e612bc6565b5b600061312d84828501612e13565b91505092915050565b61313f81612c55565b811461314a57600080fd5b50565b60008135905061315c81613136565b92915050565b6000806040838503121561317957613178612bc6565b5b600061318785828601612e13565b92505060206131988582860161314d565b9150509250929050565b600067ffffffffffffffff8211156131bd576131bc612e72565b5b6131c682612cd1565b9050602081019050919050565b60006131e66131e1846131a2565b612ed2565b90508281526020810184848401111561320257613201612e6d565b5b61320d848285612f1e565b509392505050565b600082601f83011261322a57613229612e68565b5b813561323a8482602086016131d3565b91505092915050565b6000806000806080858703121561325d5761325c612bc6565b5b600061326b87828801612e13565b945050602061327c87828801612e13565b935050604061328d87828801612d5e565b925050606085013567ffffffffffffffff8111156132ae576132ad612bcb565b5b6132ba87828801613215565b91505092959194509250565b600060c08201905081810360008301526132e08189612ce2565b90506132ef6020830188612ff9565b81810360408301526133018187612ce2565b90506133106060830186612c61565b61331d6080830185612ff9565b61332a60a0830184612dd2565b979650505050505050565b7f4e487b7100000000000000000000000000000000000000000000000000000000600052602160045260246000fd5b6002811061337557613374613335565b5b50565b600081905061338682613364565b919050565b600061339682613378565b9050919050565b6133a68161338b565b82525050565b600060e0820190506133c1600083018a612dd2565b6133ce6020830189612ff9565b6133db6040830188612ff9565b6133e86060830187612ff9565b6133f56080830186612ff9565b61340260a0830185612ff9565b61340f60c083018461339d565b98975050505050505050565b6000806040838503121561343257613431612bc6565b5b600061344085828601612e13565b925050602061345185828601612e13565b9150509250929050565b7f4e487b7100000000000000000000000000000000000000000000000000000000600052602260045260246000fd5b600060028204905060018216806134a257607f821691505b6020821081036134b5576134b461345b565b5b50919050565b7f4e487b7100000000000000000000000000000000000000000000000000000000600052601160045260246000fd5b60006134f582612d3d565b91507fffffffffffffffffffffffffffffffffffffffffffffffffffffffffffffffff8203613527576135266134bb565b5b600182019050919050565b60006040820190506135476000830185612ff9565b81810360208301526135598184612ce2565b90509392505050565b7f61756374696f6e206973207374696c6c206f70656e0000000000000000000000600082015250565b6000613598601583612c96565b91506135a382613562565b602082019050919050565b600060208201905081810360008301526135c78161358b565b9050919050565b7f6f6e6c792073656c6c6572206f722077696e6e65722063616e20636f6d706c6560008201527f74652061756374696f6e00000000000000000000000000000000000000000000602082015250565b600061362a602a83612c96565b9150613635826135ce565b604082019050919050565b600060208201905081810360008301526136598161361d565b9050919050565b60006040820190506136756000830185612ff9565b6136826020830184612ff9565b9392505050565b600060608201905061369e6000830186612dd2565b6136ab6020830185612ff9565b6136b86040830184612dd2565b949350505050565b7f61756374696f6e2068617320656e646564000000000000000000000000000000600082015250565b60006136f6601183612c96565b9150613701826136c0565b602082019050919050565b60006020820190508181036000830152613725816136e9565b9050919050565b7f63616e6e6f7420626964206f6e207768617420796f75206f776e000000000000600082015250565b6000613762601a83612c96565b915061376d8261372c565b602082019050919050565b6000602082019050818103600083015261379181613755565b9050919050565b60006137a382612d3d565b91506137ae83612d3d565b92508282019050808211156137c6576137c56134bb565b5b92915050565b7f63616e6e6f74206269642062656c6f7720746865206c6174657374206269646460008201527f696e672070726963650000000000000000000000000000000000000000000000602082015250565b6000613828602983612c96565b9150613833826137cc565b604082019050919050565b600060208201905081810360008301526138578161381b565b9050919050565b7f4e487b7100000000000000000000000000000000000000000000000000000000600052601260045260246000fd5b600061389882612d3d565b91506138a383612d3d565b9250826138b3576138b261385e565b5b828204905092915050565b600060a0820190506138d36000830188612ff9565b6138e06020830187612ff9565b6138ed6040830186612ff9565b6138fa6060830185612ff9565b6139076080830184612ff9565b9695505050505050565b600081905092915050565b600061392782612c8b565b6139318185613911565b9350613941818560208601612ca7565b80840191505092915050565b6000613959828561391c565b9150613965828461391c565b91508190509392505050565b60008190508160005260206000209050919050565b60006020601f8301049050919050565b600082821b905092915050565b6000600883026139d37fffffffffffffffffffffffffffffffffffffffffffffffffffffffffffffffff82613996565b6139dd8683613996565b95508019841693508086168417925050509392505050565b6000819050919050565b6000613a1a613a15613a1084612d3d565b6139f5565b612d3d565b9050919050565b6000819050919050565b613a34836139ff565b613a48613a4082613a21565b8484546139a3565b825550505050565b600090565b613a5d613a50565b613a68818484613a2b565b505050565b5b81811015613a8c57613a81600082613a55565b600181019050613a6e565b5050565b601f821115613ad157613aa281613971565b613aab84613986565b81016020851015613aba578190505b613ace613ac685613986565b830182613a6d565b50505b505050565b600082821c905092915050565b6000613af460001984600802613ad6565b1980831691505092915050565b6000613b0d8383613ae3565b9150826002028217905092915050565b613b2682612c8b565b67ffffffffffffffff811115613b3f57613b3e612e72565b5b613b49825461348a565b613b54828285613a90565b600060209050601f831160018114613b875760008415613b75578287015190505b613b7f8582613b01565b865550613be7565b601f198416613b9586613971565b60005b82811015613bbd57848901518255600182019150602085019450602081019050613b98565b86831015613bda5784890151613bd6601f891682613ae3565b8355505b6001600288020188555050505b505050505050565b7f4572726f722c2063616e6e6f74207472616e7366657220746f2061646472657360008201527f7328302900000000000000000000000000000000000000000000000000000000602082015250565b6000613c4b602483612c96565b9150613c5682613bef565b604082019050919050565b60006020820190508181036000830152613c7a81613c3e565b9050919050565b600081905092915050565b50565b6000613c9c600083613c81565b9150613ca782613c8c565b600082019050919050565b6000613cbd82613c8f565b9150819050919050565b7f4572726f722c206661696c656420746f2073656e642045746865720000000000600082015250565b6000613cfd601b83612c96565b9150613d0882613cc7565b602082019050919050565b60006020820190508181036000830152613d2c81613cf0565b9050919050565b600081519050919050565b600082825260208201905092915050565b6000613d5a82613d33565b613d648185613d3e565b9350613d74818560208601612ca7565b613d7d81612cd1565b840191505092915050565b6000608082019050613d9d6000830187612dd2565b613daa6020830186612dd2565b613db76040830185612ff9565b8181036060830152613dc98184613d4f565b905095945050505050565b600081519050613de381612bfc565b92915050565b600060208284031215613dff57613dfe612bc6565b5b6000613e0d84828501613dd4565b91505092915050565b6000604082019050613e2b6000830185612dd2565b613e386020830184612ff9565b939250505056fea26469706673582212208d1b3bb07963d8721c8f9d66c1b8cb638dc12b2ce965a71ddb2515fcbcf9faf964736f6c63430008140033",
  "linkReferences": {},
  "deployedLinkReferences": {}
}