{
  "_format": "hh-sol-artifact-1",
  "contractName": "NftSaleable",
  "sourceName": "contracts/NftSaleable.sol",
  "abi": [
    {
      "inputs": [],
      "stateMutability": "nonpayable",
      "type": "constructor"
    },
    {
      "inputs": [
        {
          "internalType": "address",
          "name": "sender",
          "type": "address"
        },
        {
          "internalType": "uint256",
          "name": "tokenId",
          "type": "uint256"
        },
        {
          "internalType": "address",
          "name": "owner",
          "type": "address"
        }
      ],
      "name": "ERC721IncorrectOwner",
      "type": "error"
    },
    {
      "inputs": [
        {
          "internalType": "address",
          "name": "operator",
          "type": "address"
        },
        {
          "internalType": "uint256",
          "name": "tokenId",
          "type": "uint256"
        }
      ],
      "name": "ERC721InsufficientApproval",
      "type": "error"
    },
    {
      "inputs": [
        {
          "internalType": "address",
          "name": "approver",
          "type": "address"
        }
      ],
      "name": "ERC721InvalidApprover",
      "type": "error"
    },
    {
      "inputs": [
        {
          "internalType": "address",
          "name": "operator",
          "type": "address"
        }
      ],
      "name": "ERC721InvalidOperator",
      "type": "error"
    },
    {
      "inputs": [
        {
          "internalType": "address",
          "name": "owner",
          "type": "address"
        }
      ],
      "name": "ERC721InvalidOwner",
      "type": "error"
    },
    {
      "inputs": [
        {
          "internalType": "address",
          "name": "receiver",
          "type": "address"
        }
      ],
      "name": "ERC721InvalidReceiver",
      "type": "error"
    },
    {
      "inputs": [
        {
          "internalType": "address",
          "name": "sender",
          "type": "address"
        }
      ],
      "name": "ERC721InvalidSender",
      "type": "error"
    },
    {
      "inputs": [
        {
          "internalType": "uint256",
          "name": "tokenId",
          "type": "uint256"
        }
      ],
      "name": "ERC721NonexistentToken",
      "type": "error"
    },
    {
      "inputs": [],
      "name": "ReentrancyGuardReentrantCall",
      "type": "error"
    },
    {
      "anonymous": false,
      "inputs": [
        {
          "indexed": true,
          "internalType": "address",
          "name": "owner",
          "type": "address"
        },
        {
          "indexed": true,
          "internalType": "address",
          "name": "approved",
          "type": "address"
        },
        {
          "indexed": true,
          "internalType": "uint256",
          "name": "tokenId",
          "type": "uint256"
        }
      ],
      "name": "Approval",
      "type": "event"
    },
    {
      "anonymous": false,
      "inputs": [
        {
          "indexed": true,
          "internalType": "address",
          "name": "owner",
          "type": "address"
        },
        {
          "indexed": true,
          "internalType": "address",
          "name": "operator",
          "type": "address"
        },
        {
          "indexed": false,
          "internalType": "bool",
          "name": "approved",
          "type": "bool"
        }
      ],
      "name": "ApprovalForAll",
      "type": "event"
    },
    {
      "anonymous": false,
      "inputs": [
        {
          "indexed": false,
          "internalType": "uint256",
          "name": "listingId",
          "type": "uint256"
        },
        {
          "indexed": true,
          "internalType": "address",
          "name": "seller",
          "type": "address"
        },
        {
          "indexed": true,
          "internalType": "address",
          "name": "bidder",
          "type": "address"
        },
        {
          "indexed": false,
          "internalType": "uint256",
          "name": "bid",
          "type": "uint256"
        }
      ],
      "name": "AuctionCompleted",
      "type": "event"
    },
    {
      "anonymous": false,
      "inputs": [
        {
          "indexed": false,
          "internalType": "uint256",
          "name": "listingId",
          "type": "uint256"
        },
        {
          "indexed": true,
          "internalType": "address",
          "name": "seller",
          "type": "address"
        },
        {
          "indexed": false,
          "internalType": "uint256",
          "name": "price",
          "type": "uint256"
        },
        {
          "indexed": false,
          "internalType": "uint256",
          "name": "tokenId",
          "type": "uint256"
        },
        {
          "indexed": false,
          "internalType": "uint256",
          "name": "startAt",
          "type": "uint256"
        },
        {
          "indexed": false,
          "internalType": "uint256",
          "name": "endAt",
          "type": "uint256"
        }
      ],
      "name": "AuctionCreated",
      "type": "event"
    },
    {
      "anonymous": false,
      "inputs": [
        {
          "indexed": false,
          "internalType": "uint256",
          "name": "_fromTokenId",
          "type": "uint256"
        },
        {
          "indexed": false,
          "internalType": "uint256",
          "name": "_toTokenId",
          "type": "uint256"
        }
      ],
      "name": "BatchMetadataUpdate",
      "type": "event"
    },
    {
      "anonymous": false,
      "inputs": [
        {
          "indexed": false,
          "internalType": "uint256",
          "name": "listingId",
          "type": "uint256"
        },
        {
          "indexed": true,
          "internalType": "address",
          "name": "bidder",
          "type": "address"
        },
        {
          "indexed": false,
          "internalType": "uint256",
          "name": "bid",
          "type": "uint256"
        }
      ],
      "name": "BidCreated",
      "type": "event"
    },
    {
      "anonymous": false,
      "inputs": [
        {
          "indexed": false,
          "internalType": "uint256",
          "name": "_tokenId",
          "type": "uint256"
        }
      ],
      "name": "MetadataUpdate",
      "type": "event"
    },
    {
      "anonymous": false,
      "inputs": [
        {
          "indexed": true,
          "internalType": "address",
          "name": "minter",
          "type": "address"
        },
        {
          "indexed": false,
          "internalType": "uint256",
          "name": "nftID",
          "type": "uint256"
        },
        {
          "indexed": false,
          "internalType": "string",
          "name": "uri",
          "type": "string"
        }
      ],
      "name": "Minted",
      "type": "event"
    },
    {
      "anonymous": false,
      "inputs": [
        {
          "indexed": true,
          "internalType": "address",
          "name": "from",
          "type": "address"
        },
        {
          "indexed": true,
          "internalType": "address",
          "name": "to",
          "type": "address"
        },
        {
          "indexed": true,
          "internalType": "uint256",
          "name": "tokenId",
          "type": "uint256"
        }
      ],
      "name": "Transfer",
      "type": "event"
    },
    {
      "anonymous": false,
      "inputs": [
        {
          "indexed": false,
          "internalType": "uint256",
          "name": "listingId",
          "type": "uint256"
        },
        {
          "indexed": true,
          "internalType": "address",
          "name": "bidder",
          "type": "address"
        },
        {
          "indexed": false,
          "internalType": "uint256",
          "name": "bid",
          "type": "uint256"
        }
      ],
      "name": "WithdrawBid",
      "type": "event"
    },
    {
      "inputs": [
        {
          "internalType": "address",
          "name": "to",
          "type": "address"
        },
        {
          "internalType": "uint256",
          "name": "tokenId",
          "type": "uint256"
        }
      ],
      "name": "approve",
      "outputs": [],
      "stateMutability": "nonpayable",
      "type": "function"
    },
    {
      "inputs": [
        {
          "internalType": "address",
          "name": "owner",
          "type": "address"
        }
      ],
      "name": "balanceOf",
      "outputs": [
        {
          "internalType": "uint256",
          "name": "",
          "type": "uint256"
        }
      ],
      "stateMutability": "view",
      "type": "function"
    },
    {
      "inputs": [
        {
          "internalType": "uint256",
          "name": "listingId",
          "type": "uint256"
        }
      ],
      "name": "bid",
      "outputs": [],
      "stateMutability": "payable",
      "type": "function"
    },
    {
      "inputs": [
        {
          "internalType": "uint256",
          "name": "",
          "type": "uint256"
        },
        {
          "internalType": "address",
          "name": "",
          "type": "address"
        }
      ],
      "name": "bids",
      "outputs": [
        {
          "internalType": "uint256",
          "name": "",
          "type": "uint256"
        }
      ],
      "stateMutability": "view",
      "type": "function"
    },
    {
      "inputs": [
        {
          "internalType": "uint256",
          "name": "listingId",
          "type": "uint256"
        }
      ],
      "name": "completeAuction",
      "outputs": [],
      "stateMutability": "payable",
      "type": "function"
    },
    {
      "inputs": [
        {
          "internalType": "uint256",
          "name": "price",
          "type": "uint256"
        },
        {
          "internalType": "uint256",
          "name": "tokenId",
          "type": "uint256"
        },
        {
          "internalType": "uint256",
          "name": "durationInSeconds",
          "type": "uint256"
        }
      ],
      "name": "createAuctionListing",
      "outputs": [
        {
          "internalType": "uint256",
          "name": "",
          "type": "uint256"
        }
      ],
      "stateMutability": "nonpayable",
      "type": "function"
    },
    {
      "inputs": [
        {
          "internalType": "uint256",
          "name": "tokenId",
          "type": "uint256"
        }
      ],
      "name": "getActiveAuctionsForToken",
      "outputs": [
        {
          "components": [
            {
              "internalType": "uint256",
              "name": "listingId",
              "type": "uint256"
            },
            {
              "internalType": "address",
              "name": "seller",
              "type": "address"
            },
            {
              "internalType": "uint256",
              "name": "tokenId",
              "type": "uint256"
            },
            {
              "internalType": "uint256",
              "name": "price",
              "type": "uint256"
            },
            {
              "internalType": "uint256",
              "name": "netPrice",
              "type": "uint256"
            },
            {
              "internalType": "uint256",
              "name": "startAt",
              "type": "uint256"
            },
            {
              "internalType": "uint256",
              "name": "endAt",
              "type": "uint256"
            },
            {
              "internalType": "enum NftSaleable.AuctionStatus",
              "name": "status",
              "type": "uint8"
            }
          ],
          "internalType": "struct NftSaleable.Listing[]",
          "name": "",
          "type": "tuple[]"
        }
      ],
      "stateMutability": "view",
      "type": "function"
    },
    {
      "inputs": [
        {
          "internalType": "uint256",
          "name": "tokenId",
          "type": "uint256"
        }
      ],
      "name": "getApproved",
      "outputs": [
        {
          "internalType": "address",
          "name": "",
          "type": "address"
        }
      ],
      "stateMutability": "view",
      "type": "function"
    },
    {
      "inputs": [
        {
          "internalType": "uint256",
          "name": "tokenId",
          "type": "uint256"
        }
      ],
      "name": "getExpiredAuctionsForToken",
      "outputs": [
        {
          "components": [
            {
              "internalType": "uint256",
              "name": "listingId",
              "type": "uint256"
            },
            {
              "internalType": "address",
              "name": "seller",
              "type": "address"
            },
            {
              "internalType": "uint256",
              "name": "tokenId",
              "type": "uint256"
            },
            {
              "internalType": "uint256",
              "name": "price",
              "type": "uint256"
            },
            {
              "internalType": "uint256",
              "name": "netPrice",
              "type": "uint256"
            },
            {
              "internalType": "uint256",
              "name": "startAt",
              "type": "uint256"
            },
            {
              "internalType": "uint256",
              "name": "endAt",
              "type": "uint256"
            },
            {
              "internalType": "enum NftSaleable.AuctionStatus",
              "name": "status",
              "type": "uint8"
            }
          ],
          "internalType": "struct NftSaleable.Listing[]",
          "name": "",
          "type": "tuple[]"
        }
      ],
      "stateMutability": "view",
      "type": "function"
    },
    {
      "inputs": [],
      "name": "getHowManyMinted",
      "outputs": [
        {
          "internalType": "uint256",
          "name": "length",
          "type": "uint256"
        }
      ],
      "stateMutability": "view",
      "type": "function"
    },
    {
      "inputs": [
        {
          "internalType": "uint256",
          "name": "tokenId",
          "type": "uint256"
        }
      ],
      "name": "getNFTInfo",
      "outputs": [
        {
          "internalType": "string",
          "name": "name_",
          "type": "string"
        },
        {
          "internalType": "uint256",
          "name": "tokenId_",
          "type": "uint256"
        },
        {
          "internalType": "string",
          "name": "tokenURI_",
          "type": "string"
        },
        {
          "internalType": "bool",
          "name": "isAuction_",
          "type": "bool"
        },
        {
          "internalType": "uint256",
          "name": "price_",
          "type": "uint256"
        },
        {
          "internalType": "address",
          "name": "owner_",
          "type": "address"
        }
      ],
      "stateMutability": "view",
      "type": "function"
    },
    {
      "inputs": [
        {
          "internalType": "uint256",
          "name": "",
          "type": "uint256"
        }
      ],
      "name": "highestBidder",
      "outputs": [
        {
          "internalType": "address",
          "name": "",
          "type": "address"
        }
      ],
      "stateMutability": "view",
      "type": "function"
    },
    {
      "inputs": [
        {
          "internalType": "address",
          "name": "owner",
          "type": "address"
        },
        {
          "internalType": "address",
          "name": "operator",
          "type": "address"
        }
      ],
      "name": "isApprovedForAll",
      "outputs": [
        {
          "internalType": "bool",
          "name": "",
          "type": "bool"
        }
      ],
      "stateMutability": "view",
      "type": "function"
    },
    {
      "inputs": [
        {
          "internalType": "uint256",
          "name": "id",
          "type": "uint256"
        }
      ],
      "name": "isAuctionExpired",
      "outputs": [
        {
          "internalType": "bool",
          "name": "",
          "type": "bool"
        }
      ],
      "stateMutability": "view",
      "type": "function"
    },
    {
      "inputs": [
        {
          "internalType": "uint256",
          "name": "id",
          "type": "uint256"
        }
      ],
      "name": "isAuctionOpen",
      "outputs": [
        {
          "internalType": "bool",
          "name": "",
          "type": "bool"
        }
      ],
      "stateMutability": "view",
      "type": "function"
    },
    {
      "inputs": [],
      "name": "listingCounter",
      "outputs": [
        {
          "internalType": "uint256",
          "name": "",
          "type": "uint256"
        }
      ],
      "stateMutability": "view",
      "type": "function"
    },
    {
      "inputs": [
        {
          "internalType": "uint256",
          "name": "",
          "type": "uint256"
        }
      ],
      "name": "listings",
      "outputs": [
        {
          "internalType": "uint256",
          "name": "listingId",
          "type": "uint256"
        },
        {
          "internalType": "address",
          "name": "seller",
          "type": "address"
        },
        {
          "internalType": "uint256",
          "name": "tokenId",
          "type": "uint256"
        },
        {
          "internalType": "uint256",
          "name": "price",
          "type": "uint256"
        },
        {
          "internalType": "uint256",
          "name": "netPrice",
          "type": "uint256"
        },
        {
          "internalType": "uint256",
          "name": "startAt",
          "type": "uint256"
        },
        {
          "internalType": "uint256",
          "name": "endAt",
          "type": "uint256"
        },
        {
          "internalType": "enum NftSaleable.AuctionStatus",
          "name": "status",
          "type": "uint8"
        }
      ],
      "stateMutability": "view",
      "type": "function"
    },
    {
      "inputs": [],
      "name": "minAuctionIncrement",
      "outputs": [
        {
          "internalType": "uint256",
          "name": "",
          "type": "uint256"
        }
      ],
      "stateMutability": "view",
      "type": "function"
    },
    {
      "inputs": [
        {
          "internalType": "string",
          "name": "tokenURI",
          "type": "string"
        },
        {
          "internalType": "address",
          "name": "minterAddress",
          "type": "address"
        }
      ],
      "name": "mint",
      "outputs": [
        {
          "internalType": "uint256",
          "name": "",
          "type": "uint256"
        }
      ],
      "stateMutability": "nonpayable",
      "type": "function"
    },
    {
      "inputs": [],
      "name": "name",
      "outputs": [
        {
          "internalType": "string",
          "name": "",
          "type": "string"
        }
      ],
      "stateMutability": "view",
      "type": "function"
    },
    {
      "inputs": [
        {
          "internalType": "uint256",
          "name": "tokenId",
          "type": "uint256"
        }
      ],
      "name": "ownerOf",
      "outputs": [
        {
          "internalType": "address",
          "name": "",
          "type": "address"
        }
      ],
      "stateMutability": "view",
      "type": "function"
    },
    {
      "inputs": [
        {
          "internalType": "address",
          "name": "from",
          "type": "address"
        },
        {
          "internalType": "address",
          "name": "to",
          "type": "address"
        },
        {
          "internalType": "uint256",
          "name": "tokenId",
          "type": "uint256"
        }
      ],
      "name": "safeTransferFrom",
      "outputs": [],
      "stateMutability": "nonpayable",
      "type": "function"
    },
    {
      "inputs": [
        {
          "internalType": "address",
          "name": "from",
          "type": "address"
        },
        {
          "internalType": "address",
          "name": "to",
          "type": "address"
        },
        {
          "internalType": "uint256",
          "name": "tokenId",
          "type": "uint256"
        },
        {
          "internalType": "bytes",
          "name": "data",
          "type": "bytes"
        }
      ],
      "name": "safeTransferFrom",
      "outputs": [],
      "stateMutability": "nonpayable",
      "type": "function"
    },
    {
      "inputs": [
        {
          "internalType": "address",
          "name": "operator",
          "type": "address"
        },
        {
          "internalType": "bool",
          "name": "approved",
          "type": "bool"
        }
      ],
      "name": "setApprovalForAll",
      "outputs": [],
      "stateMutability": "nonpayable",
      "type": "function"
    },
    {
      "inputs": [
        {
          "internalType": "bytes4",
          "name": "interfaceId",
          "type": "bytes4"
        }
      ],
      "name": "supportsInterface",
      "outputs": [
        {
          "internalType": "bool",
          "name": "",
          "type": "bool"
        }
      ],
      "stateMutability": "view",
      "type": "function"
    },
    {
      "inputs": [],
      "name": "symbol",
      "outputs": [
        {
          "internalType": "string",
          "name": "",
          "type": "string"
        }
      ],
      "stateMutability": "view",
      "type": "function"
    },
    {
      "inputs": [],
      "name": "tokenCounter",
      "outputs": [
        {
          "internalType": "uint256",
          "name": "",
          "type": "uint256"
        }
      ],
      "stateMutability": "view",
      "type": "function"
    },
    {
      "inputs": [
        {
          "internalType": "uint256",
          "name": "",
          "type": "uint256"
        },
        {
          "internalType": "uint256",
          "name": "",
          "type": "uint256"
        }
      ],
      "name": "tokenToListings",
      "outputs": [
        {
          "internalType": "uint256",
          "name": "",
          "type": "uint256"
        }
      ],
      "stateMutability": "view",
      "type": "function"
    },
    {
      "inputs": [
        {
          "internalType": "uint256",
          "name": "tokenId",
          "type": "uint256"
        }
      ],
      "name": "tokenURI",
      "outputs": [
        {
          "internalType": "string",
          "name": "",
          "type": "string"
        }
      ],
      "stateMutability": "view",
      "type": "function"
    },
    {
      "inputs": [
        {
          "internalType": "address",
          "name": "from",
          "type": "address"
        },
        {
          "internalType": "address",
          "name": "to",
          "type": "address"
        },
        {
          "internalType": "uint256",
          "name": "tokenId",
          "type": "uint256"
        }
      ],
      "name": "transferFrom",
      "outputs": [],
      "stateMutability": "nonpayable",
      "type": "function"
    }
  ],
  "bytecode": "0x60806040526005600a553480156200001657600080fd5b506040518060400160405280600781526020017f5368696e4e4654000000000000000000000000000000000000000000000000008152506040518060400160405280600581526020017f5345554e47000000000000000000000000000000000000000000000000000000815250816000908162000094919062000341565b508060019081620000a6919062000341565b50505060016007819055506000600881905550600060098190555062000428565b600081519050919050565b7f4e487b7100000000000000000000000000000000000000000000000000000000600052604160045260246000fd5b7f4e487b7100000000000000000000000000000000000000000000000000000000600052602260045260246000fd5b600060028204905060018216806200014957607f821691505b6020821081036200015f576200015e62000101565b5b50919050565b60008190508160005260206000209050919050565b60006020601f8301049050919050565b600082821b905092915050565b600060088302620001c97fffffffffffffffffffffffffffffffffffffffffffffffffffffffffffffffff826200018a565b620001d586836200018a565b95508019841693508086168417925050509392505050565b6000819050919050565b6000819050919050565b6000620002226200021c6200021684620001ed565b620001f7565b620001ed565b9050919050565b6000819050919050565b6200023e8362000201565b620002566200024d8262000229565b84845462000197565b825550505050565b600090565b6200026d6200025e565b6200027a81848462000233565b505050565b5b81811015620002a2576200029660008262000263565b60018101905062000280565b5050565b601f821115620002f157620002bb8162000165565b620002c6846200017a565b81016020851015620002d6578190505b620002ee620002e5856200017a565b8301826200027f565b50505b505050565b600082821c905092915050565b60006200031660001984600802620002f6565b1980831691505092915050565b600062000331838362000303565b9150826002028217905092915050565b6200034c82620000c7565b67ffffffffffffffff811115620003685762000367620000d2565b5b62000374825462000130565b62000381828285620002a6565b600060209050601f831160018114620003b95760008415620003a4578287015190505b620003b0858262000323565b86555062000420565b601f198416620003c98662000165565b60005b82811015620003f357848901518255600182019150602085019450602081019050620003cc565b868310156200041357848901516200040f601f89168262000303565b8355505b6001600288020188555050505b505050505050565b61479580620004386000396000f3fe6080604052600436106101cd5760003560e01c8063454a2ab3116100f757806395d89b4111610095578063d082e38111610064578063d082e38114610704578063d188929f1461072f578063de74e57b14610771578063e985e9c5146107b5576101cd565b806395d89b411461064a578063a22cb46514610675578063b88d4fde1461069e578063c87b56dd146106c7576101cd565b80636c2c9c7d116100d15780636c2c9c7d1461057a578063708d4d35146105a557806370a08231146105d0578063958365751461060d576101cd565b8063454a2ab3146104e45780634c22f381146105005780636352211e1461053d576101cd565b80631ca17eff1161016f578063252657341161013e57806325265734146104045780633f1ffcec1461044157806342842e0e1461047e578063451df52e146104a7576101cd565b80631ca17eff1461035757806321b628861461039457806322e8e1e0146103b057806323b872dd146103db576101cd565b8063095ea7b3116101ab578063095ea7b3146102775780630ad48628146102a05780631389b117146102dd5780631c351a9d1461031a576101cd565b806301ffc9a7146101d257806306fdde031461020f578063081812fc1461023a575b600080fd5b3480156101de57600080fd5b506101f960048036038101906101f49190613329565b6107f2565b6040516102069190613371565b60405180910390f35b34801561021b57600080fd5b50610224610853565b604051610231919061341c565b60405180910390f35b34801561024657600080fd5b50610261600480360381019061025c9190613474565b6108e5565b60405161026e91906134e2565b60405180910390f35b34801561028357600080fd5b5061029e60048036038101906102999190613529565b610901565b005b3480156102ac57600080fd5b506102c760048036038101906102c29190613474565b610917565b6040516102d49190613371565b60405180910390f35b3480156102e957600080fd5b5061030460048036038101906102ff9190613474565b61098b565b6040516103119190613371565b60405180910390f35b34801561032657600080fd5b50610341600480360381019061033c919061369e565b6109ae565b60405161034e9190613709565b60405180910390f35b34801561036357600080fd5b5061037e60048036038101906103799190613724565b610a3d565b60405161038b9190613709565b60405180910390f35b6103ae60048036038101906103a99190613474565b610a6e565b005b3480156103bc57600080fd5b506103c5610df0565b6040516103d29190613709565b60405180910390f35b3480156103e757600080fd5b5061040260048036038101906103fd9190613764565b610dfa565b005b34801561041057600080fd5b5061042b60048036038101906104269190613474565b610efc565b604051610438919061399e565b60405180910390f35b34801561044d57600080fd5b50610468600480360381019061046391906139c0565b61119c565b6040516104759190613709565b60405180910390f35b34801561048a57600080fd5b506104a560048036038101906104a09190613764565b6111c1565b005b3480156104b357600080fd5b506104ce60048036038101906104c99190613474565b6111e1565b6040516104db91906134e2565b60405180910390f35b6104fe60048036038101906104f99190613474565b611214565b005b34801561050c57600080fd5b5061052760048036038101906105229190613a00565b6114f4565b6040516105349190613709565b60405180910390f35b34801561054957600080fd5b50610564600480360381019061055f9190613474565b6116fd565b60405161057191906134e2565b60405180910390f35b34801561058657600080fd5b5061058f61170f565b60405161059c9190613709565b60405180910390f35b3480156105b157600080fd5b506105ba611715565b6040516105c79190613709565b60405180910390f35b3480156105dc57600080fd5b506105f760048036038101906105f29190613a53565b61171b565b6040516106049190613709565b60405180910390f35b34801561061957600080fd5b50610634600480360381019061062f9190613474565b6117d5565b604051610641919061399e565b60405180910390f35b34801561065657600080fd5b5061065f611a75565b60405161066c919061341c565b60405180910390f35b34801561068157600080fd5b5061069c60048036038101906106979190613aac565b611b07565b005b3480156106aa57600080fd5b506106c560048036038101906106c09190613b8d565b611b1d565b005b3480156106d357600080fd5b506106ee60048036038101906106e99190613474565b611b3a565b6040516106fb919061341c565b60405180910390f35b34801561071057600080fd5b50610719611c4d565b6040516107269190613709565b60405180910390f35b34801561073b57600080fd5b5061075660048036038101906107519190613474565b611c53565b60405161076896959493929190613c10565b60405180910390f35b34801561077d57600080fd5b5061079860048036038101906107939190613474565b611dfc565b6040516107ac989796959493929190613c8e565b60405180910390f35b3480156107c157600080fd5b506107dc60048036038101906107d79190613d0c565b611e71565b6040516107e99190613371565b60405180910390f35b6000634906490660e01b7bffffffffffffffffffffffffffffffffffffffffffffffffffffffff1916827bffffffffffffffffffffffffffffffffffffffffffffffffffffffff1916148061084c575061084b82611f05565b5b9050919050565b60606000805461086290613d7b565b80601f016020809104026020016040519081016040528092919081815260200182805461088e90613d7b565b80156108db5780601f106108b0576101008083540402835291602001916108db565b820191906000526020600020905b8154815290600101906020018083116108be57829003601f168201915b5050505050905090565b60006108f082611fe7565b506108fa8261206f565b9050919050565b610913828261090e6120ac565b6120b4565b5050565b600080600181111561092c5761092b613801565b5b600c600084815260200190815260200160002060070160009054906101000a900460ff16600181111561096257610961613801565b5b148015610984575042600c600084815260200190815260200160002060060154115b9050919050565b600042600c60008481526020019081526020016000206006015411159050919050565b6000600860008154809291906109c390613ddb565b9190505550600060085490506109d983826120c6565b6109e381856120e4565b8273ffffffffffffffffffffffffffffffffffffffff167fe7cd4ce7f2a465edc730269a1305e8a48bad821e8fb7e152ec413829c01a53c48286604051610a2b929190613e23565b60405180910390a28091505092915050565b600b6020528160005260406000208181548110610a5957600080fd5b90600052602060002001600091509150505481565b610a76612140565b610a7f81610917565b15610abf576040517f08c379a0000000000000000000000000000000000000000000000000000000008152600401610ab690613e9f565b60405180910390fd5b6000600c600083815260200190815260200160002090506000600e600084815260200190815260200160002060009054906101000a900473ffffffffffffffffffffffffffffffffffffffff1690508160010160009054906101000a900473ffffffffffffffffffffffffffffffffffffffff1673ffffffffffffffffffffffffffffffffffffffff163373ffffffffffffffffffffffffffffffffffffffff161480610b9757508073ffffffffffffffffffffffffffffffffffffffff163373ffffffffffffffffffffffffffffffffffffffff16145b610bd6576040517f08c379a0000000000000000000000000000000000000000000000000000000008152600401610bcd90613f31565b60405180910390fd5b60008073ffffffffffffffffffffffffffffffffffffffff168273ffffffffffffffffffffffffffffffffffffffff1614610cf657610c1a30838560020154612186565b600d600085815260200190815260200160002060008373ffffffffffffffffffffffffffffffffffffffff1673ffffffffffffffffffffffffffffffffffffffff1681526020019081526020016000205490506000600d600086815260200190815260200160002060008473ffffffffffffffffffffffffffffffffffffffff1673ffffffffffffffffffffffffffffffffffffffff16815260200190815260200160002081905550610cf18360010160009054906101000a900473ffffffffffffffffffffffffffffffffffffffff16826122f3565b610d2a565b610d29308460010160009054906101000a900473ffffffffffffffffffffffffffffffffffffffff168560020154612186565b5b60018360070160006101000a81548160ff02191690836001811115610d5257610d51613801565b5b02179055508173ffffffffffffffffffffffffffffffffffffffff168360010160009054906101000a900473ffffffffffffffffffffffffffffffffffffffff1673ffffffffffffffffffffffffffffffffffffffff167f7a59a6c36c8b7dc5080444722a7a194bf83837c893f984bcea8692e91551fc478684604051610dda929190613f51565b60405180910390a3505050610ded61241d565b50565b6000600854905090565b600073ffffffffffffffffffffffffffffffffffffffff168273ffffffffffffffffffffffffffffffffffffffff1603610e6c5760006040517f64a0ae92000000000000000000000000000000000000000000000000000000008152600401610e6391906134e2565b60405180910390fd5b6000610e808383610e7b6120ac565b612427565b90508373ffffffffffffffffffffffffffffffffffffffff168173ffffffffffffffffffffffffffffffffffffffff1614610ef6578382826040517f64283d7b000000000000000000000000000000000000000000000000000000008152600401610eed93929190613f7a565b60405180910390fd5b50505050565b60606000600b6000848152602001908152602001600020805480602002602001604051908101604052809291908181526020018280548015610f5d57602002820191906000526020600020905b815481526020019060010190808311610f49575b505050505090506000805b8251811015610fbb57610f94838281518110610f8757610f86613fb1565b5b602002602001015161098b565b15610fa8578180610fa490613ddb565b9250505b8080610fb390613ddb565b915050610f68565b5060008167ffffffffffffffff811115610fd857610fd7613573565b5b60405190808252806020026020018201604052801561101157816020015b610ffe613250565b815260200190600190039081610ff65790505b5090506000805b845181101561118f5761104485828151811061103757611036613fb1565b5b602002602001015161098b565b1561117c57600c60008683815181106110605761105f613fb1565b5b6020026020010151815260200190815260200160002060405180610100016040529081600082015481526020016001820160009054906101000a900473ffffffffffffffffffffffffffffffffffffffff1673ffffffffffffffffffffffffffffffffffffffff1673ffffffffffffffffffffffffffffffffffffffff16815260200160028201548152602001600382015481526020016004820154815260200160058201548152602001600682015481526020016007820160009054906101000a900460ff16600181111561113957611138613801565b5b600181111561114b5761114a613801565b5b8152505083838151811061116257611161613fb1565b5b6020026020010181905250818061117890613ddb565b9250505b808061118790613ddb565b915050611018565b5081945050505050919050565b600d602052816000526040600020602052806000526040600020600091509150505481565b6111dc83838360405180602001604052806000815250611b1d565b505050565b600e6020528060005260406000206000915054906101000a900473ffffffffffffffffffffffffffffffffffffffff1681565b61121c612140565b61122581610917565b611264576040517f08c379a000000000000000000000000000000000000000000000000000000000815260040161125b9061402c565b60405180910390fd5b6000600c600083815260200190815260200160002090508060010160009054906101000a900473ffffffffffffffffffffffffffffffffffffffff1673ffffffffffffffffffffffffffffffffffffffff163373ffffffffffffffffffffffffffffffffffffffff160361130d576040517f08c379a000000000000000000000000000000000000000000000000000000000815260040161130490614098565b60405180910390fd5b600034600d600085815260200190815260200160002060003373ffffffffffffffffffffffffffffffffffffffff1673ffffffffffffffffffffffffffffffffffffffff1681526020019081526020016000205461136b91906140b8565b90506000600a548360030154611381919061411b565b905080836003015461139391906140b8565b82116113d4576040517f08c379a00000000000000000000000000000000000000000000000000000000081526004016113cb906141be565b60405180910390fd5b6113dd84612641565b34600d600086815260200190815260200160002060003373ffffffffffffffffffffffffffffffffffffffff1673ffffffffffffffffffffffffffffffffffffffff168152602001908152602001600020600082825461143d91906140b8565b9250508190555033600e600086815260200190815260200160002060006101000a81548173ffffffffffffffffffffffffffffffffffffffff021916908373ffffffffffffffffffffffffffffffffffffffff1602179055503373ffffffffffffffffffffffffffffffffffffffff167f0bda7f7cf42011b27b057b83f3bf21f963b84eb591478e6b413b18d7872cd37a85846040516114de929190613f51565b60405180910390a25050506114f161241d565b50565b60006009600081548092919061150990613ddb565b91905055506000600954905060004290506000848261152891906140b8565b90506040518061010001604052808481526020013373ffffffffffffffffffffffffffffffffffffffff1681526020018781526020018881526020018881526020018381526020018281526020016000600181111561158a57611589613801565b5b815250600c60008581526020019081526020016000206000820151816000015560208201518160010160006101000a81548173ffffffffffffffffffffffffffffffffffffffff021916908373ffffffffffffffffffffffffffffffffffffffff16021790555060408201518160020155606082015181600301556080820151816004015560a0820151816005015560c0820151816006015560e08201518160070160006101000a81548160ff0219169083600181111561164e5761164d613801565b5b0217905550905050600b600087815260200190815260200160002083908060018154018082558091505060019003906000526020600020016000909190919091505561169b333088612186565b3373ffffffffffffffffffffffffffffffffffffffff167e09646912aaa7019ad837e57cc5c0613299c8432f5268d4450ab8673fe0fa0384898986866040516116e89594939291906141de565b60405180910390a28293505050509392505050565b600061170882611fe7565b9050919050565b60095481565b600a5481565b60008073ffffffffffffffffffffffffffffffffffffffff168273ffffffffffffffffffffffffffffffffffffffff160361178e5760006040517f89c62b6400000000000000000000000000000000000000000000000000000000815260040161178591906134e2565b60405180910390fd5b600360008373ffffffffffffffffffffffffffffffffffffffff1673ffffffffffffffffffffffffffffffffffffffff168152602001908152602001600020549050919050565b60606000600b600084815260200190815260200160002080548060200260200160405190810160405280929190818152602001828054801561183657602002820191906000526020600020905b815481526020019060010190808311611822575b505050505090506000805b82518110156118945761186d8382815181106118605761185f613fb1565b5b6020026020010151610917565b1561188157818061187d90613ddb565b9250505b808061188c90613ddb565b915050611841565b5060008167ffffffffffffffff8111156118b1576118b0613573565b5b6040519080825280602002602001820160405280156118ea57816020015b6118d7613250565b8152602001906001900390816118cf5790505b5090506000805b8451811015611a685761191d8582815181106119105761190f613fb1565b5b6020026020010151610917565b15611a5557600c600086838151811061193957611938613fb1565b5b6020026020010151815260200190815260200160002060405180610100016040529081600082015481526020016001820160009054906101000a900473ffffffffffffffffffffffffffffffffffffffff1673ffffffffffffffffffffffffffffffffffffffff1673ffffffffffffffffffffffffffffffffffffffff16815260200160028201548152602001600382015481526020016004820154815260200160058201548152602001600682015481526020016007820160009054906101000a900460ff166001811115611a1257611a11613801565b5b6001811115611a2457611a23613801565b5b81525050838381518110611a3b57611a3a613fb1565b5b60200260200101819052508180611a5190613ddb565b9250505b8080611a6090613ddb565b9150506118f1565b5081945050505050919050565b606060018054611a8490613d7b565b80601f0160208091040260200160405190810160405280929190818152602001828054611ab090613d7b565b8015611afd5780601f10611ad257610100808354040283529160200191611afd565b820191906000526020600020905b815481529060010190602001808311611ae057829003601f168201915b5050505050905090565b611b19611b126120ac565b8383612783565b5050565b611b28848484610dfa565b611b34848484846128f2565b50505050565b6060611b4582611fe7565b506000600660008481526020019081526020016000208054611b6690613d7b565b80601f0160208091040260200160405190810160405280929190818152602001828054611b9290613d7b565b8015611bdf5780601f10611bb457610100808354040283529160200191611bdf565b820191906000526020600020905b815481529060010190602001808311611bc257829003601f168201915b505050505090506000611bf0612aa9565b90506000815103611c05578192505050611c48565b600082511115611c3a578082604051602001611c2292919061426d565b60405160208183030381529060405292505050611c48565b611c4384612ac0565b925050505b919050565b60085481565b60606000606060008060008060009050600080600190505b6009548111611cb05789600c60008381526020019081526020016000206002015403611c9d5780925060019150611cb0565b8080611ca890613ddb565b915050611c6b565b50611cb9613250565b8115611dc457600c600084815260200190815260200160002060405180610100016040529081600082015481526020016001820160009054906101000a900473ffffffffffffffffffffffffffffffffffffffff1673ffffffffffffffffffffffffffffffffffffffff1673ffffffffffffffffffffffffffffffffffffffff16815260200160028201548152602001600382015481526020016004820154815260200160058201548152602001600682015481526020016007820160009054906101000a900460ff166001811115611d9557611d94613801565b5b6001811115611da757611da6613801565b5b815250509050611db683610917565b955080606001519450611dcd565b60009550600094505b611dd5610853565b9850899750611de38a611b3a565b9650611dee8a6116fd565b935050505091939550919395565b600c6020528060005260406000206000915090508060000154908060010160009054906101000a900473ffffffffffffffffffffffffffffffffffffffff16908060020154908060030154908060040154908060050154908060060154908060070160009054906101000a900460ff16905088565b6000600560008473ffffffffffffffffffffffffffffffffffffffff1673ffffffffffffffffffffffffffffffffffffffff16815260200190815260200160002060008373ffffffffffffffffffffffffffffffffffffffff1673ffffffffffffffffffffffffffffffffffffffff16815260200190815260200160002060009054906101000a900460ff16905092915050565b60007f80ac58cd000000000000000000000000000000000000000000000000000000007bffffffffffffffffffffffffffffffffffffffffffffffffffffffff1916827bffffffffffffffffffffffffffffffffffffffffffffffffffffffff19161480611fd057507f5b5e139f000000000000000000000000000000000000000000000000000000007bffffffffffffffffffffffffffffffffffffffffffffffffffffffff1916827bffffffffffffffffffffffffffffffffffffffffffffffffffffffff1916145b80611fe05750611fdf82612b29565b5b9050919050565b600080611ff383612b93565b9050600073ffffffffffffffffffffffffffffffffffffffff168173ffffffffffffffffffffffffffffffffffffffff160361206657826040517f7e27328900000000000000000000000000000000000000000000000000000000815260040161205d9190613709565b60405180910390fd5b80915050919050565b60006004600083815260200190815260200160002060009054906101000a900473ffffffffffffffffffffffffffffffffffffffff169050919050565b600033905090565b6120c18383836001612bd0565b505050565b6120e0828260405180602001604052806000815250612d95565b5050565b80600660008481526020019081526020016000209081612104919061443d565b507ff8e1a15aba9398e019f0b49df1a4fde98ee17ae345cb5f6b5e2c27f5033e8ce7826040516121349190613709565b60405180910390a15050565b60026007540361217c576040517f3ee5aeb500000000000000000000000000000000000000000000000000000000815260040160405180910390fd5b6002600781905550565b600073ffffffffffffffffffffffffffffffffffffffff168273ffffffffffffffffffffffffffffffffffffffff16036121f85760006040517f64a0ae920000000000000000000000000000000000000000000000000000000081526004016121ef91906134e2565b60405180910390fd5b600061220683836000612427565b9050600073ffffffffffffffffffffffffffffffffffffffff168173ffffffffffffffffffffffffffffffffffffffff160361227957816040517f7e2732890000000000000000000000000000000000000000000000000000000081526004016122709190613709565b60405180910390fd5b8373ffffffffffffffffffffffffffffffffffffffff168173ffffffffffffffffffffffffffffffffffffffff16146122ed578382826040517f64283d7b0000000000000000000000000000000000000000000000000000000081526004016122e493929190613f7a565b60405180910390fd5b50505050565b600081031561241957600073ffffffffffffffffffffffffffffffffffffffff168273ffffffffffffffffffffffffffffffffffffffff160361236b576040517f08c379a000000000000000000000000000000000000000000000000000000000815260040161236290614581565b60405180910390fd5b60008273ffffffffffffffffffffffffffffffffffffffff1682604051612391906145d2565b60006040518083038185875af1925050503d80600081146123ce576040519150601f19603f3d011682016040523d82523d6000602084013e6123d3565b606091505b5050905080612417576040517f08c379a000000000000000000000000000000000000000000000000000000000815260040161240e90614633565b60405180910390fd5b505b5050565b6001600781905550565b60008061243384612b93565b9050600073ffffffffffffffffffffffffffffffffffffffff168373ffffffffffffffffffffffffffffffffffffffff161461247557612474818486612db1565b5b600073ffffffffffffffffffffffffffffffffffffffff168173ffffffffffffffffffffffffffffffffffffffff1614612506576124b7600085600080612bd0565b6001600360008373ffffffffffffffffffffffffffffffffffffffff1673ffffffffffffffffffffffffffffffffffffffff168152602001908152602001600020600082825403925050819055505b600073ffffffffffffffffffffffffffffffffffffffff168573ffffffffffffffffffffffffffffffffffffffff1614612589576001600360008773ffffffffffffffffffffffffffffffffffffffff1673ffffffffffffffffffffffffffffffffffffffff168152602001908152602001600020600082825401925050819055505b846002600086815260200190815260200160002060006101000a81548173ffffffffffffffffffffffffffffffffffffffff021916908373ffffffffffffffffffffffffffffffffffffffff160217905550838573ffffffffffffffffffffffffffffffffffffffff168273ffffffffffffffffffffffffffffffffffffffff167fddf252ad1be2c89b69c2b068fc378daa952ba7f163c4a11628f55a4df523b3ef60405160405180910390a4809150509392505050565b6000600e600083815260200190815260200160002060009054906101000a900473ffffffffffffffffffffffffffffffffffffffff1690506000600d600084815260200190815260200160002060008373ffffffffffffffffffffffffffffffffffffffff1673ffffffffffffffffffffffffffffffffffffffff1681526020019081526020016000205490506000600d600085815260200190815260200160002060008473ffffffffffffffffffffffffffffffffffffffff1673ffffffffffffffffffffffffffffffffffffffff1681526020019081526020016000208190555061272e82826122f3565b8173ffffffffffffffffffffffffffffffffffffffff167f5eec25485ddf1aad4b5c89eda65e6053949901bfb1fe6f4c553e9c208b5bd5f88483604051612776929190613f51565b60405180910390a2505050565b600073ffffffffffffffffffffffffffffffffffffffff168273ffffffffffffffffffffffffffffffffffffffff16036127f457816040517f5b08ba180000000000000000000000000000000000000000000000000000000081526004016127eb91906134e2565b60405180910390fd5b80600560008573ffffffffffffffffffffffffffffffffffffffff1673ffffffffffffffffffffffffffffffffffffffff16815260200190815260200160002060008473ffffffffffffffffffffffffffffffffffffffff1673ffffffffffffffffffffffffffffffffffffffff16815260200190815260200160002060006101000a81548160ff0219169083151502179055508173ffffffffffffffffffffffffffffffffffffffff168373ffffffffffffffffffffffffffffffffffffffff167f17307eab39ab6107e8899845ad3d59bd9653f200f220920489ca2b5937696c31836040516128e59190613371565b60405180910390a3505050565b60008373ffffffffffffffffffffffffffffffffffffffff163b1115612aa3578273ffffffffffffffffffffffffffffffffffffffff1663150b7a026129366120ac565b8685856040518563ffffffff1660e01b815260040161295894939291906146a8565b6020604051808303816000875af192505050801561299457506040513d601f19601f820116820180604052508101906129919190614709565b60015b612a18573d80600081146129c4576040519150601f19603f3d011682016040523d82523d6000602084013e6129c9565b606091505b506000815103612a1057836040517f64a0ae92000000000000000000000000000000000000000000000000000000008152600401612a0791906134e2565b60405180910390fd5b805181602001fd5b63150b7a0260e01b7bffffffffffffffffffffffffffffffffffffffffffffffffffffffff1916817bffffffffffffffffffffffffffffffffffffffffffffffffffffffff191614612aa157836040517f64a0ae92000000000000000000000000000000000000000000000000000000008152600401612a9891906134e2565b60405180910390fd5b505b50505050565b606060405180602001604052806000815250905090565b6060612acb82611fe7565b506000612ad6612aa9565b90506000815111612af65760405180602001604052806000815250612b21565b80612b0084612e75565b604051602001612b1192919061426d565b6040516020818303038152906040525b915050919050565b60007f01ffc9a7000000000000000000000000000000000000000000000000000000007bffffffffffffffffffffffffffffffffffffffffffffffffffffffff1916827bffffffffffffffffffffffffffffffffffffffffffffffffffffffff1916149050919050565b60006002600083815260200190815260200160002060009054906101000a900473ffffffffffffffffffffffffffffffffffffffff169050919050565b8080612c095750600073ffffffffffffffffffffffffffffffffffffffff168273ffffffffffffffffffffffffffffffffffffffff1614155b15612d3d576000612c1984611fe7565b9050600073ffffffffffffffffffffffffffffffffffffffff168373ffffffffffffffffffffffffffffffffffffffff1614158015612c8457508273ffffffffffffffffffffffffffffffffffffffff168173ffffffffffffffffffffffffffffffffffffffff1614155b8015612c975750612c958184611e71565b155b15612cd957826040517fa9fbf51f000000000000000000000000000000000000000000000000000000008152600401612cd091906134e2565b60405180910390fd5b8115612d3b57838573ffffffffffffffffffffffffffffffffffffffff168273ffffffffffffffffffffffffffffffffffffffff167f8c5be1e5ebec7d5bd14f71427d1e84f3dd0314c0f7b2291e5b200ac8c7c3b92560405160405180910390a45b505b836004600085815260200190815260200160002060006101000a81548173ffffffffffffffffffffffffffffffffffffffff021916908373ffffffffffffffffffffffffffffffffffffffff16021790555050505050565b612d9f8383612f43565b612dac60008484846128f2565b505050565b612dbc83838361303c565b612e7057600073ffffffffffffffffffffffffffffffffffffffff168373ffffffffffffffffffffffffffffffffffffffff1603612e3157806040517f7e273289000000000000000000000000000000000000000000000000000000008152600401612e289190613709565b60405180910390fd5b81816040517f177e802f000000000000000000000000000000000000000000000000000000008152600401612e67929190614736565b60405180910390fd5b505050565b606060006001612e84846130fd565b01905060008167ffffffffffffffff811115612ea357612ea2613573565b5b6040519080825280601f01601f191660200182016040528015612ed55781602001600182028036833780820191505090505b509050600082602001820190505b600115612f38578080600190039150507f3031323334353637383961626364656600000000000000000000000000000000600a86061a8153600a8581612f2c57612f2b6140ec565b5b04945060008503612ee3575b819350505050919050565b600073ffffffffffffffffffffffffffffffffffffffff168273ffffffffffffffffffffffffffffffffffffffff1603612fb55760006040517f64a0ae92000000000000000000000000000000000000000000000000000000008152600401612fac91906134e2565b60405180910390fd5b6000612fc383836000612427565b9050600073ffffffffffffffffffffffffffffffffffffffff168173ffffffffffffffffffffffffffffffffffffffff16146130375760006040517f73c6ac6e00000000000000000000000000000000000000000000000000000000815260040161302e91906134e2565b60405180910390fd5b505050565b60008073ffffffffffffffffffffffffffffffffffffffff168373ffffffffffffffffffffffffffffffffffffffff16141580156130f457508273ffffffffffffffffffffffffffffffffffffffff168473ffffffffffffffffffffffffffffffffffffffff1614806130b557506130b48484611e71565b5b806130f357508273ffffffffffffffffffffffffffffffffffffffff166130db8361206f565b73ffffffffffffffffffffffffffffffffffffffff16145b5b90509392505050565b600080600090507a184f03e93ff9f4daa797ed6e38ed64bf6a1f010000000000000000831061315b577a184f03e93ff9f4daa797ed6e38ed64bf6a1f0100000000000000008381613151576131506140ec565b5b0492506040810190505b6d04ee2d6d415b85acef81000000008310613198576d04ee2d6d415b85acef8100000000838161318e5761318d6140ec565b5b0492506020810190505b662386f26fc1000083106131c757662386f26fc1000083816131bd576131bc6140ec565b5b0492506010810190505b6305f5e10083106131f0576305f5e10083816131e6576131e56140ec565b5b0492506008810190505b612710831061321557612710838161320b5761320a6140ec565b5b0492506004810190505b60648310613238576064838161322e5761322d6140ec565b5b0492506002810190505b600a8310613247576001810190505b80915050919050565b60405180610100016040528060008152602001600073ffffffffffffffffffffffffffffffffffffffff1681526020016000815260200160008152602001600081526020016000815260200160008152602001600060018111156132b7576132b6613801565b5b81525090565b6000604051905090565b600080fd5b600080fd5b60007fffffffff0000000000000000000000000000000000000000000000000000000082169050919050565b613306816132d1565b811461331157600080fd5b50565b600081359050613323816132fd565b92915050565b60006020828403121561333f5761333e6132c7565b5b600061334d84828501613314565b91505092915050565b60008115159050919050565b61336b81613356565b82525050565b60006020820190506133866000830184613362565b92915050565b600081519050919050565b600082825260208201905092915050565b60005b838110156133c65780820151818401526020810190506133ab565b60008484015250505050565b6000601f19601f8301169050919050565b60006133ee8261338c565b6133f88185613397565b93506134088185602086016133a8565b613411816133d2565b840191505092915050565b6000602082019050818103600083015261343681846133e3565b905092915050565b6000819050919050565b6134518161343e565b811461345c57600080fd5b50565b60008135905061346e81613448565b92915050565b60006020828403121561348a576134896132c7565b5b60006134988482850161345f565b91505092915050565b600073ffffffffffffffffffffffffffffffffffffffff82169050919050565b60006134cc826134a1565b9050919050565b6134dc816134c1565b82525050565b60006020820190506134f760008301846134d3565b92915050565b613506816134c1565b811461351157600080fd5b50565b600081359050613523816134fd565b92915050565b600080604083850312156135405761353f6132c7565b5b600061354e85828601613514565b925050602061355f8582860161345f565b9150509250929050565b600080fd5b600080fd5b7f4e487b7100000000000000000000000000000000000000000000000000000000600052604160045260246000fd5b6135ab826133d2565b810181811067ffffffffffffffff821117156135ca576135c9613573565b5b80604052505050565b60006135dd6132bd565b90506135e982826135a2565b919050565b600067ffffffffffffffff82111561360957613608613573565b5b613612826133d2565b9050602081019050919050565b82818337600083830152505050565b600061364161363c846135ee565b6135d3565b90508281526020810184848401111561365d5761365c61356e565b5b61366884828561361f565b509392505050565b600082601f83011261368557613684613569565b5b813561369584826020860161362e565b91505092915050565b600080604083850312156136b5576136b46132c7565b5b600083013567ffffffffffffffff8111156136d3576136d26132cc565b5b6136df85828601613670565b92505060206136f085828601613514565b9150509250929050565b6137038161343e565b82525050565b600060208201905061371e60008301846136fa565b92915050565b6000806040838503121561373b5761373a6132c7565b5b60006137498582860161345f565b925050602061375a8582860161345f565b9150509250929050565b60008060006060848603121561377d5761377c6132c7565b5b600061378b86828701613514565b935050602061379c86828701613514565b92505060406137ad8682870161345f565b9150509250925092565b600081519050919050565b600082825260208201905092915050565b6000819050602082019050919050565b6137ec8161343e565b82525050565b6137fb816134c1565b82525050565b7f4e487b7100000000000000000000000000000000000000000000000000000000600052602160045260246000fd5b6002811061384157613840613801565b5b50565b600081905061385282613830565b919050565b600061386282613844565b9050919050565b61387281613857565b82525050565b6101008201600082015161388f60008501826137e3565b5060208201516138a260208501826137f2565b5060408201516138b560408501826137e3565b5060608201516138c860608501826137e3565b5060808201516138db60808501826137e3565b5060a08201516138ee60a08501826137e3565b5060c082015161390160c08501826137e3565b5060e082015161391460e0850182613869565b50505050565b60006139268383613878565b6101008301905092915050565b6000602082019050919050565b600061394b826137b7565b61395581856137c2565b9350613960836137d3565b8060005b83811015613991578151613978888261391a565b975061398383613933565b925050600181019050613964565b5085935050505092915050565b600060208201905081810360008301526139b88184613940565b905092915050565b600080604083850312156139d7576139d66132c7565b5b60006139e58582860161345f565b92505060206139f685828601613514565b9150509250929050565b600080600060608486031215613a1957613a186132c7565b5b6000613a278682870161345f565b9350506020613a388682870161345f565b9250506040613a498682870161345f565b9150509250925092565b600060208284031215613a6957613a686132c7565b5b6000613a7784828501613514565b91505092915050565b613a8981613356565b8114613a9457600080fd5b50565b600081359050613aa681613a80565b92915050565b60008060408385031215613ac357613ac26132c7565b5b6000613ad185828601613514565b9250506020613ae285828601613a97565b9150509250929050565b600067ffffffffffffffff821115613b0757613b06613573565b5b613b10826133d2565b9050602081019050919050565b6000613b30613b2b84613aec565b6135d3565b905082815260208101848484011115613b4c57613b4b61356e565b5b613b5784828561361f565b509392505050565b600082601f830112613b7457613b73613569565b5b8135613b84848260208601613b1d565b91505092915050565b60008060008060808587031215613ba757613ba66132c7565b5b6000613bb587828801613514565b9450506020613bc687828801613514565b9350506040613bd78782880161345f565b925050606085013567ffffffffffffffff811115613bf857613bf76132cc565b5b613c0487828801613b5f565b91505092959194509250565b600060c0820190508181036000830152613c2a81896133e3565b9050613c3960208301886136fa565b8181036040830152613c4b81876133e3565b9050613c5a6060830186613362565b613c6760808301856136fa565b613c7460a08301846134d3565b979650505050505050565b613c8881613857565b82525050565b600061010082019050613ca4600083018b6136fa565b613cb1602083018a6134d3565b613cbe60408301896136fa565b613ccb60608301886136fa565b613cd860808301876136fa565b613ce560a08301866136fa565b613cf260c08301856136fa565b613cff60e0830184613c7f565b9998505050505050505050565b60008060408385031215613d2357613d226132c7565b5b6000613d3185828601613514565b9250506020613d4285828601613514565b9150509250929050565b7f4e487b7100000000000000000000000000000000000000000000000000000000600052602260045260246000fd5b60006002820490506001821680613d9357607f821691505b602082108103613da657613da5613d4c565b5b50919050565b7f4e487b7100000000000000000000000000000000000000000000000000000000600052601160045260246000fd5b6000613de68261343e565b91507fffffffffffffffffffffffffffffffffffffffffffffffffffffffffffffffff8203613e1857613e17613dac565b5b600182019050919050565b6000604082019050613e3860008301856136fa565b8181036020830152613e4a81846133e3565b90509392505050565b7f61756374696f6e206973207374696c6c206f70656e0000000000000000000000600082015250565b6000613e89601583613397565b9150613e9482613e53565b602082019050919050565b60006020820190508181036000830152613eb881613e7c565b9050919050565b7f6f6e6c792073656c6c6572206f722077696e6e65722063616e20636f6d706c6560008201527f74652061756374696f6e00000000000000000000000000000000000000000000602082015250565b6000613f1b602a83613397565b9150613f2682613ebf565b604082019050919050565b60006020820190508181036000830152613f4a81613f0e565b9050919050565b6000604082019050613f6660008301856136fa565b613f7360208301846136fa565b9392505050565b6000606082019050613f8f60008301866134d3565b613f9c60208301856136fa565b613fa960408301846134d3565b949350505050565b7f4e487b7100000000000000000000000000000000000000000000000000000000600052603260045260246000fd5b7f61756374696f6e2068617320656e646564000000000000000000000000000000600082015250565b6000614016601183613397565b915061402182613fe0565b602082019050919050565b6000602082019050818103600083015261404581614009565b9050919050565b7f63616e6e6f7420626964206f6e207768617420796f75206f776e000000000000600082015250565b6000614082601a83613397565b915061408d8261404c565b602082019050919050565b600060208201905081810360008301526140b181614075565b9050919050565b60006140c38261343e565b91506140ce8361343e565b92508282019050808211156140e6576140e5613dac565b5b92915050565b7f4e487b7100000000000000000000000000000000000000000000000000000000600052601260045260246000fd5b60006141268261343e565b91506141318361343e565b925082614141576141406140ec565b5b828204905092915050565b7f63616e6e6f74206269642062656c6f7720746865206c6174657374206269646460008201527f696e672070726963650000000000000000000000000000000000000000000000602082015250565b60006141a8602983613397565b91506141b38261414c565b604082019050919050565b600060208201905081810360008301526141d78161419b565b9050919050565b600060a0820190506141f360008301886136fa565b61420060208301876136fa565b61420d60408301866136fa565b61421a60608301856136fa565b61422760808301846136fa565b9695505050505050565b600081905092915050565b60006142478261338c565b6142518185614231565b93506142618185602086016133a8565b80840191505092915050565b6000614279828561423c565b9150614285828461423c565b91508190509392505050565b60008190508160005260206000209050919050565b60006020601f8301049050919050565b600082821b905092915050565b6000600883026142f37fffffffffffffffffffffffffffffffffffffffffffffffffffffffffffffffff826142b6565b6142fd86836142b6565b95508019841693508086168417925050509392505050565b6000819050919050565b600061433a6143356143308461343e565b614315565b61343e565b9050919050565b6000819050919050565b6143548361431f565b61436861436082614341565b8484546142c3565b825550505050565b600090565b61437d614370565b61438881848461434b565b505050565b5b818110156143ac576143a1600082614375565b60018101905061438e565b5050565b601f8211156143f1576143c281614291565b6143cb846142a6565b810160208510156143da578190505b6143ee6143e6856142a6565b83018261438d565b50505b505050565b600082821c905092915050565b6000614414600019846008026143f6565b1980831691505092915050565b600061442d8383614403565b9150826002028217905092915050565b6144468261338c565b67ffffffffffffffff81111561445f5761445e613573565b5b6144698254613d7b565b6144748282856143b0565b600060209050601f8311600181146144a75760008415614495578287015190505b61449f8582614421565b865550614507565b601f1984166144b586614291565b60005b828110156144dd578489015182556001820191506020850194506020810190506144b8565b868310156144fa57848901516144f6601f891682614403565b8355505b6001600288020188555050505b505050505050565b7f4572726f722c2063616e6e6f74207472616e7366657220746f2061646472657360008201527f7328302900000000000000000000000000000000000000000000000000000000602082015250565b600061456b602483613397565b91506145768261450f565b604082019050919050565b6000602082019050818103600083015261459a8161455e565b9050919050565b600081905092915050565b50565b60006145bc6000836145a1565b91506145c7826145ac565b600082019050919050565b60006145dd826145af565b9150819050919050565b7f4572726f722c206661696c656420746f2073656e642045746865720000000000600082015250565b600061461d601b83613397565b9150614628826145e7565b602082019050919050565b6000602082019050818103600083015261464c81614610565b9050919050565b600081519050919050565b600082825260208201905092915050565b600061467a82614653565b614684818561465e565b93506146948185602086016133a8565b61469d816133d2565b840191505092915050565b60006080820190506146bd60008301876134d3565b6146ca60208301866134d3565b6146d760408301856136fa565b81810360608301526146e9818461466f565b905095945050505050565b600081519050614703816132fd565b92915050565b60006020828403121561471f5761471e6132c7565b5b600061472d848285016146f4565b91505092915050565b600060408201905061474b60008301856134d3565b61475860208301846136fa565b939250505056fea2646970667358221220e3f817faaf07d067cb9ee54c964d4def8690535a450e7acdcfbdcda0dd03bf0264736f6c63430008140033",
  "linkReferences": {},
  "deployedLinkReferences": {}
}