{
  "_format": "hh-sol-artifact-1",
  "contractName": "NftSaleable",
  "sourceName": "contracts/NftSaleable.sol",
  "abi": [
    {
      "inputs": [],
      "stateMutability": "nonpayable",
      "type": "constructor"
    },
    {
      "inputs": [
        {
          "internalType": "address",
          "name": "sender",
          "type": "address"
        },
        {
          "internalType": "uint256",
          "name": "tokenId",
          "type": "uint256"
        },
        {
          "internalType": "address",
          "name": "owner",
          "type": "address"
        }
      ],
      "name": "ERC721IncorrectOwner",
      "type": "error"
    },
    {
      "inputs": [
        {
          "internalType": "address",
          "name": "operator",
          "type": "address"
        },
        {
          "internalType": "uint256",
          "name": "tokenId",
          "type": "uint256"
        }
      ],
      "name": "ERC721InsufficientApproval",
      "type": "error"
    },
    {
      "inputs": [
        {
          "internalType": "address",
          "name": "approver",
          "type": "address"
        }
      ],
      "name": "ERC721InvalidApprover",
      "type": "error"
    },
    {
      "inputs": [
        {
          "internalType": "address",
          "name": "operator",
          "type": "address"
        }
      ],
      "name": "ERC721InvalidOperator",
      "type": "error"
    },
    {
      "inputs": [
        {
          "internalType": "address",
          "name": "owner",
          "type": "address"
        }
      ],
      "name": "ERC721InvalidOwner",
      "type": "error"
    },
    {
      "inputs": [
        {
          "internalType": "address",
          "name": "receiver",
          "type": "address"
        }
      ],
      "name": "ERC721InvalidReceiver",
      "type": "error"
    },
    {
      "inputs": [
        {
          "internalType": "address",
          "name": "sender",
          "type": "address"
        }
      ],
      "name": "ERC721InvalidSender",
      "type": "error"
    },
    {
      "inputs": [
        {
          "internalType": "uint256",
          "name": "tokenId",
          "type": "uint256"
        }
      ],
      "name": "ERC721NonexistentToken",
      "type": "error"
    },
    {
      "inputs": [],
      "name": "ReentrancyGuardReentrantCall",
      "type": "error"
    },
    {
      "anonymous": false,
      "inputs": [
        {
          "indexed": true,
          "internalType": "address",
          "name": "owner",
          "type": "address"
        },
        {
          "indexed": true,
          "internalType": "address",
          "name": "approved",
          "type": "address"
        },
        {
          "indexed": true,
          "internalType": "uint256",
          "name": "tokenId",
          "type": "uint256"
        }
      ],
      "name": "Approval",
      "type": "event"
    },
    {
      "anonymous": false,
      "inputs": [
        {
          "indexed": true,
          "internalType": "address",
          "name": "owner",
          "type": "address"
        },
        {
          "indexed": true,
          "internalType": "address",
          "name": "operator",
          "type": "address"
        },
        {
          "indexed": false,
          "internalType": "bool",
          "name": "approved",
          "type": "bool"
        }
      ],
      "name": "ApprovalForAll",
      "type": "event"
    },
    {
      "anonymous": false,
      "inputs": [
        {
          "indexed": false,
          "internalType": "uint256",
          "name": "listingId",
          "type": "uint256"
        },
        {
          "indexed": true,
          "internalType": "address",
          "name": "seller",
          "type": "address"
        },
        {
          "indexed": true,
          "internalType": "address",
          "name": "bidder",
          "type": "address"
        },
        {
          "indexed": false,
          "internalType": "uint256",
          "name": "bid",
          "type": "uint256"
        }
      ],
      "name": "AuctionCompleted",
      "type": "event"
    },
    {
      "anonymous": false,
      "inputs": [
        {
          "indexed": false,
          "internalType": "uint256",
          "name": "listingId",
          "type": "uint256"
        },
        {
          "indexed": true,
          "internalType": "address",
          "name": "seller",
          "type": "address"
        },
        {
          "indexed": false,
          "internalType": "uint256",
          "name": "price",
          "type": "uint256"
        },
        {
          "indexed": false,
          "internalType": "uint256",
          "name": "tokenId",
          "type": "uint256"
        },
        {
          "indexed": false,
          "internalType": "uint256",
          "name": "startAt",
          "type": "uint256"
        },
        {
          "indexed": false,
          "internalType": "uint256",
          "name": "endAt",
          "type": "uint256"
        }
      ],
      "name": "AuctionCreated",
      "type": "event"
    },
    {
      "anonymous": false,
      "inputs": [
        {
          "indexed": false,
          "internalType": "uint256",
          "name": "_fromTokenId",
          "type": "uint256"
        },
        {
          "indexed": false,
          "internalType": "uint256",
          "name": "_toTokenId",
          "type": "uint256"
        }
      ],
      "name": "BatchMetadataUpdate",
      "type": "event"
    },
    {
      "anonymous": false,
      "inputs": [
        {
          "indexed": false,
          "internalType": "uint256",
          "name": "listingId",
          "type": "uint256"
        },
        {
          "indexed": true,
          "internalType": "address",
          "name": "bidder",
          "type": "address"
        },
        {
          "indexed": false,
          "internalType": "uint256",
          "name": "bid",
          "type": "uint256"
        }
      ],
      "name": "BidCreated",
      "type": "event"
    },
    {
      "anonymous": false,
      "inputs": [
        {
          "indexed": false,
          "internalType": "uint256",
          "name": "_tokenId",
          "type": "uint256"
        }
      ],
      "name": "MetadataUpdate",
      "type": "event"
    },
    {
      "anonymous": false,
      "inputs": [
        {
          "indexed": true,
          "internalType": "address",
          "name": "minter",
          "type": "address"
        },
        {
          "indexed": false,
          "internalType": "uint256",
          "name": "nftID",
          "type": "uint256"
        },
        {
          "indexed": false,
          "internalType": "string",
          "name": "uri",
          "type": "string"
        }
      ],
      "name": "Minted",
      "type": "event"
    },
    {
      "anonymous": false,
      "inputs": [
        {
          "indexed": true,
          "internalType": "address",
          "name": "from",
          "type": "address"
        },
        {
          "indexed": true,
          "internalType": "address",
          "name": "to",
          "type": "address"
        },
        {
          "indexed": true,
          "internalType": "uint256",
          "name": "tokenId",
          "type": "uint256"
        }
      ],
      "name": "Transfer",
      "type": "event"
    },
    {
      "anonymous": false,
      "inputs": [
        {
          "indexed": false,
          "internalType": "uint256",
          "name": "listingId",
          "type": "uint256"
        },
        {
          "indexed": true,
          "internalType": "address",
          "name": "bidder",
          "type": "address"
        },
        {
          "indexed": false,
          "internalType": "uint256",
          "name": "bid",
          "type": "uint256"
        }
      ],
      "name": "WithdrawBid",
      "type": "event"
    },
    {
      "inputs": [
        {
          "internalType": "address",
          "name": "to",
          "type": "address"
        },
        {
          "internalType": "uint256",
          "name": "tokenId",
          "type": "uint256"
        }
      ],
      "name": "approve",
      "outputs": [],
      "stateMutability": "nonpayable",
      "type": "function"
    },
    {
      "inputs": [
        {
          "internalType": "address",
          "name": "owner",
          "type": "address"
        }
      ],
      "name": "balanceOf",
      "outputs": [
        {
          "internalType": "uint256",
          "name": "",
          "type": "uint256"
        }
      ],
      "stateMutability": "view",
      "type": "function"
    },
    {
      "inputs": [
        {
          "internalType": "uint256",
          "name": "listingId",
          "type": "uint256"
        }
      ],
      "name": "bid",
      "outputs": [],
      "stateMutability": "payable",
      "type": "function"
    },
    {
      "inputs": [
        {
          "internalType": "uint256",
          "name": "",
          "type": "uint256"
        },
        {
          "internalType": "address",
          "name": "",
          "type": "address"
        }
      ],
      "name": "bids",
      "outputs": [
        {
          "internalType": "uint256",
          "name": "",
          "type": "uint256"
        }
      ],
      "stateMutability": "view",
      "type": "function"
    },
    {
      "inputs": [
        {
          "internalType": "uint256",
          "name": "listingId",
          "type": "uint256"
        }
      ],
      "name": "completeAuction",
      "outputs": [],
      "stateMutability": "payable",
      "type": "function"
    },
    {
      "inputs": [
        {
          "internalType": "uint256",
          "name": "price",
          "type": "uint256"
        },
        {
          "internalType": "uint256",
          "name": "tokenId",
          "type": "uint256"
        },
        {
          "internalType": "uint256",
          "name": "durationInSeconds",
          "type": "uint256"
        }
      ],
      "name": "createAuctionListing",
      "outputs": [
        {
          "internalType": "uint256",
          "name": "",
          "type": "uint256"
        }
      ],
      "stateMutability": "nonpayable",
      "type": "function"
    },
    {
      "inputs": [
        {
          "internalType": "uint256",
          "name": "tokenId",
          "type": "uint256"
        }
      ],
      "name": "getApproved",
      "outputs": [
        {
          "internalType": "address",
          "name": "",
          "type": "address"
        }
      ],
      "stateMutability": "view",
      "type": "function"
    },
    {
      "inputs": [],
      "name": "getHowManyMinted",
      "outputs": [
        {
          "internalType": "uint256",
          "name": "length",
          "type": "uint256"
        }
      ],
      "stateMutability": "view",
      "type": "function"
    },
    {
      "inputs": [
        {
          "internalType": "uint256",
          "name": "tokenId",
          "type": "uint256"
        }
      ],
      "name": "getNFTInfo",
      "outputs": [
        {
          "internalType": "string",
          "name": "name_",
          "type": "string"
        },
        {
          "internalType": "uint256",
          "name": "tokenId_",
          "type": "uint256"
        },
        {
          "internalType": "string",
          "name": "tokenURI_",
          "type": "string"
        },
        {
          "internalType": "bool",
          "name": "isAuction_",
          "type": "bool"
        },
        {
          "internalType": "uint256",
          "name": "price_",
          "type": "uint256"
        },
        {
          "internalType": "address",
          "name": "owner_",
          "type": "address"
        }
      ],
      "stateMutability": "view",
      "type": "function"
    },
    {
      "inputs": [
        {
          "internalType": "uint256",
          "name": "",
          "type": "uint256"
        }
      ],
      "name": "highestBidder",
      "outputs": [
        {
          "internalType": "address",
          "name": "",
          "type": "address"
        }
      ],
      "stateMutability": "view",
      "type": "function"
    },
    {
      "inputs": [
        {
          "internalType": "address",
          "name": "owner",
          "type": "address"
        },
        {
          "internalType": "address",
          "name": "operator",
          "type": "address"
        }
      ],
      "name": "isApprovedForAll",
      "outputs": [
        {
          "internalType": "bool",
          "name": "",
          "type": "bool"
        }
      ],
      "stateMutability": "view",
      "type": "function"
    },
    {
      "inputs": [
        {
          "internalType": "uint256",
          "name": "id",
          "type": "uint256"
        }
      ],
      "name": "isAuctionExpired",
      "outputs": [
        {
          "internalType": "bool",
          "name": "",
          "type": "bool"
        }
      ],
      "stateMutability": "view",
      "type": "function"
    },
    {
      "inputs": [
        {
          "internalType": "uint256",
          "name": "id",
          "type": "uint256"
        }
      ],
      "name": "isAuctionOpen",
      "outputs": [
        {
          "internalType": "bool",
          "name": "",
          "type": "bool"
        }
      ],
      "stateMutability": "view",
      "type": "function"
    },
    {
      "inputs": [],
      "name": "listingCounter",
      "outputs": [
        {
          "internalType": "uint256",
          "name": "",
          "type": "uint256"
        }
      ],
      "stateMutability": "view",
      "type": "function"
    },
    {
      "inputs": [
        {
          "internalType": "uint256",
          "name": "",
          "type": "uint256"
        }
      ],
      "name": "listings",
      "outputs": [
        {
          "internalType": "address",
          "name": "seller",
          "type": "address"
        },
        {
          "internalType": "uint256",
          "name": "tokenId",
          "type": "uint256"
        },
        {
          "internalType": "uint256",
          "name": "price",
          "type": "uint256"
        },
        {
          "internalType": "uint256",
          "name": "netPrice",
          "type": "uint256"
        },
        {
          "internalType": "uint256",
          "name": "startAt",
          "type": "uint256"
        },
        {
          "internalType": "uint256",
          "name": "endAt",
          "type": "uint256"
        },
        {
          "internalType": "enum NftSaleable.AuctionStatus",
          "name": "status",
          "type": "uint8"
        }
      ],
      "stateMutability": "view",
      "type": "function"
    },
    {
      "inputs": [],
      "name": "minAuctionIncrement",
      "outputs": [
        {
          "internalType": "uint256",
          "name": "",
          "type": "uint256"
        }
      ],
      "stateMutability": "view",
      "type": "function"
    },
    {
      "inputs": [
        {
          "internalType": "string",
          "name": "tokenURI",
          "type": "string"
        },
        {
          "internalType": "address",
          "name": "minterAddress",
          "type": "address"
        }
      ],
      "name": "mint",
      "outputs": [
        {
          "internalType": "uint256",
          "name": "",
          "type": "uint256"
        }
      ],
      "stateMutability": "nonpayable",
      "type": "function"
    },
    {
      "inputs": [],
      "name": "name",
      "outputs": [
        {
          "internalType": "string",
          "name": "",
          "type": "string"
        }
      ],
      "stateMutability": "view",
      "type": "function"
    },
    {
      "inputs": [
        {
          "internalType": "uint256",
          "name": "tokenId",
          "type": "uint256"
        }
      ],
      "name": "ownerOf",
      "outputs": [
        {
          "internalType": "address",
          "name": "",
          "type": "address"
        }
      ],
      "stateMutability": "view",
      "type": "function"
    },
    {
      "inputs": [
        {
          "internalType": "address",
          "name": "from",
          "type": "address"
        },
        {
          "internalType": "address",
          "name": "to",
          "type": "address"
        },
        {
          "internalType": "uint256",
          "name": "tokenId",
          "type": "uint256"
        }
      ],
      "name": "safeTransferFrom",
      "outputs": [],
      "stateMutability": "nonpayable",
      "type": "function"
    },
    {
      "inputs": [
        {
          "internalType": "address",
          "name": "from",
          "type": "address"
        },
        {
          "internalType": "address",
          "name": "to",
          "type": "address"
        },
        {
          "internalType": "uint256",
          "name": "tokenId",
          "type": "uint256"
        },
        {
          "internalType": "bytes",
          "name": "data",
          "type": "bytes"
        }
      ],
      "name": "safeTransferFrom",
      "outputs": [],
      "stateMutability": "nonpayable",
      "type": "function"
    },
    {
      "inputs": [
        {
          "internalType": "address",
          "name": "operator",
          "type": "address"
        },
        {
          "internalType": "bool",
          "name": "approved",
          "type": "bool"
        }
      ],
      "name": "setApprovalForAll",
      "outputs": [],
      "stateMutability": "nonpayable",
      "type": "function"
    },
    {
      "inputs": [
        {
          "internalType": "bytes4",
          "name": "interfaceId",
          "type": "bytes4"
        }
      ],
      "name": "supportsInterface",
      "outputs": [
        {
          "internalType": "bool",
          "name": "",
          "type": "bool"
        }
      ],
      "stateMutability": "view",
      "type": "function"
    },
    {
      "inputs": [],
      "name": "symbol",
      "outputs": [
        {
          "internalType": "string",
          "name": "",
          "type": "string"
        }
      ],
      "stateMutability": "view",
      "type": "function"
    },
    {
      "inputs": [],
      "name": "tokenCounter",
      "outputs": [
        {
          "internalType": "uint256",
          "name": "",
          "type": "uint256"
        }
      ],
      "stateMutability": "view",
      "type": "function"
    },
    {
      "inputs": [
        {
          "internalType": "uint256",
          "name": "tokenId",
          "type": "uint256"
        }
      ],
      "name": "tokenURI",
      "outputs": [
        {
          "internalType": "string",
          "name": "",
          "type": "string"
        }
      ],
      "stateMutability": "view",
      "type": "function"
    },
    {
      "inputs": [
        {
          "internalType": "address",
          "name": "from",
          "type": "address"
        },
        {
          "internalType": "address",
          "name": "to",
          "type": "address"
        },
        {
          "internalType": "uint256",
          "name": "tokenId",
          "type": "uint256"
        }
      ],
      "name": "transferFrom",
      "outputs": [],
      "stateMutability": "nonpayable",
      "type": "function"
    }
  ],
  "bytecode": "0x60806040526005600a553480156200001657600080fd5b506040518060400160405280600781526020017f5368696e4e4654000000000000000000000000000000000000000000000000008152506040518060400160405280600581526020017f5345554e47000000000000000000000000000000000000000000000000000000815250816000908162000094919062000341565b508060019081620000a6919062000341565b50505060016007819055506000600881905550600060098190555062000428565b600081519050919050565b7f4e487b7100000000000000000000000000000000000000000000000000000000600052604160045260246000fd5b7f4e487b7100000000000000000000000000000000000000000000000000000000600052602260045260246000fd5b600060028204905060018216806200014957607f821691505b6020821081036200015f576200015e62000101565b5b50919050565b60008190508160005260206000209050919050565b60006020601f8301049050919050565b600082821b905092915050565b600060088302620001c97fffffffffffffffffffffffffffffffffffffffffffffffffffffffffffffffff826200018a565b620001d586836200018a565b95508019841693508086168417925050509392505050565b6000819050919050565b6000819050919050565b6000620002226200021c6200021684620001ed565b620001f7565b620001ed565b9050919050565b6000819050919050565b6200023e8362000201565b620002566200024d8262000229565b84845462000197565b825550505050565b600090565b6200026d6200025e565b6200027a81848462000233565b505050565b5b81811015620002a2576200029660008262000263565b60018101905062000280565b5050565b601f821115620002f157620002bb8162000165565b620002c6846200017a565b81016020851015620002d6578190505b620002ee620002e5856200017a565b8301826200027f565b50505b505050565b600082821c905092915050565b60006200031660001984600802620002f6565b1980831691505092915050565b600062000331838362000303565b9150826002028217905092915050565b6200034c82620000c7565b67ffffffffffffffff811115620003685762000367620000d2565b5b62000374825462000130565b62000381828285620002a6565b600060209050601f831160018114620003b95760008415620003a4578287015190505b620003b0858262000323565b86555062000420565b601f198416620003c98662000165565b60005b82811015620003f357848901518255600182019150602085019450602081019050620003cc565b868310156200041357848901516200040f601f89168262000303565b8355505b6001600288020188555050505b505050505050565b613ec580620004386000396000f3fe60806040526004361061019c5760003560e01c8063454a2ab3116100ec578063a22cb4651161008a578063d082e38111610064578063d082e3811461061c578063d188929f14610647578063de74e57b14610689578063e985e9c5146106cc5761019c565b8063a22cb4651461058d578063b88d4fde146105b6578063c87b56dd146105df5761019c565b80636c2c9c7d116100c65780636c2c9c7d146104cf578063708d4d35146104fa57806370a082311461052557806395d89b41146105625761019c565b8063454a2ab3146104395780634c22f381146104555780636352211e146104925761019c565b80631c351a9d1161015957806323b872dd1161013357806323b872dd1461036d5780633f1ffcec1461039657806342842e0e146103d3578063451df52e146103fc5761019c565b80631c351a9d146102e957806321b628861461032657806322e8e1e0146103425761019c565b806301ffc9a7146101a157806306fdde03146101de578063081812fc14610209578063095ea7b3146102465780630ad486281461026f5780631389b117146102ac575b600080fd5b3480156101ad57600080fd5b506101c860048036038101906101c39190612c78565b610709565b6040516101d59190612cc0565b60405180910390f35b3480156101ea57600080fd5b506101f361076a565b6040516102009190612d6b565b60405180910390f35b34801561021557600080fd5b50610230600480360381019061022b9190612dc3565b6107fc565b60405161023d9190612e31565b60405180910390f35b34801561025257600080fd5b5061026d60048036038101906102689190612e78565b610818565b005b34801561027b57600080fd5b5061029660048036038101906102919190612dc3565b61082e565b6040516102a39190612cc0565b60405180910390f35b3480156102b857600080fd5b506102d360048036038101906102ce9190612dc3565b6108a2565b6040516102e09190612cc0565b60405180910390f35b3480156102f557600080fd5b50610310600480360381019061030b9190612fed565b6108c5565b60405161031d9190613058565b60405180910390f35b610340600480360381019061033b9190612dc3565b610954565b005b34801561034e57600080fd5b50610357610cd6565b6040516103649190613058565b60405180910390f35b34801561037957600080fd5b50610394600480360381019061038f9190613073565b610ce0565b005b3480156103a257600080fd5b506103bd60048036038101906103b891906130c6565b610de2565b6040516103ca9190613058565b60405180910390f35b3480156103df57600080fd5b506103fa60048036038101906103f59190613073565b610e07565b005b34801561040857600080fd5b50610423600480360381019061041e9190612dc3565b610e27565b6040516104309190612e31565b60405180910390f35b610453600480360381019061044e9190612dc3565b610e5a565b005b34801561046157600080fd5b5061047c60048036038101906104779190613106565b611147565b6040516104899190613058565b60405180910390f35b34801561049e57600080fd5b506104b960048036038101906104b49190612dc3565b611305565b6040516104c69190612e31565b60405180910390f35b3480156104db57600080fd5b506104e4611317565b6040516104f19190613058565b60405180910390f35b34801561050657600080fd5b5061050f61131d565b60405161051c9190613058565b60405180910390f35b34801561053157600080fd5b5061054c60048036038101906105479190613159565b611323565b6040516105599190613058565b60405180910390f35b34801561056e57600080fd5b506105776113dd565b6040516105849190612d6b565b60405180910390f35b34801561059957600080fd5b506105b460048036038101906105af91906131b2565b61146f565b005b3480156105c257600080fd5b506105dd60048036038101906105d89190613293565b611485565b005b3480156105eb57600080fd5b5061060660048036038101906106019190612dc3565b6114a2565b6040516106139190612d6b565b60405180910390f35b34801561062857600080fd5b506106316115b5565b60405161063e9190613058565b60405180910390f35b34801561065357600080fd5b5061066e60048036038101906106699190612dc3565b6115bb565b60405161068096959493929190613316565b60405180910390f35b34801561069557600080fd5b506106b060048036038101906106ab9190612dc3565b611759565b6040516106c397969594939291906133fc565b60405180910390f35b3480156106d857600080fd5b506106f360048036038101906106ee919061346b565b6117c8565b6040516107009190612cc0565b60405180910390f35b6000634906490660e01b7bffffffffffffffffffffffffffffffffffffffffffffffffffffffff1916827bffffffffffffffffffffffffffffffffffffffffffffffffffffffff1916148061076357506107628261185c565b5b9050919050565b606060008054610779906134da565b80601f01602080910402602001604051908101604052809291908181526020018280546107a5906134da565b80156107f25780601f106107c7576101008083540402835291602001916107f2565b820191906000526020600020905b8154815290600101906020018083116107d557829003601f168201915b5050505050905090565b60006108078261193e565b50610811826119c6565b9050919050565b61082a8282610825611a03565b611a0b565b5050565b600080600181111561084357610842613385565b5b600b600084815260200190815260200160002060060160009054906101000a900460ff16600181111561087957610878613385565b5b14801561089b575042600b600084815260200190815260200160002060050154115b9050919050565b600042600b60008481526020019081526020016000206005015411159050919050565b6000600860008154809291906108da9061353a565b9190505550600060085490506108f08382611a1d565b6108fa8185611a3b565b8273ffffffffffffffffffffffffffffffffffffffff167fe7cd4ce7f2a465edc730269a1305e8a48bad821e8fb7e152ec413829c01a53c48286604051610942929190613582565b60405180910390a28091505092915050565b61095c611a97565b6109658161082e565b156109a5576040517f08c379a000000000000000000000000000000000000000000000000000000000815260040161099c906135fe565b60405180910390fd5b6000600b600083815260200190815260200160002090506000600d600084815260200190815260200160002060009054906101000a900473ffffffffffffffffffffffffffffffffffffffff1690508160000160009054906101000a900473ffffffffffffffffffffffffffffffffffffffff1673ffffffffffffffffffffffffffffffffffffffff163373ffffffffffffffffffffffffffffffffffffffff161480610a7d57508073ffffffffffffffffffffffffffffffffffffffff163373ffffffffffffffffffffffffffffffffffffffff16145b610abc576040517f08c379a0000000000000000000000000000000000000000000000000000000008152600401610ab390613690565b60405180910390fd5b60008073ffffffffffffffffffffffffffffffffffffffff168273ffffffffffffffffffffffffffffffffffffffff1614610bdc57610b0030838560010154611add565b600c600085815260200190815260200160002060008373ffffffffffffffffffffffffffffffffffffffff1673ffffffffffffffffffffffffffffffffffffffff1681526020019081526020016000205490506000600c600086815260200190815260200160002060008473ffffffffffffffffffffffffffffffffffffffff1673ffffffffffffffffffffffffffffffffffffffff16815260200190815260200160002081905550610bd78360000160009054906101000a900473ffffffffffffffffffffffffffffffffffffffff1682611c4a565b610c10565b610c0f308460000160009054906101000a900473ffffffffffffffffffffffffffffffffffffffff168560010154611add565b5b60018360060160006101000a81548160ff02191690836001811115610c3857610c37613385565b5b02179055508173ffffffffffffffffffffffffffffffffffffffff168360000160009054906101000a900473ffffffffffffffffffffffffffffffffffffffff1673ffffffffffffffffffffffffffffffffffffffff167f7a59a6c36c8b7dc5080444722a7a194bf83837c893f984bcea8692e91551fc478684604051610cc09291906136b0565b60405180910390a3505050610cd3611d74565b50565b6000600854905090565b600073ffffffffffffffffffffffffffffffffffffffff168273ffffffffffffffffffffffffffffffffffffffff1603610d525760006040517f64a0ae92000000000000000000000000000000000000000000000000000000008152600401610d499190612e31565b60405180910390fd5b6000610d668383610d61611a03565b611d7e565b90508373ffffffffffffffffffffffffffffffffffffffff168173ffffffffffffffffffffffffffffffffffffffff1614610ddc578382826040517f64283d7b000000000000000000000000000000000000000000000000000000008152600401610dd3939291906136d9565b60405180910390fd5b50505050565b600c602052816000526040600020602052806000526040600020600091509150505481565b610e2283838360405180602001604052806000815250611485565b505050565b600d6020528060005260406000206000915054906101000a900473ffffffffffffffffffffffffffffffffffffffff1681565b610e62611a97565b610e6b8161082e565b610eaa576040517f08c379a0000000000000000000000000000000000000000000000000000000008152600401610ea19061375c565b60405180910390fd5b6000600b600083815260200190815260200160002090508060000160009054906101000a900473ffffffffffffffffffffffffffffffffffffffff1673ffffffffffffffffffffffffffffffffffffffff163373ffffffffffffffffffffffffffffffffffffffff1603610f53576040517f08c379a0000000000000000000000000000000000000000000000000000000008152600401610f4a906137c8565b60405180910390fd5b600034600c600085815260200190815260200160002060003373ffffffffffffffffffffffffffffffffffffffff1673ffffffffffffffffffffffffffffffffffffffff16815260200190815260200160002054610fb191906137e8565b905081600201548111610ff9576040517f08c379a0000000000000000000000000000000000000000000000000000000008152600401610ff09061388e565b60405180910390fd5b61100283611f98565b34600c600085815260200190815260200160002060003373ffffffffffffffffffffffffffffffffffffffff1673ffffffffffffffffffffffffffffffffffffffff168152602001908152602001600020600082825461106291906137e8565b9250508190555033600d600085815260200190815260200160002060006101000a81548173ffffffffffffffffffffffffffffffffffffffff021916908373ffffffffffffffffffffffffffffffffffffffff1602179055506000600a5483600201546110cf91906138dd565b90508083600201546110e191906137e8565b83600201819055503373ffffffffffffffffffffffffffffffffffffffff167f0bda7f7cf42011b27b057b83f3bf21f963b84eb591478e6b413b18d7872cd37a85846040516111319291906136b0565b60405180910390a2505050611144611d74565b50565b60006009600081548092919061115c9061353a565b91905055506000600954905060004290506000848261117b91906137e8565b90506040518060e001604052803373ffffffffffffffffffffffffffffffffffffffff168152602001878152602001888152602001888152602001838152602001828152602001600060018111156111d6576111d5613385565b5b815250600b600085815260200190815260200160002060008201518160000160006101000a81548173ffffffffffffffffffffffffffffffffffffffff021916908373ffffffffffffffffffffffffffffffffffffffff1602179055506020820151816001015560408201518160020155606082015181600301556080820151816004015560a0820151816005015560c08201518160060160006101000a81548160ff021916908360018111156112905761128f613385565b5b02179055509050506112a3333088611add565b3373ffffffffffffffffffffffffffffffffffffffff167e09646912aaa7019ad837e57cc5c0613299c8432f5268d4450ab8673fe0fa0384898986866040516112f095949392919061390e565b60405180910390a28293505050509392505050565b60006113108261193e565b9050919050565b60095481565b600a5481565b60008073ffffffffffffffffffffffffffffffffffffffff168273ffffffffffffffffffffffffffffffffffffffff16036113965760006040517f89c62b6400000000000000000000000000000000000000000000000000000000815260040161138d9190612e31565b60405180910390fd5b600360008373ffffffffffffffffffffffffffffffffffffffff1673ffffffffffffffffffffffffffffffffffffffff168152602001908152602001600020549050919050565b6060600180546113ec906134da565b80601f0160208091040260200160405190810160405280929190818152602001828054611418906134da565b80156114655780601f1061143a57610100808354040283529160200191611465565b820191906000526020600020905b81548152906001019060200180831161144857829003601f168201915b5050505050905090565b61148161147a611a03565b83836120da565b5050565b611490848484610ce0565b61149c84848484612249565b50505050565b60606114ad8261193e565b5060006006600084815260200190815260200160002080546114ce906134da565b80601f01602080910402602001604051908101604052809291908181526020018280546114fa906134da565b80156115475780601f1061151c57610100808354040283529160200191611547565b820191906000526020600020905b81548152906001019060200180831161152a57829003601f168201915b505050505090506000611558612400565b9050600081510361156d5781925050506115b0565b6000825111156115a257808260405160200161158a92919061399d565b604051602081830303815290604052925050506115b0565b6115ab84612417565b925050505b919050565b60085481565b60606000606060008060008060009050600080600190505b60095481116116185789600b600083815260200190815260200160002060010154036116055780925060019150611618565b80806116109061353a565b9150506115d3565b50611621612ba7565b811561172157600b60008481526020019081526020016000206040518060e00160405290816000820160009054906101000a900473ffffffffffffffffffffffffffffffffffffffff1673ffffffffffffffffffffffffffffffffffffffff1673ffffffffffffffffffffffffffffffffffffffff16815260200160018201548152602001600282015481526020016003820154815260200160048201548152602001600582015481526020016006820160009054906101000a900460ff1660018111156116f2576116f1613385565b5b600181111561170457611703613385565b5b8152505090506117138361082e565b95508060400151945061172a565b60009550600094505b61173261076a565b98508997506117408a6114a2565b965061174b8a611305565b935050505091939550919395565b600b6020528060005260406000206000915090508060000160009054906101000a900473ffffffffffffffffffffffffffffffffffffffff16908060010154908060020154908060030154908060040154908060050154908060060160009054906101000a900460ff16905087565b6000600560008473ffffffffffffffffffffffffffffffffffffffff1673ffffffffffffffffffffffffffffffffffffffff16815260200190815260200160002060008373ffffffffffffffffffffffffffffffffffffffff1673ffffffffffffffffffffffffffffffffffffffff16815260200190815260200160002060009054906101000a900460ff16905092915050565b60007f80ac58cd000000000000000000000000000000000000000000000000000000007bffffffffffffffffffffffffffffffffffffffffffffffffffffffff1916827bffffffffffffffffffffffffffffffffffffffffffffffffffffffff1916148061192757507f5b5e139f000000000000000000000000000000000000000000000000000000007bffffffffffffffffffffffffffffffffffffffffffffffffffffffff1916827bffffffffffffffffffffffffffffffffffffffffffffffffffffffff1916145b80611937575061193682612480565b5b9050919050565b60008061194a836124ea565b9050600073ffffffffffffffffffffffffffffffffffffffff168173ffffffffffffffffffffffffffffffffffffffff16036119bd57826040517f7e2732890000000000000000000000000000000000000000000000000000000081526004016119b49190613058565b60405180910390fd5b80915050919050565b60006004600083815260200190815260200160002060009054906101000a900473ffffffffffffffffffffffffffffffffffffffff169050919050565b600033905090565b611a188383836001612527565b505050565b611a378282604051806020016040528060008152506126ec565b5050565b80600660008481526020019081526020016000209081611a5b9190613b6d565b507ff8e1a15aba9398e019f0b49df1a4fde98ee17ae345cb5f6b5e2c27f5033e8ce782604051611a8b9190613058565b60405180910390a15050565b600260075403611ad3576040517f3ee5aeb500000000000000000000000000000000000000000000000000000000815260040160405180910390fd5b6002600781905550565b600073ffffffffffffffffffffffffffffffffffffffff168273ffffffffffffffffffffffffffffffffffffffff1603611b4f5760006040517f64a0ae92000000000000000000000000000000000000000000000000000000008152600401611b469190612e31565b60405180910390fd5b6000611b5d83836000611d7e565b9050600073ffffffffffffffffffffffffffffffffffffffff168173ffffffffffffffffffffffffffffffffffffffff1603611bd057816040517f7e273289000000000000000000000000000000000000000000000000000000008152600401611bc79190613058565b60405180910390fd5b8373ffffffffffffffffffffffffffffffffffffffff168173ffffffffffffffffffffffffffffffffffffffff1614611c44578382826040517f64283d7b000000000000000000000000000000000000000000000000000000008152600401611c3b939291906136d9565b60405180910390fd5b50505050565b6000810315611d7057600073ffffffffffffffffffffffffffffffffffffffff168273ffffffffffffffffffffffffffffffffffffffff1603611cc2576040517f08c379a0000000000000000000000000000000000000000000000000000000008152600401611cb990613cb1565b60405180910390fd5b60008273ffffffffffffffffffffffffffffffffffffffff1682604051611ce890613d02565b60006040518083038185875af1925050503d8060008114611d25576040519150601f19603f3d011682016040523d82523d6000602084013e611d2a565b606091505b5050905080611d6e576040517f08c379a0000000000000000000000000000000000000000000000000000000008152600401611d6590613d63565b60405180910390fd5b505b5050565b6001600781905550565b600080611d8a846124ea565b9050600073ffffffffffffffffffffffffffffffffffffffff168373ffffffffffffffffffffffffffffffffffffffff1614611dcc57611dcb818486612708565b5b600073ffffffffffffffffffffffffffffffffffffffff168173ffffffffffffffffffffffffffffffffffffffff1614611e5d57611e0e600085600080612527565b6001600360008373ffffffffffffffffffffffffffffffffffffffff1673ffffffffffffffffffffffffffffffffffffffff168152602001908152602001600020600082825403925050819055505b600073ffffffffffffffffffffffffffffffffffffffff168573ffffffffffffffffffffffffffffffffffffffff1614611ee0576001600360008773ffffffffffffffffffffffffffffffffffffffff1673ffffffffffffffffffffffffffffffffffffffff168152602001908152602001600020600082825401925050819055505b846002600086815260200190815260200160002060006101000a81548173ffffffffffffffffffffffffffffffffffffffff021916908373ffffffffffffffffffffffffffffffffffffffff160217905550838573ffffffffffffffffffffffffffffffffffffffff168273ffffffffffffffffffffffffffffffffffffffff167fddf252ad1be2c89b69c2b068fc378daa952ba7f163c4a11628f55a4df523b3ef60405160405180910390a4809150509392505050565b6000600d600083815260200190815260200160002060009054906101000a900473ffffffffffffffffffffffffffffffffffffffff1690506000600c600084815260200190815260200160002060008373ffffffffffffffffffffffffffffffffffffffff1673ffffffffffffffffffffffffffffffffffffffff1681526020019081526020016000205490506000600c600085815260200190815260200160002060008473ffffffffffffffffffffffffffffffffffffffff1673ffffffffffffffffffffffffffffffffffffffff168152602001908152602001600020819055506120858282611c4a565b8173ffffffffffffffffffffffffffffffffffffffff167f5eec25485ddf1aad4b5c89eda65e6053949901bfb1fe6f4c553e9c208b5bd5f884836040516120cd9291906136b0565b60405180910390a2505050565b600073ffffffffffffffffffffffffffffffffffffffff168273ffffffffffffffffffffffffffffffffffffffff160361214b57816040517f5b08ba180000000000000000000000000000000000000000000000000000000081526004016121429190612e31565b60405180910390fd5b80600560008573ffffffffffffffffffffffffffffffffffffffff1673ffffffffffffffffffffffffffffffffffffffff16815260200190815260200160002060008473ffffffffffffffffffffffffffffffffffffffff1673ffffffffffffffffffffffffffffffffffffffff16815260200190815260200160002060006101000a81548160ff0219169083151502179055508173ffffffffffffffffffffffffffffffffffffffff168373ffffffffffffffffffffffffffffffffffffffff167f17307eab39ab6107e8899845ad3d59bd9653f200f220920489ca2b5937696c318360405161223c9190612cc0565b60405180910390a3505050565b60008373ffffffffffffffffffffffffffffffffffffffff163b11156123fa578273ffffffffffffffffffffffffffffffffffffffff1663150b7a0261228d611a03565b8685856040518563ffffffff1660e01b81526004016122af9493929190613dd8565b6020604051808303816000875af19250505080156122eb57506040513d601f19601f820116820180604052508101906122e89190613e39565b60015b61236f573d806000811461231b576040519150601f19603f3d011682016040523d82523d6000602084013e612320565b606091505b50600081510361236757836040517f64a0ae9200000000000000000000000000000000000000000000000000000000815260040161235e9190612e31565b60405180910390fd5b805181602001fd5b63150b7a0260e01b7bffffffffffffffffffffffffffffffffffffffffffffffffffffffff1916817bffffffffffffffffffffffffffffffffffffffffffffffffffffffff1916146123f857836040517f64a0ae920000000000000000000000000000000000000000000000000000000081526004016123ef9190612e31565b60405180910390fd5b505b50505050565b606060405180602001604052806000815250905090565b60606124228261193e565b50600061242d612400565b9050600081511161244d5760405180602001604052806000815250612478565b80612457846127cc565b60405160200161246892919061399d565b6040516020818303038152906040525b915050919050565b60007f01ffc9a7000000000000000000000000000000000000000000000000000000007bffffffffffffffffffffffffffffffffffffffffffffffffffffffff1916827bffffffffffffffffffffffffffffffffffffffffffffffffffffffff1916149050919050565b60006002600083815260200190815260200160002060009054906101000a900473ffffffffffffffffffffffffffffffffffffffff169050919050565b80806125605750600073ffffffffffffffffffffffffffffffffffffffff168273ffffffffffffffffffffffffffffffffffffffff1614155b156126945760006125708461193e565b9050600073ffffffffffffffffffffffffffffffffffffffff168373ffffffffffffffffffffffffffffffffffffffff16141580156125db57508273ffffffffffffffffffffffffffffffffffffffff168173ffffffffffffffffffffffffffffffffffffffff1614155b80156125ee57506125ec81846117c8565b155b1561263057826040517fa9fbf51f0000000000000000000000000000000000000000000000000000000081526004016126279190612e31565b60405180910390fd5b811561269257838573ffffffffffffffffffffffffffffffffffffffff168273ffffffffffffffffffffffffffffffffffffffff167f8c5be1e5ebec7d5bd14f71427d1e84f3dd0314c0f7b2291e5b200ac8c7c3b92560405160405180910390a45b505b836004600085815260200190815260200160002060006101000a81548173ffffffffffffffffffffffffffffffffffffffff021916908373ffffffffffffffffffffffffffffffffffffffff16021790555050505050565b6126f6838361289a565b6127036000848484612249565b505050565b612713838383612993565b6127c757600073ffffffffffffffffffffffffffffffffffffffff168373ffffffffffffffffffffffffffffffffffffffff160361278857806040517f7e27328900000000000000000000000000000000000000000000000000000000815260040161277f9190613058565b60405180910390fd5b81816040517f177e802f0000000000000000000000000000000000000000000000000000000081526004016127be929190613e66565b60405180910390fd5b505050565b6060600060016127db84612a54565b01905060008167ffffffffffffffff8111156127fa576127f9612ec2565b5b6040519080825280601f01601f19166020018201604052801561282c5781602001600182028036833780820191505090505b509050600082602001820190505b60011561288f578080600190039150507f3031323334353637383961626364656600000000000000000000000000000000600a86061a8153600a8581612883576128826138ae565b5b0494506000850361283a575b819350505050919050565b600073ffffffffffffffffffffffffffffffffffffffff168273ffffffffffffffffffffffffffffffffffffffff160361290c5760006040517f64a0ae920000000000000000000000000000000000000000000000000000000081526004016129039190612e31565b60405180910390fd5b600061291a83836000611d7e565b9050600073ffffffffffffffffffffffffffffffffffffffff168173ffffffffffffffffffffffffffffffffffffffff161461298e5760006040517f73c6ac6e0000000000000000000000000000000000000000000000000000000081526004016129859190612e31565b60405180910390fd5b505050565b60008073ffffffffffffffffffffffffffffffffffffffff168373ffffffffffffffffffffffffffffffffffffffff1614158015612a4b57508273ffffffffffffffffffffffffffffffffffffffff168473ffffffffffffffffffffffffffffffffffffffff161480612a0c5750612a0b84846117c8565b5b80612a4a57508273ffffffffffffffffffffffffffffffffffffffff16612a32836119c6565b73ffffffffffffffffffffffffffffffffffffffff16145b5b90509392505050565b600080600090507a184f03e93ff9f4daa797ed6e38ed64bf6a1f0100000000000000008310612ab2577a184f03e93ff9f4daa797ed6e38ed64bf6a1f0100000000000000008381612aa857612aa76138ae565b5b0492506040810190505b6d04ee2d6d415b85acef81000000008310612aef576d04ee2d6d415b85acef81000000008381612ae557612ae46138ae565b5b0492506020810190505b662386f26fc100008310612b1e57662386f26fc100008381612b1457612b136138ae565b5b0492506010810190505b6305f5e1008310612b47576305f5e1008381612b3d57612b3c6138ae565b5b0492506008810190505b6127108310612b6c576127108381612b6257612b616138ae565b5b0492506004810190505b60648310612b8f5760648381612b8557612b846138ae565b5b0492506002810190505b600a8310612b9e576001810190505b80915050919050565b6040518060e00160405280600073ffffffffffffffffffffffffffffffffffffffff168152602001600081526020016000815260200160008152602001600081526020016000815260200160006001811115612c0657612c05613385565b5b81525090565b6000604051905090565b600080fd5b600080fd5b60007fffffffff0000000000000000000000000000000000000000000000000000000082169050919050565b612c5581612c20565b8114612c6057600080fd5b50565b600081359050612c7281612c4c565b92915050565b600060208284031215612c8e57612c8d612c16565b5b6000612c9c84828501612c63565b91505092915050565b60008115159050919050565b612cba81612ca5565b82525050565b6000602082019050612cd56000830184612cb1565b92915050565b600081519050919050565b600082825260208201905092915050565b60005b83811015612d15578082015181840152602081019050612cfa565b60008484015250505050565b6000601f19601f8301169050919050565b6000612d3d82612cdb565b612d478185612ce6565b9350612d57818560208601612cf7565b612d6081612d21565b840191505092915050565b60006020820190508181036000830152612d858184612d32565b905092915050565b6000819050919050565b612da081612d8d565b8114612dab57600080fd5b50565b600081359050612dbd81612d97565b92915050565b600060208284031215612dd957612dd8612c16565b5b6000612de784828501612dae565b91505092915050565b600073ffffffffffffffffffffffffffffffffffffffff82169050919050565b6000612e1b82612df0565b9050919050565b612e2b81612e10565b82525050565b6000602082019050612e466000830184612e22565b92915050565b612e5581612e10565b8114612e6057600080fd5b50565b600081359050612e7281612e4c565b92915050565b60008060408385031215612e8f57612e8e612c16565b5b6000612e9d85828601612e63565b9250506020612eae85828601612dae565b9150509250929050565b600080fd5b600080fd5b7f4e487b7100000000000000000000000000000000000000000000000000000000600052604160045260246000fd5b612efa82612d21565b810181811067ffffffffffffffff82111715612f1957612f18612ec2565b5b80604052505050565b6000612f2c612c0c565b9050612f388282612ef1565b919050565b600067ffffffffffffffff821115612f5857612f57612ec2565b5b612f6182612d21565b9050602081019050919050565b82818337600083830152505050565b6000612f90612f8b84612f3d565b612f22565b905082815260208101848484011115612fac57612fab612ebd565b5b612fb7848285612f6e565b509392505050565b600082601f830112612fd457612fd3612eb8565b5b8135612fe4848260208601612f7d565b91505092915050565b6000806040838503121561300457613003612c16565b5b600083013567ffffffffffffffff81111561302257613021612c1b565b5b61302e85828601612fbf565b925050602061303f85828601612e63565b9150509250929050565b61305281612d8d565b82525050565b600060208201905061306d6000830184613049565b92915050565b60008060006060848603121561308c5761308b612c16565b5b600061309a86828701612e63565b93505060206130ab86828701612e63565b92505060406130bc86828701612dae565b9150509250925092565b600080604083850312156130dd576130dc612c16565b5b60006130eb85828601612dae565b92505060206130fc85828601612e63565b9150509250929050565b60008060006060848603121561311f5761311e612c16565b5b600061312d86828701612dae565b935050602061313e86828701612dae565b925050604061314f86828701612dae565b9150509250925092565b60006020828403121561316f5761316e612c16565b5b600061317d84828501612e63565b91505092915050565b61318f81612ca5565b811461319a57600080fd5b50565b6000813590506131ac81613186565b92915050565b600080604083850312156131c9576131c8612c16565b5b60006131d785828601612e63565b92505060206131e88582860161319d565b9150509250929050565b600067ffffffffffffffff82111561320d5761320c612ec2565b5b61321682612d21565b9050602081019050919050565b6000613236613231846131f2565b612f22565b90508281526020810184848401111561325257613251612ebd565b5b61325d848285612f6e565b509392505050565b600082601f83011261327a57613279612eb8565b5b813561328a848260208601613223565b91505092915050565b600080600080608085870312156132ad576132ac612c16565b5b60006132bb87828801612e63565b94505060206132cc87828801612e63565b93505060406132dd87828801612dae565b925050606085013567ffffffffffffffff8111156132fe576132fd612c1b565b5b61330a87828801613265565b91505092959194509250565b600060c08201905081810360008301526133308189612d32565b905061333f6020830188613049565b81810360408301526133518187612d32565b90506133606060830186612cb1565b61336d6080830185613049565b61337a60a0830184612e22565b979650505050505050565b7f4e487b7100000000000000000000000000000000000000000000000000000000600052602160045260246000fd5b600281106133c5576133c4613385565b5b50565b60008190506133d6826133b4565b919050565b60006133e6826133c8565b9050919050565b6133f6816133db565b82525050565b600060e082019050613411600083018a612e22565b61341e6020830189613049565b61342b6040830188613049565b6134386060830187613049565b6134456080830186613049565b61345260a0830185613049565b61345f60c08301846133ed565b98975050505050505050565b6000806040838503121561348257613481612c16565b5b600061349085828601612e63565b92505060206134a185828601612e63565b9150509250929050565b7f4e487b7100000000000000000000000000000000000000000000000000000000600052602260045260246000fd5b600060028204905060018216806134f257607f821691505b602082108103613505576135046134ab565b5b50919050565b7f4e487b7100000000000000000000000000000000000000000000000000000000600052601160045260246000fd5b600061354582612d8d565b91507fffffffffffffffffffffffffffffffffffffffffffffffffffffffffffffffff82036135775761357661350b565b5b600182019050919050565b60006040820190506135976000830185613049565b81810360208301526135a98184612d32565b90509392505050565b7f61756374696f6e206973207374696c6c206f70656e0000000000000000000000600082015250565b60006135e8601583612ce6565b91506135f3826135b2565b602082019050919050565b60006020820190508181036000830152613617816135db565b9050919050565b7f6f6e6c792073656c6c6572206f722077696e6e65722063616e20636f6d706c6560008201527f74652061756374696f6e00000000000000000000000000000000000000000000602082015250565b600061367a602a83612ce6565b91506136858261361e565b604082019050919050565b600060208201905081810360008301526136a98161366d565b9050919050565b60006040820190506136c56000830185613049565b6136d26020830184613049565b9392505050565b60006060820190506136ee6000830186612e22565b6136fb6020830185613049565b6137086040830184612e22565b949350505050565b7f61756374696f6e2068617320656e646564000000000000000000000000000000600082015250565b6000613746601183612ce6565b915061375182613710565b602082019050919050565b6000602082019050818103600083015261377581613739565b9050919050565b7f63616e6e6f7420626964206f6e207768617420796f75206f776e000000000000600082015250565b60006137b2601a83612ce6565b91506137bd8261377c565b602082019050919050565b600060208201905081810360008301526137e1816137a5565b9050919050565b60006137f382612d8d565b91506137fe83612d8d565b92508282019050808211156138165761381561350b565b5b92915050565b7f63616e6e6f74206269642062656c6f7720746865206c6174657374206269646460008201527f696e672070726963650000000000000000000000000000000000000000000000602082015250565b6000613878602983612ce6565b91506138838261381c565b604082019050919050565b600060208201905081810360008301526138a78161386b565b9050919050565b7f4e487b7100000000000000000000000000000000000000000000000000000000600052601260045260246000fd5b60006138e882612d8d565b91506138f383612d8d565b925082613903576139026138ae565b5b828204905092915050565b600060a0820190506139236000830188613049565b6139306020830187613049565b61393d6040830186613049565b61394a6060830185613049565b6139576080830184613049565b9695505050505050565b600081905092915050565b600061397782612cdb565b6139818185613961565b9350613991818560208601612cf7565b80840191505092915050565b60006139a9828561396c565b91506139b5828461396c565b91508190509392505050565b60008190508160005260206000209050919050565b60006020601f8301049050919050565b600082821b905092915050565b600060088302613a237fffffffffffffffffffffffffffffffffffffffffffffffffffffffffffffffff826139e6565b613a2d86836139e6565b95508019841693508086168417925050509392505050565b6000819050919050565b6000613a6a613a65613a6084612d8d565b613a45565b612d8d565b9050919050565b6000819050919050565b613a8483613a4f565b613a98613a9082613a71565b8484546139f3565b825550505050565b600090565b613aad613aa0565b613ab8818484613a7b565b505050565b5b81811015613adc57613ad1600082613aa5565b600181019050613abe565b5050565b601f821115613b2157613af2816139c1565b613afb846139d6565b81016020851015613b0a578190505b613b1e613b16856139d6565b830182613abd565b50505b505050565b600082821c905092915050565b6000613b4460001984600802613b26565b1980831691505092915050565b6000613b5d8383613b33565b9150826002028217905092915050565b613b7682612cdb565b67ffffffffffffffff811115613b8f57613b8e612ec2565b5b613b9982546134da565b613ba4828285613ae0565b600060209050601f831160018114613bd75760008415613bc5578287015190505b613bcf8582613b51565b865550613c37565b601f198416613be5866139c1565b60005b82811015613c0d57848901518255600182019150602085019450602081019050613be8565b86831015613c2a5784890151613c26601f891682613b33565b8355505b6001600288020188555050505b505050505050565b7f4572726f722c2063616e6e6f74207472616e7366657220746f2061646472657360008201527f7328302900000000000000000000000000000000000000000000000000000000602082015250565b6000613c9b602483612ce6565b9150613ca682613c3f565b604082019050919050565b60006020820190508181036000830152613cca81613c8e565b9050919050565b600081905092915050565b50565b6000613cec600083613cd1565b9150613cf782613cdc565b600082019050919050565b6000613d0d82613cdf565b9150819050919050565b7f4572726f722c206661696c656420746f2073656e642045746865720000000000600082015250565b6000613d4d601b83612ce6565b9150613d5882613d17565b602082019050919050565b60006020820190508181036000830152613d7c81613d40565b9050919050565b600081519050919050565b600082825260208201905092915050565b6000613daa82613d83565b613db48185613d8e565b9350613dc4818560208601612cf7565b613dcd81612d21565b840191505092915050565b6000608082019050613ded6000830187612e22565b613dfa6020830186612e22565b613e076040830185613049565b8181036060830152613e198184613d9f565b905095945050505050565b600081519050613e3381612c4c565b92915050565b600060208284031215613e4f57613e4e612c16565b5b6000613e5d84828501613e24565b91505092915050565b6000604082019050613e7b6000830185612e22565b613e886020830184613049565b939250505056fea2646970667358221220d8f081dc47f1d1799939058f976b326170a4861a9ce6365fba7cd986fa22f93f64736f6c63430008140033",
  "linkReferences": {},
  "deployedLinkReferences": {}
}