{
  "_format": "hh-sol-artifact-1",
  "contractName": "NftSaleable",
  "sourceName": "contracts/NftSaleable.sol",
  "abi": [
    {
      "inputs": [],
      "stateMutability": "nonpayable",
      "type": "constructor"
    },
    {
      "inputs": [
        {
          "internalType": "address",
          "name": "sender",
          "type": "address"
        },
        {
          "internalType": "uint256",
          "name": "tokenId",
          "type": "uint256"
        },
        {
          "internalType": "address",
          "name": "owner",
          "type": "address"
        }
      ],
      "name": "ERC721IncorrectOwner",
      "type": "error"
    },
    {
      "inputs": [
        {
          "internalType": "address",
          "name": "operator",
          "type": "address"
        },
        {
          "internalType": "uint256",
          "name": "tokenId",
          "type": "uint256"
        }
      ],
      "name": "ERC721InsufficientApproval",
      "type": "error"
    },
    {
      "inputs": [
        {
          "internalType": "address",
          "name": "approver",
          "type": "address"
        }
      ],
      "name": "ERC721InvalidApprover",
      "type": "error"
    },
    {
      "inputs": [
        {
          "internalType": "address",
          "name": "operator",
          "type": "address"
        }
      ],
      "name": "ERC721InvalidOperator",
      "type": "error"
    },
    {
      "inputs": [
        {
          "internalType": "address",
          "name": "owner",
          "type": "address"
        }
      ],
      "name": "ERC721InvalidOwner",
      "type": "error"
    },
    {
      "inputs": [
        {
          "internalType": "address",
          "name": "receiver",
          "type": "address"
        }
      ],
      "name": "ERC721InvalidReceiver",
      "type": "error"
    },
    {
      "inputs": [
        {
          "internalType": "address",
          "name": "sender",
          "type": "address"
        }
      ],
      "name": "ERC721InvalidSender",
      "type": "error"
    },
    {
      "inputs": [
        {
          "internalType": "uint256",
          "name": "tokenId",
          "type": "uint256"
        }
      ],
      "name": "ERC721NonexistentToken",
      "type": "error"
    },
    {
      "inputs": [],
      "name": "ReentrancyGuardReentrantCall",
      "type": "error"
    },
    {
      "anonymous": false,
      "inputs": [
        {
          "indexed": true,
          "internalType": "address",
          "name": "owner",
          "type": "address"
        },
        {
          "indexed": true,
          "internalType": "address",
          "name": "approved",
          "type": "address"
        },
        {
          "indexed": true,
          "internalType": "uint256",
          "name": "tokenId",
          "type": "uint256"
        }
      ],
      "name": "Approval",
      "type": "event"
    },
    {
      "anonymous": false,
      "inputs": [
        {
          "indexed": true,
          "internalType": "address",
          "name": "owner",
          "type": "address"
        },
        {
          "indexed": true,
          "internalType": "address",
          "name": "operator",
          "type": "address"
        },
        {
          "indexed": false,
          "internalType": "bool",
          "name": "approved",
          "type": "bool"
        }
      ],
      "name": "ApprovalForAll",
      "type": "event"
    },
    {
      "anonymous": false,
      "inputs": [
        {
          "indexed": false,
          "internalType": "uint256",
          "name": "listingId",
          "type": "uint256"
        },
        {
          "indexed": true,
          "internalType": "address",
          "name": "seller",
          "type": "address"
        },
        {
          "indexed": true,
          "internalType": "address",
          "name": "bidder",
          "type": "address"
        },
        {
          "indexed": false,
          "internalType": "uint256",
          "name": "bid",
          "type": "uint256"
        }
      ],
      "name": "AuctionCompleted",
      "type": "event"
    },
    {
      "anonymous": false,
      "inputs": [
        {
          "indexed": false,
          "internalType": "uint256",
          "name": "listingId",
          "type": "uint256"
        },
        {
          "indexed": true,
          "internalType": "address",
          "name": "seller",
          "type": "address"
        },
        {
          "indexed": false,
          "internalType": "uint256",
          "name": "price",
          "type": "uint256"
        },
        {
          "indexed": false,
          "internalType": "uint256",
          "name": "tokenId",
          "type": "uint256"
        },
        {
          "indexed": false,
          "internalType": "uint256",
          "name": "startAt",
          "type": "uint256"
        },
        {
          "indexed": false,
          "internalType": "uint256",
          "name": "endAt",
          "type": "uint256"
        }
      ],
      "name": "AuctionCreated",
      "type": "event"
    },
    {
      "anonymous": false,
      "inputs": [
        {
          "indexed": false,
          "internalType": "uint256",
          "name": "_fromTokenId",
          "type": "uint256"
        },
        {
          "indexed": false,
          "internalType": "uint256",
          "name": "_toTokenId",
          "type": "uint256"
        }
      ],
      "name": "BatchMetadataUpdate",
      "type": "event"
    },
    {
      "anonymous": false,
      "inputs": [
        {
          "indexed": false,
          "internalType": "uint256",
          "name": "listingId",
          "type": "uint256"
        },
        {
          "indexed": true,
          "internalType": "address",
          "name": "bidder",
          "type": "address"
        },
        {
          "indexed": false,
          "internalType": "uint256",
          "name": "bid",
          "type": "uint256"
        }
      ],
      "name": "BidCreated",
      "type": "event"
    },
    {
      "anonymous": false,
      "inputs": [
        {
          "indexed": false,
          "internalType": "uint256",
          "name": "_tokenId",
          "type": "uint256"
        }
      ],
      "name": "MetadataUpdate",
      "type": "event"
    },
    {
      "anonymous": false,
      "inputs": [
        {
          "indexed": true,
          "internalType": "address",
          "name": "minter",
          "type": "address"
        },
        {
          "indexed": false,
          "internalType": "uint256",
          "name": "nftID",
          "type": "uint256"
        },
        {
          "indexed": false,
          "internalType": "string",
          "name": "uri",
          "type": "string"
        }
      ],
      "name": "Minted",
      "type": "event"
    },
    {
      "anonymous": false,
      "inputs": [
        {
          "indexed": true,
          "internalType": "address",
          "name": "from",
          "type": "address"
        },
        {
          "indexed": true,
          "internalType": "address",
          "name": "to",
          "type": "address"
        },
        {
          "indexed": true,
          "internalType": "uint256",
          "name": "tokenId",
          "type": "uint256"
        }
      ],
      "name": "Transfer",
      "type": "event"
    },
    {
      "anonymous": false,
      "inputs": [
        {
          "indexed": false,
          "internalType": "uint256",
          "name": "listingId",
          "type": "uint256"
        },
        {
          "indexed": true,
          "internalType": "address",
          "name": "bidder",
          "type": "address"
        },
        {
          "indexed": false,
          "internalType": "uint256",
          "name": "bid",
          "type": "uint256"
        }
      ],
      "name": "WithdrawBid",
      "type": "event"
    },
    {
      "inputs": [
        {
          "internalType": "address",
          "name": "to",
          "type": "address"
        },
        {
          "internalType": "uint256",
          "name": "tokenId",
          "type": "uint256"
        }
      ],
      "name": "approve",
      "outputs": [],
      "stateMutability": "nonpayable",
      "type": "function"
    },
    {
      "inputs": [
        {
          "internalType": "address",
          "name": "owner",
          "type": "address"
        }
      ],
      "name": "balanceOf",
      "outputs": [
        {
          "internalType": "uint256",
          "name": "",
          "type": "uint256"
        }
      ],
      "stateMutability": "view",
      "type": "function"
    },
    {
      "inputs": [
        {
          "internalType": "uint256",
          "name": "listingId",
          "type": "uint256"
        }
      ],
      "name": "bid",
      "outputs": [],
      "stateMutability": "payable",
      "type": "function"
    },
    {
      "inputs": [
        {
          "internalType": "uint256",
          "name": "",
          "type": "uint256"
        },
        {
          "internalType": "address",
          "name": "",
          "type": "address"
        }
      ],
      "name": "bids",
      "outputs": [
        {
          "internalType": "uint256",
          "name": "",
          "type": "uint256"
        }
      ],
      "stateMutability": "view",
      "type": "function"
    },
    {
      "inputs": [
        {
          "internalType": "uint256",
          "name": "listingId",
          "type": "uint256"
        }
      ],
      "name": "completeAuction",
      "outputs": [],
      "stateMutability": "payable",
      "type": "function"
    },
    {
      "inputs": [
        {
          "internalType": "uint256",
          "name": "price",
          "type": "uint256"
        },
        {
          "internalType": "uint256",
          "name": "tokenId",
          "type": "uint256"
        },
        {
          "internalType": "uint256",
          "name": "durationInSeconds",
          "type": "uint256"
        }
      ],
      "name": "createAuctionListing",
      "outputs": [
        {
          "internalType": "uint256",
          "name": "",
          "type": "uint256"
        }
      ],
      "stateMutability": "nonpayable",
      "type": "function"
    },
    {
      "inputs": [
        {
          "internalType": "uint256",
          "name": "tokenId",
          "type": "uint256"
        }
      ],
      "name": "getActiveAuctionsForToken",
      "outputs": [
        {
          "components": [
            {
              "internalType": "address",
              "name": "seller",
              "type": "address"
            },
            {
              "internalType": "uint256",
              "name": "tokenId",
              "type": "uint256"
            },
            {
              "internalType": "uint256",
              "name": "price",
              "type": "uint256"
            },
            {
              "internalType": "uint256",
              "name": "netPrice",
              "type": "uint256"
            },
            {
              "internalType": "uint256",
              "name": "startAt",
              "type": "uint256"
            },
            {
              "internalType": "uint256",
              "name": "endAt",
              "type": "uint256"
            },
            {
              "internalType": "enum NftSaleable.AuctionStatus",
              "name": "status",
              "type": "uint8"
            }
          ],
          "internalType": "struct NftSaleable.Listing[]",
          "name": "",
          "type": "tuple[]"
        }
      ],
      "stateMutability": "view",
      "type": "function"
    },
    {
      "inputs": [
        {
          "internalType": "uint256",
          "name": "tokenId",
          "type": "uint256"
        }
      ],
      "name": "getApproved",
      "outputs": [
        {
          "internalType": "address",
          "name": "",
          "type": "address"
        }
      ],
      "stateMutability": "view",
      "type": "function"
    },
    {
      "inputs": [
        {
          "internalType": "uint256",
          "name": "tokenId",
          "type": "uint256"
        }
      ],
      "name": "getExpiredAuctionsForToken",
      "outputs": [
        {
          "components": [
            {
              "internalType": "address",
              "name": "seller",
              "type": "address"
            },
            {
              "internalType": "uint256",
              "name": "tokenId",
              "type": "uint256"
            },
            {
              "internalType": "uint256",
              "name": "price",
              "type": "uint256"
            },
            {
              "internalType": "uint256",
              "name": "netPrice",
              "type": "uint256"
            },
            {
              "internalType": "uint256",
              "name": "startAt",
              "type": "uint256"
            },
            {
              "internalType": "uint256",
              "name": "endAt",
              "type": "uint256"
            },
            {
              "internalType": "enum NftSaleable.AuctionStatus",
              "name": "status",
              "type": "uint8"
            }
          ],
          "internalType": "struct NftSaleable.Listing[]",
          "name": "",
          "type": "tuple[]"
        }
      ],
      "stateMutability": "view",
      "type": "function"
    },
    {
      "inputs": [],
      "name": "getHowManyMinted",
      "outputs": [
        {
          "internalType": "uint256",
          "name": "length",
          "type": "uint256"
        }
      ],
      "stateMutability": "view",
      "type": "function"
    },
    {
      "inputs": [
        {
          "internalType": "uint256",
          "name": "tokenId",
          "type": "uint256"
        }
      ],
      "name": "getNFTInfo",
      "outputs": [
        {
          "internalType": "string",
          "name": "name_",
          "type": "string"
        },
        {
          "internalType": "uint256",
          "name": "tokenId_",
          "type": "uint256"
        },
        {
          "internalType": "string",
          "name": "tokenURI_",
          "type": "string"
        },
        {
          "internalType": "bool",
          "name": "isAuction_",
          "type": "bool"
        },
        {
          "internalType": "uint256",
          "name": "price_",
          "type": "uint256"
        },
        {
          "internalType": "address",
          "name": "owner_",
          "type": "address"
        }
      ],
      "stateMutability": "view",
      "type": "function"
    },
    {
      "inputs": [
        {
          "internalType": "uint256",
          "name": "",
          "type": "uint256"
        }
      ],
      "name": "highestBidder",
      "outputs": [
        {
          "internalType": "address",
          "name": "",
          "type": "address"
        }
      ],
      "stateMutability": "view",
      "type": "function"
    },
    {
      "inputs": [
        {
          "internalType": "address",
          "name": "owner",
          "type": "address"
        },
        {
          "internalType": "address",
          "name": "operator",
          "type": "address"
        }
      ],
      "name": "isApprovedForAll",
      "outputs": [
        {
          "internalType": "bool",
          "name": "",
          "type": "bool"
        }
      ],
      "stateMutability": "view",
      "type": "function"
    },
    {
      "inputs": [
        {
          "internalType": "uint256",
          "name": "id",
          "type": "uint256"
        }
      ],
      "name": "isAuctionExpired",
      "outputs": [
        {
          "internalType": "bool",
          "name": "",
          "type": "bool"
        }
      ],
      "stateMutability": "view",
      "type": "function"
    },
    {
      "inputs": [
        {
          "internalType": "uint256",
          "name": "id",
          "type": "uint256"
        }
      ],
      "name": "isAuctionOpen",
      "outputs": [
        {
          "internalType": "bool",
          "name": "",
          "type": "bool"
        }
      ],
      "stateMutability": "view",
      "type": "function"
    },
    {
      "inputs": [],
      "name": "listingCounter",
      "outputs": [
        {
          "internalType": "uint256",
          "name": "",
          "type": "uint256"
        }
      ],
      "stateMutability": "view",
      "type": "function"
    },
    {
      "inputs": [
        {
          "internalType": "uint256",
          "name": "",
          "type": "uint256"
        }
      ],
      "name": "listings",
      "outputs": [
        {
          "internalType": "address",
          "name": "seller",
          "type": "address"
        },
        {
          "internalType": "uint256",
          "name": "tokenId",
          "type": "uint256"
        },
        {
          "internalType": "uint256",
          "name": "price",
          "type": "uint256"
        },
        {
          "internalType": "uint256",
          "name": "netPrice",
          "type": "uint256"
        },
        {
          "internalType": "uint256",
          "name": "startAt",
          "type": "uint256"
        },
        {
          "internalType": "uint256",
          "name": "endAt",
          "type": "uint256"
        },
        {
          "internalType": "enum NftSaleable.AuctionStatus",
          "name": "status",
          "type": "uint8"
        }
      ],
      "stateMutability": "view",
      "type": "function"
    },
    {
      "inputs": [],
      "name": "minAuctionIncrement",
      "outputs": [
        {
          "internalType": "uint256",
          "name": "",
          "type": "uint256"
        }
      ],
      "stateMutability": "view",
      "type": "function"
    },
    {
      "inputs": [
        {
          "internalType": "string",
          "name": "tokenURI",
          "type": "string"
        },
        {
          "internalType": "address",
          "name": "minterAddress",
          "type": "address"
        }
      ],
      "name": "mint",
      "outputs": [
        {
          "internalType": "uint256",
          "name": "",
          "type": "uint256"
        }
      ],
      "stateMutability": "nonpayable",
      "type": "function"
    },
    {
      "inputs": [],
      "name": "name",
      "outputs": [
        {
          "internalType": "string",
          "name": "",
          "type": "string"
        }
      ],
      "stateMutability": "view",
      "type": "function"
    },
    {
      "inputs": [
        {
          "internalType": "uint256",
          "name": "tokenId",
          "type": "uint256"
        }
      ],
      "name": "ownerOf",
      "outputs": [
        {
          "internalType": "address",
          "name": "",
          "type": "address"
        }
      ],
      "stateMutability": "view",
      "type": "function"
    },
    {
      "inputs": [
        {
          "internalType": "address",
          "name": "from",
          "type": "address"
        },
        {
          "internalType": "address",
          "name": "to",
          "type": "address"
        },
        {
          "internalType": "uint256",
          "name": "tokenId",
          "type": "uint256"
        }
      ],
      "name": "safeTransferFrom",
      "outputs": [],
      "stateMutability": "nonpayable",
      "type": "function"
    },
    {
      "inputs": [
        {
          "internalType": "address",
          "name": "from",
          "type": "address"
        },
        {
          "internalType": "address",
          "name": "to",
          "type": "address"
        },
        {
          "internalType": "uint256",
          "name": "tokenId",
          "type": "uint256"
        },
        {
          "internalType": "bytes",
          "name": "data",
          "type": "bytes"
        }
      ],
      "name": "safeTransferFrom",
      "outputs": [],
      "stateMutability": "nonpayable",
      "type": "function"
    },
    {
      "inputs": [
        {
          "internalType": "address",
          "name": "operator",
          "type": "address"
        },
        {
          "internalType": "bool",
          "name": "approved",
          "type": "bool"
        }
      ],
      "name": "setApprovalForAll",
      "outputs": [],
      "stateMutability": "nonpayable",
      "type": "function"
    },
    {
      "inputs": [
        {
          "internalType": "bytes4",
          "name": "interfaceId",
          "type": "bytes4"
        }
      ],
      "name": "supportsInterface",
      "outputs": [
        {
          "internalType": "bool",
          "name": "",
          "type": "bool"
        }
      ],
      "stateMutability": "view",
      "type": "function"
    },
    {
      "inputs": [],
      "name": "symbol",
      "outputs": [
        {
          "internalType": "string",
          "name": "",
          "type": "string"
        }
      ],
      "stateMutability": "view",
      "type": "function"
    },
    {
      "inputs": [],
      "name": "tokenCounter",
      "outputs": [
        {
          "internalType": "uint256",
          "name": "",
          "type": "uint256"
        }
      ],
      "stateMutability": "view",
      "type": "function"
    },
    {
      "inputs": [
        {
          "internalType": "uint256",
          "name": "",
          "type": "uint256"
        },
        {
          "internalType": "uint256",
          "name": "",
          "type": "uint256"
        }
      ],
      "name": "tokenToListings",
      "outputs": [
        {
          "internalType": "uint256",
          "name": "",
          "type": "uint256"
        }
      ],
      "stateMutability": "view",
      "type": "function"
    },
    {
      "inputs": [
        {
          "internalType": "uint256",
          "name": "tokenId",
          "type": "uint256"
        }
      ],
      "name": "tokenURI",
      "outputs": [
        {
          "internalType": "string",
          "name": "",
          "type": "string"
        }
      ],
      "stateMutability": "view",
      "type": "function"
    },
    {
      "inputs": [
        {
          "internalType": "address",
          "name": "from",
          "type": "address"
        },
        {
          "internalType": "address",
          "name": "to",
          "type": "address"
        },
        {
          "internalType": "uint256",
          "name": "tokenId",
          "type": "uint256"
        }
      ],
      "name": "transferFrom",
      "outputs": [],
      "stateMutability": "nonpayable",
      "type": "function"
    }
  ],
  "bytecode": "0x60806040526005600a553480156200001657600080fd5b506040518060400160405280600781526020017f5368696e4e4654000000000000000000000000000000000000000000000000008152506040518060400160405280600581526020017f5345554e47000000000000000000000000000000000000000000000000000000815250816000908162000094919062000341565b508060019081620000a6919062000341565b50505060016007819055506000600881905550600060098190555062000428565b600081519050919050565b7f4e487b7100000000000000000000000000000000000000000000000000000000600052604160045260246000fd5b7f4e487b7100000000000000000000000000000000000000000000000000000000600052602260045260246000fd5b600060028204905060018216806200014957607f821691505b6020821081036200015f576200015e62000101565b5b50919050565b60008190508160005260206000209050919050565b60006020601f8301049050919050565b600082821b905092915050565b600060088302620001c97fffffffffffffffffffffffffffffffffffffffffffffffffffffffffffffffff826200018a565b620001d586836200018a565b95508019841693508086168417925050509392505050565b6000819050919050565b6000819050919050565b6000620002226200021c6200021684620001ed565b620001f7565b620001ed565b9050919050565b6000819050919050565b6200023e8362000201565b620002566200024d8262000229565b84845462000197565b825550505050565b600090565b6200026d6200025e565b6200027a81848462000233565b505050565b5b81811015620002a2576200029660008262000263565b60018101905062000280565b5050565b601f821115620002f157620002bb8162000165565b620002c6846200017a565b81016020851015620002d6578190505b620002ee620002e5856200017a565b8301826200027f565b50505b505050565b600082821c905092915050565b60006200031660001984600802620002f6565b1980831691505092915050565b600062000331838362000303565b9150826002028217905092915050565b6200034c82620000c7565b67ffffffffffffffff811115620003685762000367620000d2565b5b62000374825462000130565b62000381828285620002a6565b600060209050601f831160018114620003b95760008415620003a4578287015190505b620003b0858262000323565b86555062000420565b601f198416620003c98662000165565b60005b82811015620003f357848901518255600182019150602085019450602081019050620003cc565b868310156200041357848901516200040f601f89168262000303565b8355505b6001600288020188555050505b505050505050565b61473d80620004386000396000f3fe6080604052600436106101cd5760003560e01c8063454a2ab3116100f757806395d89b4111610095578063d082e38111610064578063d082e38114610704578063d188929f1461072f578063de74e57b14610771578063e985e9c5146107b4576101cd565b806395d89b411461064a578063a22cb46514610675578063b88d4fde1461069e578063c87b56dd146106c7576101cd565b80636c2c9c7d116100d15780636c2c9c7d1461057a578063708d4d35146105a557806370a08231146105d0578063958365751461060d576101cd565b8063454a2ab3146104e45780634c22f381146105005780636352211e1461053d576101cd565b80631ca17eff1161016f578063252657341161013e57806325265734146104045780633f1ffcec1461044157806342842e0e1461047e578063451df52e146104a7576101cd565b80631ca17eff1461035757806321b628861461039457806322e8e1e0146103b057806323b872dd146103db576101cd565b8063095ea7b3116101ab578063095ea7b3146102775780630ad48628146102a05780631389b117146102dd5780631c351a9d1461031a576101cd565b806301ffc9a7146101d257806306fdde031461020f578063081812fc1461023a575b600080fd5b3480156101de57600080fd5b506101f960048036038101906101f491906132f5565b6107f1565b604051610206919061333d565b60405180910390f35b34801561021b57600080fd5b50610224610852565b60405161023191906133e8565b60405180910390f35b34801561024657600080fd5b50610261600480360381019061025c9190613440565b6108e4565b60405161026e91906134ae565b60405180910390f35b34801561028357600080fd5b5061029e600480360381019061029991906134f5565b610900565b005b3480156102ac57600080fd5b506102c760048036038101906102c29190613440565b610916565b6040516102d4919061333d565b60405180910390f35b3480156102e957600080fd5b5061030460048036038101906102ff9190613440565b61098a565b604051610311919061333d565b60405180910390f35b34801561032657600080fd5b50610341600480360381019061033c919061366a565b6109ad565b60405161034e91906136d5565b60405180910390f35b34801561036357600080fd5b5061037e600480360381019061037991906136f0565b610a3c565b60405161038b91906136d5565b60405180910390f35b6103ae60048036038101906103a99190613440565b610a6d565b005b3480156103bc57600080fd5b506103c5610def565b6040516103d291906136d5565b60405180910390f35b3480156103e757600080fd5b5061040260048036038101906103fd9190613730565b610df9565b005b34801561041057600080fd5b5061042b60048036038101906104269190613440565b610efb565b6040516104389190613955565b60405180910390f35b34801561044d57600080fd5b5061046860048036038101906104639190613977565b611190565b60405161047591906136d5565b60405180910390f35b34801561048a57600080fd5b506104a560048036038101906104a09190613730565b6111b5565b005b3480156104b357600080fd5b506104ce60048036038101906104c99190613440565b6111d5565b6040516104db91906134ae565b60405180910390f35b6104fe60048036038101906104f99190613440565b611208565b005b34801561050c57600080fd5b50610527600480360381019061052291906139b7565b6114f5565b60405161053491906136d5565b60405180910390f35b34801561054957600080fd5b50610564600480360381019061055f9190613440565b6116ed565b60405161057191906134ae565b60405180910390f35b34801561058657600080fd5b5061058f6116ff565b60405161059c91906136d5565b60405180910390f35b3480156105b157600080fd5b506105ba611705565b6040516105c791906136d5565b60405180910390f35b3480156105dc57600080fd5b506105f760048036038101906105f29190613a0a565b61170b565b60405161060491906136d5565b60405180910390f35b34801561061957600080fd5b50610634600480360381019061062f9190613440565b6117c5565b6040516106419190613955565b60405180910390f35b34801561065657600080fd5b5061065f611a5a565b60405161066c91906133e8565b60405180910390f35b34801561068157600080fd5b5061069c60048036038101906106979190613a63565b611aec565b005b3480156106aa57600080fd5b506106c560048036038101906106c09190613b44565b611b02565b005b3480156106d357600080fd5b506106ee60048036038101906106e99190613440565b611b1f565b6040516106fb91906133e8565b60405180910390f35b34801561071057600080fd5b50610719611c32565b60405161072691906136d5565b60405180910390f35b34801561073b57600080fd5b5061075660048036038101906107519190613440565b611c38565b60405161076896959493929190613bc7565b60405180910390f35b34801561077d57600080fd5b5061079860048036038101906107939190613440565b611dd6565b6040516107ab9796959493929190613c45565b60405180910390f35b3480156107c057600080fd5b506107db60048036038101906107d69190613cb4565b611e45565b6040516107e8919061333d565b60405180910390f35b6000634906490660e01b7bffffffffffffffffffffffffffffffffffffffffffffffffffffffff1916827bffffffffffffffffffffffffffffffffffffffffffffffffffffffff1916148061084b575061084a82611ed9565b5b9050919050565b60606000805461086190613d23565b80601f016020809104026020016040519081016040528092919081815260200182805461088d90613d23565b80156108da5780601f106108af576101008083540402835291602001916108da565b820191906000526020600020905b8154815290600101906020018083116108bd57829003601f168201915b5050505050905090565b60006108ef82611fbb565b506108f982612043565b9050919050565b610912828261090d612080565b612088565b5050565b600080600181111561092b5761092a6137cd565b5b600c600084815260200190815260200160002060060160009054906101000a900460ff166001811115610961576109606137cd565b5b148015610983575042600c600084815260200190815260200160002060050154115b9050919050565b600042600c60008481526020019081526020016000206005015411159050919050565b6000600860008154809291906109c290613d83565b9190505550600060085490506109d8838261209a565b6109e281856120b8565b8273ffffffffffffffffffffffffffffffffffffffff167fe7cd4ce7f2a465edc730269a1305e8a48bad821e8fb7e152ec413829c01a53c48286604051610a2a929190613dcb565b60405180910390a28091505092915050565b600b6020528160005260406000208181548110610a5857600080fd5b90600052602060002001600091509150505481565b610a75612114565b610a7e81610916565b15610abe576040517f08c379a0000000000000000000000000000000000000000000000000000000008152600401610ab590613e47565b60405180910390fd5b6000600c600083815260200190815260200160002090506000600e600084815260200190815260200160002060009054906101000a900473ffffffffffffffffffffffffffffffffffffffff1690508160000160009054906101000a900473ffffffffffffffffffffffffffffffffffffffff1673ffffffffffffffffffffffffffffffffffffffff163373ffffffffffffffffffffffffffffffffffffffff161480610b9657508073ffffffffffffffffffffffffffffffffffffffff163373ffffffffffffffffffffffffffffffffffffffff16145b610bd5576040517f08c379a0000000000000000000000000000000000000000000000000000000008152600401610bcc90613ed9565b60405180910390fd5b60008073ffffffffffffffffffffffffffffffffffffffff168273ffffffffffffffffffffffffffffffffffffffff1614610cf557610c193083856001015461215a565b600d600085815260200190815260200160002060008373ffffffffffffffffffffffffffffffffffffffff1673ffffffffffffffffffffffffffffffffffffffff1681526020019081526020016000205490506000600d600086815260200190815260200160002060008473ffffffffffffffffffffffffffffffffffffffff1673ffffffffffffffffffffffffffffffffffffffff16815260200190815260200160002081905550610cf08360000160009054906101000a900473ffffffffffffffffffffffffffffffffffffffff16826122c7565b610d29565b610d28308460000160009054906101000a900473ffffffffffffffffffffffffffffffffffffffff16856001015461215a565b5b60018360060160006101000a81548160ff02191690836001811115610d5157610d506137cd565b5b02179055508173ffffffffffffffffffffffffffffffffffffffff168360000160009054906101000a900473ffffffffffffffffffffffffffffffffffffffff1673ffffffffffffffffffffffffffffffffffffffff167f7a59a6c36c8b7dc5080444722a7a194bf83837c893f984bcea8692e91551fc478684604051610dd9929190613ef9565b60405180910390a3505050610dec6123f1565b50565b6000600854905090565b600073ffffffffffffffffffffffffffffffffffffffff168273ffffffffffffffffffffffffffffffffffffffff1603610e6b5760006040517f64a0ae92000000000000000000000000000000000000000000000000000000008152600401610e6291906134ae565b60405180910390fd5b6000610e7f8383610e7a612080565b6123fb565b90508373ffffffffffffffffffffffffffffffffffffffff168173ffffffffffffffffffffffffffffffffffffffff1614610ef5578382826040517f64283d7b000000000000000000000000000000000000000000000000000000008152600401610eec93929190613f22565b60405180910390fd5b50505050565b60606000600b6000848152602001908152602001600020805480602002602001604051908101604052809291908181526020018280548015610f5c57602002820191906000526020600020905b815481526020019060010190808311610f48575b505050505090506000805b8251811015610fba57610f93838281518110610f8657610f85613f59565b5b602002602001015161098a565b15610fa7578180610fa390613d83565b9250505b8080610fb290613d83565b915050610f67565b5060008167ffffffffffffffff811115610fd757610fd661353f565b5b60405190808252806020026020018201604052801561101057816020015b610ffd613224565b815260200190600190039081610ff55790505b5090506000805b84518110156111835761104385828151811061103657611035613f59565b5b602002602001015161098a565b1561117057600c600086838151811061105f5761105e613f59565b5b602002602001015181526020019081526020016000206040518060e00160405290816000820160009054906101000a900473ffffffffffffffffffffffffffffffffffffffff1673ffffffffffffffffffffffffffffffffffffffff1673ffffffffffffffffffffffffffffffffffffffff16815260200160018201548152602001600282015481526020016003820154815260200160048201548152602001600582015481526020016006820160009054906101000a900460ff16600181111561112d5761112c6137cd565b5b600181111561113f5761113e6137cd565b5b8152505083838151811061115657611155613f59565b5b6020026020010181905250818061116c90613d83565b9250505b808061117b90613d83565b915050611017565b5081945050505050919050565b600d602052816000526040600020602052806000526040600020600091509150505481565b6111d083838360405180602001604052806000815250611b02565b505050565b600e6020528060005260406000206000915054906101000a900473ffffffffffffffffffffffffffffffffffffffff1681565b611210612114565b61121981610916565b611258576040517f08c379a000000000000000000000000000000000000000000000000000000000815260040161124f90613fd4565b60405180910390fd5b6000600c600083815260200190815260200160002090508060000160009054906101000a900473ffffffffffffffffffffffffffffffffffffffff1673ffffffffffffffffffffffffffffffffffffffff163373ffffffffffffffffffffffffffffffffffffffff1603611301576040517f08c379a00000000000000000000000000000000000000000000000000000000081526004016112f890614040565b60405180910390fd5b600034600d600085815260200190815260200160002060003373ffffffffffffffffffffffffffffffffffffffff1673ffffffffffffffffffffffffffffffffffffffff1681526020019081526020016000205461135f9190614060565b9050816002015481116113a7576040517f08c379a000000000000000000000000000000000000000000000000000000000815260040161139e90614106565b60405180910390fd5b6113b083612615565b34600d600085815260200190815260200160002060003373ffffffffffffffffffffffffffffffffffffffff1673ffffffffffffffffffffffffffffffffffffffff16815260200190815260200160002060008282546114109190614060565b9250508190555033600e600085815260200190815260200160002060006101000a81548173ffffffffffffffffffffffffffffffffffffffff021916908373ffffffffffffffffffffffffffffffffffffffff1602179055506000600a54836002015461147d9190614155565b905080836002015461148f9190614060565b83600201819055503373ffffffffffffffffffffffffffffffffffffffff167f0bda7f7cf42011b27b057b83f3bf21f963b84eb591478e6b413b18d7872cd37a85846040516114df929190613ef9565b60405180910390a25050506114f26123f1565b50565b60006009600081548092919061150a90613d83565b9190505550600060095490506000429050600084826115299190614060565b90506040518060e001604052803373ffffffffffffffffffffffffffffffffffffffff16815260200187815260200188815260200188815260200183815260200182815260200160006001811115611584576115836137cd565b5b815250600c600085815260200190815260200160002060008201518160000160006101000a81548173ffffffffffffffffffffffffffffffffffffffff021916908373ffffffffffffffffffffffffffffffffffffffff1602179055506020820151816001015560408201518160020155606082015181600301556080820151816004015560a0820151816005015560c08201518160060160006101000a81548160ff0219169083600181111561163e5761163d6137cd565b5b0217905550905050600b600087815260200190815260200160002083908060018154018082558091505060019003906000526020600020016000909190919091505561168b33308861215a565b3373ffffffffffffffffffffffffffffffffffffffff167e09646912aaa7019ad837e57cc5c0613299c8432f5268d4450ab8673fe0fa0384898986866040516116d8959493929190614186565b60405180910390a28293505050509392505050565b60006116f882611fbb565b9050919050565b60095481565b600a5481565b60008073ffffffffffffffffffffffffffffffffffffffff168273ffffffffffffffffffffffffffffffffffffffff160361177e5760006040517f89c62b6400000000000000000000000000000000000000000000000000000000815260040161177591906134ae565b60405180910390fd5b600360008373ffffffffffffffffffffffffffffffffffffffff1673ffffffffffffffffffffffffffffffffffffffff168152602001908152602001600020549050919050565b60606000600b600084815260200190815260200160002080548060200260200160405190810160405280929190818152602001828054801561182657602002820191906000526020600020905b815481526020019060010190808311611812575b505050505090506000805b82518110156118845761185d8382815181106118505761184f613f59565b5b6020026020010151610916565b1561187157818061186d90613d83565b9250505b808061187c90613d83565b915050611831565b5060008167ffffffffffffffff8111156118a1576118a061353f565b5b6040519080825280602002602001820160405280156118da57816020015b6118c7613224565b8152602001906001900390816118bf5790505b5090506000805b8451811015611a4d5761190d858281518110611900576118ff613f59565b5b6020026020010151610916565b15611a3a57600c600086838151811061192957611928613f59565b5b602002602001015181526020019081526020016000206040518060e00160405290816000820160009054906101000a900473ffffffffffffffffffffffffffffffffffffffff1673ffffffffffffffffffffffffffffffffffffffff1673ffffffffffffffffffffffffffffffffffffffff16815260200160018201548152602001600282015481526020016003820154815260200160048201548152602001600582015481526020016006820160009054906101000a900460ff1660018111156119f7576119f66137cd565b5b6001811115611a0957611a086137cd565b5b81525050838381518110611a2057611a1f613f59565b5b60200260200101819052508180611a3690613d83565b9250505b8080611a4590613d83565b9150506118e1565b5081945050505050919050565b606060018054611a6990613d23565b80601f0160208091040260200160405190810160405280929190818152602001828054611a9590613d23565b8015611ae25780601f10611ab757610100808354040283529160200191611ae2565b820191906000526020600020905b815481529060010190602001808311611ac557829003601f168201915b5050505050905090565b611afe611af7612080565b8383612757565b5050565b611b0d848484610df9565b611b19848484846128c6565b50505050565b6060611b2a82611fbb565b506000600660008481526020019081526020016000208054611b4b90613d23565b80601f0160208091040260200160405190810160405280929190818152602001828054611b7790613d23565b8015611bc45780601f10611b9957610100808354040283529160200191611bc4565b820191906000526020600020905b815481529060010190602001808311611ba757829003601f168201915b505050505090506000611bd5612a7d565b90506000815103611bea578192505050611c2d565b600082511115611c1f578082604051602001611c07929190614215565b60405160208183030381529060405292505050611c2d565b611c2884612a94565b925050505b919050565b60085481565b60606000606060008060008060009050600080600190505b6009548111611c955789600c60008381526020019081526020016000206001015403611c825780925060019150611c95565b8080611c8d90613d83565b915050611c50565b50611c9e613224565b8115611d9e57600c60008481526020019081526020016000206040518060e00160405290816000820160009054906101000a900473ffffffffffffffffffffffffffffffffffffffff1673ffffffffffffffffffffffffffffffffffffffff1673ffffffffffffffffffffffffffffffffffffffff16815260200160018201548152602001600282015481526020016003820154815260200160048201548152602001600582015481526020016006820160009054906101000a900460ff166001811115611d6f57611d6e6137cd565b5b6001811115611d8157611d806137cd565b5b815250509050611d9083610916565b955080604001519450611da7565b60009550600094505b611daf610852565b9850899750611dbd8a611b1f565b9650611dc88a6116ed565b935050505091939550919395565b600c6020528060005260406000206000915090508060000160009054906101000a900473ffffffffffffffffffffffffffffffffffffffff16908060010154908060020154908060030154908060040154908060050154908060060160009054906101000a900460ff16905087565b6000600560008473ffffffffffffffffffffffffffffffffffffffff1673ffffffffffffffffffffffffffffffffffffffff16815260200190815260200160002060008373ffffffffffffffffffffffffffffffffffffffff1673ffffffffffffffffffffffffffffffffffffffff16815260200190815260200160002060009054906101000a900460ff16905092915050565b60007f80ac58cd000000000000000000000000000000000000000000000000000000007bffffffffffffffffffffffffffffffffffffffffffffffffffffffff1916827bffffffffffffffffffffffffffffffffffffffffffffffffffffffff19161480611fa457507f5b5e139f000000000000000000000000000000000000000000000000000000007bffffffffffffffffffffffffffffffffffffffffffffffffffffffff1916827bffffffffffffffffffffffffffffffffffffffffffffffffffffffff1916145b80611fb45750611fb382612afd565b5b9050919050565b600080611fc783612b67565b9050600073ffffffffffffffffffffffffffffffffffffffff168173ffffffffffffffffffffffffffffffffffffffff160361203a57826040517f7e27328900000000000000000000000000000000000000000000000000000000815260040161203191906136d5565b60405180910390fd5b80915050919050565b60006004600083815260200190815260200160002060009054906101000a900473ffffffffffffffffffffffffffffffffffffffff169050919050565b600033905090565b6120958383836001612ba4565b505050565b6120b4828260405180602001604052806000815250612d69565b5050565b806006600084815260200190815260200160002090816120d891906143e5565b507ff8e1a15aba9398e019f0b49df1a4fde98ee17ae345cb5f6b5e2c27f5033e8ce78260405161210891906136d5565b60405180910390a15050565b600260075403612150576040517f3ee5aeb500000000000000000000000000000000000000000000000000000000815260040160405180910390fd5b6002600781905550565b600073ffffffffffffffffffffffffffffffffffffffff168273ffffffffffffffffffffffffffffffffffffffff16036121cc5760006040517f64a0ae920000000000000000000000000000000000000000000000000000000081526004016121c391906134ae565b60405180910390fd5b60006121da838360006123fb565b9050600073ffffffffffffffffffffffffffffffffffffffff168173ffffffffffffffffffffffffffffffffffffffff160361224d57816040517f7e27328900000000000000000000000000000000000000000000000000000000815260040161224491906136d5565b60405180910390fd5b8373ffffffffffffffffffffffffffffffffffffffff168173ffffffffffffffffffffffffffffffffffffffff16146122c1578382826040517f64283d7b0000000000000000000000000000000000000000000000000000000081526004016122b893929190613f22565b60405180910390fd5b50505050565b60008103156123ed57600073ffffffffffffffffffffffffffffffffffffffff168273ffffffffffffffffffffffffffffffffffffffff160361233f576040517f08c379a000000000000000000000000000000000000000000000000000000000815260040161233690614529565b60405180910390fd5b60008273ffffffffffffffffffffffffffffffffffffffff16826040516123659061457a565b60006040518083038185875af1925050503d80600081146123a2576040519150601f19603f3d011682016040523d82523d6000602084013e6123a7565b606091505b50509050806123eb576040517f08c379a00000000000000000000000000000000000000000000000000000000081526004016123e2906145db565b60405180910390fd5b505b5050565b6001600781905550565b60008061240784612b67565b9050600073ffffffffffffffffffffffffffffffffffffffff168373ffffffffffffffffffffffffffffffffffffffff161461244957612448818486612d85565b5b600073ffffffffffffffffffffffffffffffffffffffff168173ffffffffffffffffffffffffffffffffffffffff16146124da5761248b600085600080612ba4565b6001600360008373ffffffffffffffffffffffffffffffffffffffff1673ffffffffffffffffffffffffffffffffffffffff168152602001908152602001600020600082825403925050819055505b600073ffffffffffffffffffffffffffffffffffffffff168573ffffffffffffffffffffffffffffffffffffffff161461255d576001600360008773ffffffffffffffffffffffffffffffffffffffff1673ffffffffffffffffffffffffffffffffffffffff168152602001908152602001600020600082825401925050819055505b846002600086815260200190815260200160002060006101000a81548173ffffffffffffffffffffffffffffffffffffffff021916908373ffffffffffffffffffffffffffffffffffffffff160217905550838573ffffffffffffffffffffffffffffffffffffffff168273ffffffffffffffffffffffffffffffffffffffff167fddf252ad1be2c89b69c2b068fc378daa952ba7f163c4a11628f55a4df523b3ef60405160405180910390a4809150509392505050565b6000600e600083815260200190815260200160002060009054906101000a900473ffffffffffffffffffffffffffffffffffffffff1690506000600d600084815260200190815260200160002060008373ffffffffffffffffffffffffffffffffffffffff1673ffffffffffffffffffffffffffffffffffffffff1681526020019081526020016000205490506000600d600085815260200190815260200160002060008473ffffffffffffffffffffffffffffffffffffffff1673ffffffffffffffffffffffffffffffffffffffff1681526020019081526020016000208190555061270282826122c7565b8173ffffffffffffffffffffffffffffffffffffffff167f5eec25485ddf1aad4b5c89eda65e6053949901bfb1fe6f4c553e9c208b5bd5f8848360405161274a929190613ef9565b60405180910390a2505050565b600073ffffffffffffffffffffffffffffffffffffffff168273ffffffffffffffffffffffffffffffffffffffff16036127c857816040517f5b08ba180000000000000000000000000000000000000000000000000000000081526004016127bf91906134ae565b60405180910390fd5b80600560008573ffffffffffffffffffffffffffffffffffffffff1673ffffffffffffffffffffffffffffffffffffffff16815260200190815260200160002060008473ffffffffffffffffffffffffffffffffffffffff1673ffffffffffffffffffffffffffffffffffffffff16815260200190815260200160002060006101000a81548160ff0219169083151502179055508173ffffffffffffffffffffffffffffffffffffffff168373ffffffffffffffffffffffffffffffffffffffff167f17307eab39ab6107e8899845ad3d59bd9653f200f220920489ca2b5937696c31836040516128b9919061333d565b60405180910390a3505050565b60008373ffffffffffffffffffffffffffffffffffffffff163b1115612a77578273ffffffffffffffffffffffffffffffffffffffff1663150b7a0261290a612080565b8685856040518563ffffffff1660e01b815260040161292c9493929190614650565b6020604051808303816000875af192505050801561296857506040513d601f19601f8201168201806040525081019061296591906146b1565b60015b6129ec573d8060008114612998576040519150601f19603f3d011682016040523d82523d6000602084013e61299d565b606091505b5060008151036129e457836040517f64a0ae920000000000000000000000000000000000000000000000000000000081526004016129db91906134ae565b60405180910390fd5b805181602001fd5b63150b7a0260e01b7bffffffffffffffffffffffffffffffffffffffffffffffffffffffff1916817bffffffffffffffffffffffffffffffffffffffffffffffffffffffff191614612a7557836040517f64a0ae92000000000000000000000000000000000000000000000000000000008152600401612a6c91906134ae565b60405180910390fd5b505b50505050565b606060405180602001604052806000815250905090565b6060612a9f82611fbb565b506000612aaa612a7d565b90506000815111612aca5760405180602001604052806000815250612af5565b80612ad484612e49565b604051602001612ae5929190614215565b6040516020818303038152906040525b915050919050565b60007f01ffc9a7000000000000000000000000000000000000000000000000000000007bffffffffffffffffffffffffffffffffffffffffffffffffffffffff1916827bffffffffffffffffffffffffffffffffffffffffffffffffffffffff1916149050919050565b60006002600083815260200190815260200160002060009054906101000a900473ffffffffffffffffffffffffffffffffffffffff169050919050565b8080612bdd5750600073ffffffffffffffffffffffffffffffffffffffff168273ffffffffffffffffffffffffffffffffffffffff1614155b15612d11576000612bed84611fbb565b9050600073ffffffffffffffffffffffffffffffffffffffff168373ffffffffffffffffffffffffffffffffffffffff1614158015612c5857508273ffffffffffffffffffffffffffffffffffffffff168173ffffffffffffffffffffffffffffffffffffffff1614155b8015612c6b5750612c698184611e45565b155b15612cad57826040517fa9fbf51f000000000000000000000000000000000000000000000000000000008152600401612ca491906134ae565b60405180910390fd5b8115612d0f57838573ffffffffffffffffffffffffffffffffffffffff168273ffffffffffffffffffffffffffffffffffffffff167f8c5be1e5ebec7d5bd14f71427d1e84f3dd0314c0f7b2291e5b200ac8c7c3b92560405160405180910390a45b505b836004600085815260200190815260200160002060006101000a81548173ffffffffffffffffffffffffffffffffffffffff021916908373ffffffffffffffffffffffffffffffffffffffff16021790555050505050565b612d738383612f17565b612d8060008484846128c6565b505050565b612d90838383613010565b612e4457600073ffffffffffffffffffffffffffffffffffffffff168373ffffffffffffffffffffffffffffffffffffffff1603612e0557806040517f7e273289000000000000000000000000000000000000000000000000000000008152600401612dfc91906136d5565b60405180910390fd5b81816040517f177e802f000000000000000000000000000000000000000000000000000000008152600401612e3b9291906146de565b60405180910390fd5b505050565b606060006001612e58846130d1565b01905060008167ffffffffffffffff811115612e7757612e7661353f565b5b6040519080825280601f01601f191660200182016040528015612ea95781602001600182028036833780820191505090505b509050600082602001820190505b600115612f0c578080600190039150507f3031323334353637383961626364656600000000000000000000000000000000600a86061a8153600a8581612f0057612eff614126565b5b04945060008503612eb7575b819350505050919050565b600073ffffffffffffffffffffffffffffffffffffffff168273ffffffffffffffffffffffffffffffffffffffff1603612f895760006040517f64a0ae92000000000000000000000000000000000000000000000000000000008152600401612f8091906134ae565b60405180910390fd5b6000612f97838360006123fb565b9050600073ffffffffffffffffffffffffffffffffffffffff168173ffffffffffffffffffffffffffffffffffffffff161461300b5760006040517f73c6ac6e00000000000000000000000000000000000000000000000000000000815260040161300291906134ae565b60405180910390fd5b505050565b60008073ffffffffffffffffffffffffffffffffffffffff168373ffffffffffffffffffffffffffffffffffffffff16141580156130c857508273ffffffffffffffffffffffffffffffffffffffff168473ffffffffffffffffffffffffffffffffffffffff16148061308957506130888484611e45565b5b806130c757508273ffffffffffffffffffffffffffffffffffffffff166130af83612043565b73ffffffffffffffffffffffffffffffffffffffff16145b5b90509392505050565b600080600090507a184f03e93ff9f4daa797ed6e38ed64bf6a1f010000000000000000831061312f577a184f03e93ff9f4daa797ed6e38ed64bf6a1f010000000000000000838161312557613124614126565b5b0492506040810190505b6d04ee2d6d415b85acef8100000000831061316c576d04ee2d6d415b85acef8100000000838161316257613161614126565b5b0492506020810190505b662386f26fc10000831061319b57662386f26fc10000838161319157613190614126565b5b0492506010810190505b6305f5e10083106131c4576305f5e10083816131ba576131b9614126565b5b0492506008810190505b61271083106131e95761271083816131df576131de614126565b5b0492506004810190505b6064831061320c576064838161320257613201614126565b5b0492506002810190505b600a831061321b576001810190505b80915050919050565b6040518060e00160405280600073ffffffffffffffffffffffffffffffffffffffff168152602001600081526020016000815260200160008152602001600081526020016000815260200160006001811115613283576132826137cd565b5b81525090565b6000604051905090565b600080fd5b600080fd5b60007fffffffff0000000000000000000000000000000000000000000000000000000082169050919050565b6132d28161329d565b81146132dd57600080fd5b50565b6000813590506132ef816132c9565b92915050565b60006020828403121561330b5761330a613293565b5b6000613319848285016132e0565b91505092915050565b60008115159050919050565b61333781613322565b82525050565b6000602082019050613352600083018461332e565b92915050565b600081519050919050565b600082825260208201905092915050565b60005b83811015613392578082015181840152602081019050613377565b60008484015250505050565b6000601f19601f8301169050919050565b60006133ba82613358565b6133c48185613363565b93506133d4818560208601613374565b6133dd8161339e565b840191505092915050565b6000602082019050818103600083015261340281846133af565b905092915050565b6000819050919050565b61341d8161340a565b811461342857600080fd5b50565b60008135905061343a81613414565b92915050565b60006020828403121561345657613455613293565b5b60006134648482850161342b565b91505092915050565b600073ffffffffffffffffffffffffffffffffffffffff82169050919050565b60006134988261346d565b9050919050565b6134a88161348d565b82525050565b60006020820190506134c3600083018461349f565b92915050565b6134d28161348d565b81146134dd57600080fd5b50565b6000813590506134ef816134c9565b92915050565b6000806040838503121561350c5761350b613293565b5b600061351a858286016134e0565b925050602061352b8582860161342b565b9150509250929050565b600080fd5b600080fd5b7f4e487b7100000000000000000000000000000000000000000000000000000000600052604160045260246000fd5b6135778261339e565b810181811067ffffffffffffffff821117156135965761359561353f565b5b80604052505050565b60006135a9613289565b90506135b5828261356e565b919050565b600067ffffffffffffffff8211156135d5576135d461353f565b5b6135de8261339e565b9050602081019050919050565b82818337600083830152505050565b600061360d613608846135ba565b61359f565b9050828152602081018484840111156136295761362861353a565b5b6136348482856135eb565b509392505050565b600082601f83011261365157613650613535565b5b81356136618482602086016135fa565b91505092915050565b6000806040838503121561368157613680613293565b5b600083013567ffffffffffffffff81111561369f5761369e613298565b5b6136ab8582860161363c565b92505060206136bc858286016134e0565b9150509250929050565b6136cf8161340a565b82525050565b60006020820190506136ea60008301846136c6565b92915050565b6000806040838503121561370757613706613293565b5b60006137158582860161342b565b92505060206137268582860161342b565b9150509250929050565b60008060006060848603121561374957613748613293565b5b6000613757868287016134e0565b9350506020613768868287016134e0565b92505060406137798682870161342b565b9150509250925092565b600081519050919050565b600082825260208201905092915050565b6000819050602082019050919050565b6137b88161348d565b82525050565b6137c78161340a565b82525050565b7f4e487b7100000000000000000000000000000000000000000000000000000000600052602160045260246000fd5b6002811061380d5761380c6137cd565b5b50565b600081905061381e826137fc565b919050565b600061382e82613810565b9050919050565b61383e81613823565b82525050565b60e08201600082015161385a60008501826137af565b50602082015161386d60208501826137be565b50604082015161388060408501826137be565b50606082015161389360608501826137be565b5060808201516138a660808501826137be565b5060a08201516138b960a08501826137be565b5060c08201516138cc60c0850182613835565b50505050565b60006138de8383613844565b60e08301905092915050565b6000602082019050919050565b600061390282613783565b61390c818561378e565b93506139178361379f565b8060005b8381101561394857815161392f88826138d2565b975061393a836138ea565b92505060018101905061391b565b5085935050505092915050565b6000602082019050818103600083015261396f81846138f7565b905092915050565b6000806040838503121561398e5761398d613293565b5b600061399c8582860161342b565b92505060206139ad858286016134e0565b9150509250929050565b6000806000606084860312156139d0576139cf613293565b5b60006139de8682870161342b565b93505060206139ef8682870161342b565b9250506040613a008682870161342b565b9150509250925092565b600060208284031215613a2057613a1f613293565b5b6000613a2e848285016134e0565b91505092915050565b613a4081613322565b8114613a4b57600080fd5b50565b600081359050613a5d81613a37565b92915050565b60008060408385031215613a7a57613a79613293565b5b6000613a88858286016134e0565b9250506020613a9985828601613a4e565b9150509250929050565b600067ffffffffffffffff821115613abe57613abd61353f565b5b613ac78261339e565b9050602081019050919050565b6000613ae7613ae284613aa3565b61359f565b905082815260208101848484011115613b0357613b0261353a565b5b613b0e8482856135eb565b509392505050565b600082601f830112613b2b57613b2a613535565b5b8135613b3b848260208601613ad4565b91505092915050565b60008060008060808587031215613b5e57613b5d613293565b5b6000613b6c878288016134e0565b9450506020613b7d878288016134e0565b9350506040613b8e8782880161342b565b925050606085013567ffffffffffffffff811115613baf57613bae613298565b5b613bbb87828801613b16565b91505092959194509250565b600060c0820190508181036000830152613be181896133af565b9050613bf060208301886136c6565b8181036040830152613c0281876133af565b9050613c11606083018661332e565b613c1e60808301856136c6565b613c2b60a083018461349f565b979650505050505050565b613c3f81613823565b82525050565b600060e082019050613c5a600083018a61349f565b613c6760208301896136c6565b613c7460408301886136c6565b613c8160608301876136c6565b613c8e60808301866136c6565b613c9b60a08301856136c6565b613ca860c0830184613c36565b98975050505050505050565b60008060408385031215613ccb57613cca613293565b5b6000613cd9858286016134e0565b9250506020613cea858286016134e0565b9150509250929050565b7f4e487b7100000000000000000000000000000000000000000000000000000000600052602260045260246000fd5b60006002820490506001821680613d3b57607f821691505b602082108103613d4e57613d4d613cf4565b5b50919050565b7f4e487b7100000000000000000000000000000000000000000000000000000000600052601160045260246000fd5b6000613d8e8261340a565b91507fffffffffffffffffffffffffffffffffffffffffffffffffffffffffffffffff8203613dc057613dbf613d54565b5b600182019050919050565b6000604082019050613de060008301856136c6565b8181036020830152613df281846133af565b90509392505050565b7f61756374696f6e206973207374696c6c206f70656e0000000000000000000000600082015250565b6000613e31601583613363565b9150613e3c82613dfb565b602082019050919050565b60006020820190508181036000830152613e6081613e24565b9050919050565b7f6f6e6c792073656c6c6572206f722077696e6e65722063616e20636f6d706c6560008201527f74652061756374696f6e00000000000000000000000000000000000000000000602082015250565b6000613ec3602a83613363565b9150613ece82613e67565b604082019050919050565b60006020820190508181036000830152613ef281613eb6565b9050919050565b6000604082019050613f0e60008301856136c6565b613f1b60208301846136c6565b9392505050565b6000606082019050613f37600083018661349f565b613f4460208301856136c6565b613f51604083018461349f565b949350505050565b7f4e487b7100000000000000000000000000000000000000000000000000000000600052603260045260246000fd5b7f61756374696f6e2068617320656e646564000000000000000000000000000000600082015250565b6000613fbe601183613363565b9150613fc982613f88565b602082019050919050565b60006020820190508181036000830152613fed81613fb1565b9050919050565b7f63616e6e6f7420626964206f6e207768617420796f75206f776e000000000000600082015250565b600061402a601a83613363565b915061403582613ff4565b602082019050919050565b600060208201905081810360008301526140598161401d565b9050919050565b600061406b8261340a565b91506140768361340a565b925082820190508082111561408e5761408d613d54565b5b92915050565b7f63616e6e6f74206269642062656c6f7720746865206c6174657374206269646460008201527f696e672070726963650000000000000000000000000000000000000000000000602082015250565b60006140f0602983613363565b91506140fb82614094565b604082019050919050565b6000602082019050818103600083015261411f816140e3565b9050919050565b7f4e487b7100000000000000000000000000000000000000000000000000000000600052601260045260246000fd5b60006141608261340a565b915061416b8361340a565b92508261417b5761417a614126565b5b828204905092915050565b600060a08201905061419b60008301886136c6565b6141a860208301876136c6565b6141b560408301866136c6565b6141c260608301856136c6565b6141cf60808301846136c6565b9695505050505050565b600081905092915050565b60006141ef82613358565b6141f981856141d9565b9350614209818560208601613374565b80840191505092915050565b600061422182856141e4565b915061422d82846141e4565b91508190509392505050565b60008190508160005260206000209050919050565b60006020601f8301049050919050565b600082821b905092915050565b60006008830261429b7fffffffffffffffffffffffffffffffffffffffffffffffffffffffffffffffff8261425e565b6142a5868361425e565b95508019841693508086168417925050509392505050565b6000819050919050565b60006142e26142dd6142d88461340a565b6142bd565b61340a565b9050919050565b6000819050919050565b6142fc836142c7565b614310614308826142e9565b84845461426b565b825550505050565b600090565b614325614318565b6143308184846142f3565b505050565b5b818110156143545761434960008261431d565b600181019050614336565b5050565b601f8211156143995761436a81614239565b6143738461424e565b81016020851015614382578190505b61439661438e8561424e565b830182614335565b50505b505050565b600082821c905092915050565b60006143bc6000198460080261439e565b1980831691505092915050565b60006143d583836143ab565b9150826002028217905092915050565b6143ee82613358565b67ffffffffffffffff8111156144075761440661353f565b5b6144118254613d23565b61441c828285614358565b600060209050601f83116001811461444f576000841561443d578287015190505b61444785826143c9565b8655506144af565b601f19841661445d86614239565b60005b8281101561448557848901518255600182019150602085019450602081019050614460565b868310156144a2578489015161449e601f8916826143ab565b8355505b6001600288020188555050505b505050505050565b7f4572726f722c2063616e6e6f74207472616e7366657220746f2061646472657360008201527f7328302900000000000000000000000000000000000000000000000000000000602082015250565b6000614513602483613363565b915061451e826144b7565b604082019050919050565b6000602082019050818103600083015261454281614506565b9050919050565b600081905092915050565b50565b6000614564600083614549565b915061456f82614554565b600082019050919050565b600061458582614557565b9150819050919050565b7f4572726f722c206661696c656420746f2073656e642045746865720000000000600082015250565b60006145c5601b83613363565b91506145d08261458f565b602082019050919050565b600060208201905081810360008301526145f4816145b8565b9050919050565b600081519050919050565b600082825260208201905092915050565b6000614622826145fb565b61462c8185614606565b935061463c818560208601613374565b6146458161339e565b840191505092915050565b6000608082019050614665600083018761349f565b614672602083018661349f565b61467f60408301856136c6565b81810360608301526146918184614617565b905095945050505050565b6000815190506146ab816132c9565b92915050565b6000602082840312156146c7576146c6613293565b5b60006146d58482850161469c565b91505092915050565b60006040820190506146f3600083018561349f565b61470060208301846136c6565b939250505056fea2646970667358221220a2d2db1b764fc59656c46270439b00c8b5f890cd2a47e3e3a7fa8a178d181dd164736f6c63430008140033",
  "linkReferences": {},
  "deployedLinkReferences": {}
}