{
  "_format": "hh-sol-artifact-1",
  "contractName": "FundRaising",
  "sourceName": "contracts/fund_raising.sol",
  "abi": [
    {
      "inputs": [
        {
          "internalType": "uint256",
          "name": "_targetAmount",
          "type": "uint256"
        }
      ],
      "stateMutability": "nonpayable",
      "type": "constructor"
    },
    {
      "anonymous": false,
      "inputs": [
        {
          "indexed": true,
          "internalType": "address",
          "name": "donor",
          "type": "address"
        },
        {
          "indexed": false,
          "internalType": "uint256",
          "name": "amount",
          "type": "uint256"
        }
      ],
      "name": "DonationReceived",
      "type": "event"
    },
    {
      "anonymous": false,
      "inputs": [
        {
          "indexed": false,
          "internalType": "uint256",
          "name": "amount",
          "type": "uint256"
        }
      ],
      "name": "DonationsWithdrawn",
      "type": "event"
    },
    {
      "anonymous": false,
      "inputs": [
        {
          "indexed": true,
          "internalType": "address",
          "name": "donor",
          "type": "address"
        },
        {
          "indexed": false,
          "internalType": "uint256",
          "name": "amount",
          "type": "uint256"
        }
      ],
      "name": "RefundProcessed",
      "type": "event"
    },
    {
      "inputs": [
        {
          "internalType": "address",
          "name": "account",
          "type": "address"
        }
      ],
      "name": "balanceOf",
      "outputs": [
        {
          "internalType": "uint256",
          "name": "",
          "type": "uint256"
        }
      ],
      "stateMutability": "view",
      "type": "function"
    },
    {
      "inputs": [
        {
          "internalType": "address",
          "name": "",
          "type": "address"
        }
      ],
      "name": "donations",
      "outputs": [
        {
          "internalType": "uint256",
          "name": "",
          "type": "uint256"
        }
      ],
      "stateMutability": "view",
      "type": "function"
    },
    {
      "inputs": [],
      "name": "finishTime",
      "outputs": [
        {
          "internalType": "uint256",
          "name": "",
          "type": "uint256"
        }
      ],
      "stateMutability": "view",
      "type": "function"
    },
    {
      "inputs": [],
      "name": "owner",
      "outputs": [
        {
          "internalType": "address",
          "name": "",
          "type": "address"
        }
      ],
      "stateMutability": "view",
      "type": "function"
    },
    {
      "inputs": [],
      "name": "raisedAmount",
      "outputs": [
        {
          "internalType": "uint256",
          "name": "",
          "type": "uint256"
        }
      ],
      "stateMutability": "view",
      "type": "function"
    },
    {
      "inputs": [],
      "name": "refund",
      "outputs": [],
      "stateMutability": "nonpayable",
      "type": "function"
    },
    {
      "inputs": [],
      "name": "targetAmount",
      "outputs": [
        {
          "internalType": "uint64",
          "name": "",
          "type": "uint64"
        }
      ],
      "stateMutability": "view",
      "type": "function"
    },
    {
      "inputs": [],
      "name": "withdrawDonations",
      "outputs": [],
      "stateMutability": "nonpayable",
      "type": "function"
    },
    {
      "stateMutability": "payable",
      "type": "receive"
    }
  ],
  "bytecode": "0x6080604052600060025562127500426200001a919062000103565b6003553480156200002a57600080fd5b5060405162000e1538038062000e158339818101604052810190620000509190620000d7565b806000806101000a81548167ffffffffffffffff021916908367ffffffffffffffff16021790555033600060086101000a81548173ffffffffffffffffffffffffffffffffffffffff021916908373ffffffffffffffffffffffffffffffffffffffff16021790555050620001b3565b600081519050620000d18162000199565b92915050565b600060208284031215620000ea57600080fd5b6000620000fa84828501620000c0565b91505092915050565b6000620001108262000160565b91506200011d8362000160565b9250827fffffffffffffffffffffffffffffffffffffffffffffffffffffffffffffffff038211156200015557620001546200016a565b5b828201905092915050565b6000819050919050565b7f4e487b7100000000000000000000000000000000000000000000000000000000600052601160045260246000fd5b620001a48162000160565b8114620001b057600080fd5b50565b610c5280620001c36000396000f3fe60806040526004361061007f5760003560e01c8063953b8fb81161004e578063953b8fb814610236578063c59ee1dc14610261578063cc6cb19a1461028c578063ce1b088a146102c957610187565b8063590e1ae31461018c5780635958611e146101a357806370a08231146101ce5780638da5cb5b1461020b57610187565b366101875760035442106100c8576040517f08c379a00000000000000000000000000000000000000000000000000000000081526004016100bf90610a89565b60405180910390fd5b34600160003373ffffffffffffffffffffffffffffffffffffffff1673ffffffffffffffffffffffffffffffffffffffff16815260200190815260200160002060008282546101179190610b30565b9250508190555034600260008282546101309190610b30565b925050819055503373ffffffffffffffffffffffffffffffffffffffff167f264f630d9efa0d07053a31163641d9fcc0adafc9d9e76f1c37c2ce3a558d2c523460405161017d9190610ae9565b60405180910390a2005b600080fd5b34801561019857600080fd5b506101a16102e0565b005b3480156101af57600080fd5b506101b8610529565b6040516101c59190610ae9565b60405180910390f35b3480156101da57600080fd5b506101f560048036038101906101f091906107c6565b61052f565b6040516102029190610ae9565b60405180910390f35b34801561021757600080fd5b50610220610578565b60405161022d9190610a0e565b60405180910390f35b34801561024257600080fd5b5061024b61059e565b6040516102589190610b04565b60405180910390f35b34801561026d57600080fd5b506102766105b6565b6040516102839190610ae9565b60405180910390f35b34801561029857600080fd5b506102b360048036038101906102ae91906107c6565b6105bc565b6040516102c09190610ae9565b60405180910390f35b3480156102d557600080fd5b506102de6105d4565b005b6003544211610324576040517f08c379a000000000000000000000000000000000000000000000000000000000815260040161031b90610a69565b60405180910390fd5b60008054906101000a900467ffffffffffffffff1667ffffffffffffffff1660025410610386576040517f08c379a000000000000000000000000000000000000000000000000000000000815260040161037d90610a29565b60405180910390fd5b6000600160003373ffffffffffffffffffffffffffffffffffffffff1673ffffffffffffffffffffffffffffffffffffffff1681526020019081526020016000205411610408576040517f08c379a00000000000000000000000000000000000000000000000000000000081526004016103ff90610aa9565b60405180910390fd5b6000600160003373ffffffffffffffffffffffffffffffffffffffff1673ffffffffffffffffffffffffffffffffffffffff1681526020019081526020016000205490506000600160003373ffffffffffffffffffffffffffffffffffffffff1673ffffffffffffffffffffffffffffffffffffffff168152602001908152602001600020819055503373ffffffffffffffffffffffffffffffffffffffff166108fc829081150290604051600060405180830381858888f193505050501580156104d7573d6000803e3d6000fd5b503373ffffffffffffffffffffffffffffffffffffffff167f3367befd2b2f39615cd79917c2153263c4af1d3945ec003e5d5bfc13a8d858338260405161051e9190610ae9565b60405180910390a250565b60035481565b6000600160008373ffffffffffffffffffffffffffffffffffffffff1673ffffffffffffffffffffffffffffffffffffffff168152602001908152602001600020549050919050565b600060089054906101000a900473ffffffffffffffffffffffffffffffffffffffff1681565b60008054906101000a900467ffffffffffffffff1681565b60025481565b60016020528060005260406000206000915090505481565b600060089054906101000a900473ffffffffffffffffffffffffffffffffffffffff1673ffffffffffffffffffffffffffffffffffffffff163373ffffffffffffffffffffffffffffffffffffffff1614610664576040517f08c379a000000000000000000000000000000000000000000000000000000000815260040161065b90610ac9565b60405180910390fd5b60008054906101000a900467ffffffffffffffff1667ffffffffffffffff1660025410156106c7576040517f08c379a00000000000000000000000000000000000000000000000000000000081526004016106be90610a49565b60405180910390fd5b600354421161070b576040517f08c379a000000000000000000000000000000000000000000000000000000000815260040161070290610a69565b60405180910390fd5b600060089054906101000a900473ffffffffffffffffffffffffffffffffffffffff1673ffffffffffffffffffffffffffffffffffffffff166108fc6002549081150290604051600060405180830381858888f19350505050158015610775573d6000803e3d6000fd5b507f493bd3b494eae7075c1a33fc0db02aacfb1d99fbc8a463eb9c94726cb147efee6002546040516107a79190610ae9565b60405180910390a1565b6000813590506107c081610c05565b92915050565b6000602082840312156107d857600080fd5b60006107e6848285016107b1565b91505092915050565b6107f881610b86565b82525050565b600061080b601d83610b1f565b91507f5468652063616d706169676e20726561636865642074686520676f616c0000006000830152602082019050919050565b600061084b602283610b1f565b91507f5468652070726f6a65637420646964206e6f742072656163682074686520676f60008301527f616c0000000000000000000000000000000000000000000000000000000000006020830152604082019050919050565b60006108b1601c83610b1f565b91507f5468652063616d706169676e206973206e6f74206f76657220796574000000006000830152602082019050919050565b60006108f1601583610b1f565b91507f546869732063616d706169676e206973206f76657200000000000000000000006000830152602082019050919050565b6000610931602383610b1f565b91507f796f7520646964206e6f7420646f6e61746520746f20746869732063616d706160008301527f69676e00000000000000000000000000000000000000000000000000000000006020830152604082019050919050565b6000610997602883610b1f565b91507f46756e64732077696c6c206f6e6c792062652072656c656173656420746f207460008301527f6865206f776e65720000000000000000000000000000000000000000000000006020830152604082019050919050565b6109f981610bb8565b82525050565b610a0881610bc2565b82525050565b6000602082019050610a2360008301846107ef565b92915050565b60006020820190508181036000830152610a42816107fe565b9050919050565b60006020820190508181036000830152610a628161083e565b9050919050565b60006020820190508181036000830152610a82816108a4565b9050919050565b60006020820190508181036000830152610aa2816108e4565b9050919050565b60006020820190508181036000830152610ac281610924565b9050919050565b60006020820190508181036000830152610ae28161098a565b9050919050565b6000602082019050610afe60008301846109f0565b92915050565b6000602082019050610b1960008301846109ff565b92915050565b600082825260208201905092915050565b6000610b3b82610bb8565b9150610b4683610bb8565b9250827fffffffffffffffffffffffffffffffffffffffffffffffffffffffffffffffff03821115610b7b57610b7a610bd6565b5b828201905092915050565b6000610b9182610b98565b9050919050565b600073ffffffffffffffffffffffffffffffffffffffff82169050919050565b6000819050919050565b600067ffffffffffffffff82169050919050565b7f4e487b7100000000000000000000000000000000000000000000000000000000600052601160045260246000fd5b610c0e81610b86565b8114610c1957600080fd5b5056fea2646970667358221220a47f3ea8138aba8c18c3289d787bd89d982eff1bfc39d3f9a6088abeda358a9764736f6c63430008000033",
  "linkReferences": {},
  "deployedLinkReferences": {}
}